{
  "contractName": "ERC1155WallUser",
  "abi": [
    {
      "anonymous": false,
      "inputs": [
        {
          "indexed": true,
          "internalType": "address",
          "name": "account",
          "type": "address"
        },
        {
          "indexed": true,
          "internalType": "address",
          "name": "operator",
          "type": "address"
        },
        {
          "indexed": false,
          "internalType": "bool",
          "name": "approved",
          "type": "bool"
        }
      ],
      "name": "ApprovalForAll",
      "type": "event"
    },
    {
      "anonymous": false,
      "inputs": [
        {
          "indexed": false,
          "internalType": "address",
          "name": "owner",
          "type": "address"
        },
        {
          "indexed": false,
          "internalType": "string",
          "name": "name",
          "type": "string"
        },
        {
          "indexed": false,
          "internalType": "string",
          "name": "symbol",
          "type": "string"
        }
      ],
      "name": "CreateERC1155WallUser",
      "type": "event"
    },
    {
      "anonymous": false,
      "inputs": [
        {
          "indexed": false,
          "internalType": "uint256",
          "name": "tokenId",
          "type": "uint256"
        },
        {
          "components": [
            {
              "internalType": "address payable",
              "name": "account",
              "type": "address"
            },
            {
              "internalType": "uint96",
              "name": "value",
              "type": "uint96"
            }
          ],
          "indexed": false,
          "internalType": "struct LibPart.Part[]",
          "name": "creators",
          "type": "tuple[]"
        }
      ],
      "name": "Creators",
      "type": "event"
    },
    {
      "anonymous": false,
      "inputs": [
        {
          "indexed": true,
          "internalType": "address",
          "name": "previousOwner",
          "type": "address"
        },
        {
          "indexed": true,
          "internalType": "address",
          "name": "newOwner",
          "type": "address"
        }
      ],
      "name": "OwnershipTransferred",
      "type": "event"
    },
    {
      "anonymous": false,
      "inputs": [
        {
          "indexed": false,
          "internalType": "uint256",
          "name": "tokenId",
          "type": "uint256"
        },
        {
          "components": [
            {
              "internalType": "address payable",
              "name": "account",
              "type": "address"
            },
            {
              "internalType": "uint96",
              "name": "value",
              "type": "uint96"
            }
          ],
          "indexed": false,
          "internalType": "struct LibPart.Part[]",
          "name": "royalties",
          "type": "tuple[]"
        }
      ],
      "name": "RoyaltiesSet",
      "type": "event"
    },
    {
      "anonymous": false,
      "inputs": [
        {
          "indexed": false,
          "internalType": "uint256",
          "name": "tokenId",
          "type": "uint256"
        },
        {
          "indexed": false,
          "internalType": "uint256",
          "name": "value",
          "type": "uint256"
        }
      ],
      "name": "Supply",
      "type": "event"
    },
    {
      "anonymous": false,
      "inputs": [
        {
          "indexed": true,
          "internalType": "address",
          "name": "operator",
          "type": "address"
        },
        {
          "indexed": true,
          "internalType": "address",
          "name": "from",
          "type": "address"
        },
        {
          "indexed": true,
          "internalType": "address",
          "name": "to",
          "type": "address"
        },
        {
          "indexed": false,
          "internalType": "uint256[]",
          "name": "ids",
          "type": "uint256[]"
        },
        {
          "indexed": false,
          "internalType": "uint256[]",
          "name": "values",
          "type": "uint256[]"
        }
      ],
      "name": "TransferBatch",
      "type": "event"
    },
    {
      "anonymous": false,
      "inputs": [
        {
          "indexed": true,
          "internalType": "address",
          "name": "operator",
          "type": "address"
        },
        {
          "indexed": true,
          "internalType": "address",
          "name": "from",
          "type": "address"
        },
        {
          "indexed": true,
          "internalType": "address",
          "name": "to",
          "type": "address"
        },
        {
          "indexed": false,
          "internalType": "uint256",
          "name": "id",
          "type": "uint256"
        },
        {
          "indexed": false,
          "internalType": "uint256",
          "name": "value",
          "type": "uint256"
        }
      ],
      "name": "TransferSingle",
      "type": "event"
    },
    {
      "anonymous": false,
      "inputs": [
        {
          "indexed": false,
          "internalType": "string",
          "name": "value",
          "type": "string"
        },
        {
          "indexed": true,
          "internalType": "uint256",
          "name": "id",
          "type": "uint256"
        }
      ],
      "name": "URI",
      "type": "event"
    },
    {
      "inputs": [
        {
          "internalType": "address",
          "name": "account",
          "type": "address"
        },
        {
          "internalType": "uint256",
          "name": "id",
          "type": "uint256"
        }
      ],
      "name": "balanceOf",
      "outputs": [
        {
          "internalType": "uint256",
          "name": "",
          "type": "uint256"
        }
      ],
      "stateMutability": "view",
      "type": "function"
    },
    {
      "inputs": [
        {
          "internalType": "address[]",
          "name": "accounts",
          "type": "address[]"
        },
        {
          "internalType": "uint256[]",
          "name": "ids",
          "type": "uint256[]"
        }
      ],
      "name": "balanceOfBatch",
      "outputs": [
        {
          "internalType": "uint256[]",
          "name": "",
          "type": "uint256[]"
        }
      ],
      "stateMutability": "view",
      "type": "function"
    },
    {
      "inputs": [],
      "name": "baseURI",
      "outputs": [
        {
          "internalType": "string",
          "name": "",
          "type": "string"
        }
      ],
      "stateMutability": "view",
      "type": "function"
    },
    {
      "inputs": [
        {
          "internalType": "address",
          "name": "account",
          "type": "address"
        },
        {
          "internalType": "uint256",
          "name": "id",
          "type": "uint256"
        },
        {
          "internalType": "uint256",
          "name": "value",
          "type": "uint256"
        }
      ],
      "name": "burn",
      "outputs": [],
      "stateMutability": "nonpayable",
      "type": "function"
    },
    {
      "inputs": [
        {
          "internalType": "address",
          "name": "account",
          "type": "address"
        },
        {
          "internalType": "uint256[]",
          "name": "ids",
          "type": "uint256[]"
        },
        {
          "internalType": "uint256[]",
          "name": "values",
          "type": "uint256[]"
        }
      ],
      "name": "burnBatch",
      "outputs": [],
      "stateMutability": "nonpayable",
      "type": "function"
    },
    {
      "inputs": [],
      "name": "contractURI",
      "outputs": [
        {
          "internalType": "string",
          "name": "",
          "type": "string"
        }
      ],
      "stateMutability": "view",
      "type": "function"
    },
    {
      "inputs": [
        {
          "internalType": "uint256",
          "name": "",
          "type": "uint256"
        },
        {
          "internalType": "uint256",
          "name": "",
          "type": "uint256"
        }
      ],
      "name": "creators",
      "outputs": [
        {
          "internalType": "address payable",
          "name": "account",
          "type": "address"
        },
        {
          "internalType": "uint96",
          "name": "value",
          "type": "uint96"
        }
      ],
      "stateMutability": "view",
      "type": "function"
    },
    {
      "inputs": [
        {
          "internalType": "uint256",
          "name": "_id",
          "type": "uint256"
        }
      ],
      "name": "getCreators",
      "outputs": [
        {
          "components": [
            {
              "internalType": "address payable",
              "name": "account",
              "type": "address"
            },
            {
              "internalType": "uint96",
              "name": "value",
              "type": "uint96"
            }
          ],
          "internalType": "struct LibPart.Part[]",
          "name": "",
          "type": "tuple[]"
        }
      ],
      "stateMutability": "view",
      "type": "function"
    },
    {
      "inputs": [
        {
          "internalType": "uint256",
          "name": "id",
          "type": "uint256"
        }
      ],
      "name": "getRoyalties",
      "outputs": [
        {
          "components": [
            {
              "internalType": "address payable",
              "name": "account",
              "type": "address"
            },
            {
              "internalType": "uint96",
              "name": "value",
              "type": "uint96"
            }
          ],
          "internalType": "struct LibPart.Part[]",
          "name": "",
          "type": "tuple[]"
        }
      ],
      "stateMutability": "view",
      "type": "function"
    },
    {
      "inputs": [
        {
          "internalType": "address",
          "name": "account",
          "type": "address"
        },
        {
          "internalType": "address",
          "name": "operator",
          "type": "address"
        }
      ],
      "name": "isApprovedForAll",
      "outputs": [
        {
          "internalType": "bool",
          "name": "",
          "type": "bool"
        }
      ],
      "stateMutability": "view",
      "type": "function"
    },
    {
      "inputs": [],
      "name": "name",
      "outputs": [
        {
          "internalType": "string",
          "name": "",
          "type": "string"
        }
      ],
      "stateMutability": "view",
      "type": "function"
    },
    {
      "inputs": [],
      "name": "owner",
      "outputs": [
        {
          "internalType": "address",
          "name": "",
          "type": "address"
        }
      ],
      "stateMutability": "view",
      "type": "function"
    },
    {
      "inputs": [],
      "name": "renounceOwnership",
      "outputs": [],
      "stateMutability": "nonpayable",
      "type": "function"
    },
    {
      "inputs": [
        {
          "internalType": "uint256",
          "name": "",
          "type": "uint256"
        },
        {
          "internalType": "uint256",
          "name": "",
          "type": "uint256"
        }
      ],
      "name": "royalties",
      "outputs": [
        {
          "internalType": "address payable",
          "name": "account",
          "type": "address"
        },
        {
          "internalType": "uint96",
          "name": "value",
          "type": "uint96"
        }
      ],
      "stateMutability": "view",
      "type": "function"
    },
    {
      "inputs": [
        {
          "internalType": "address",
          "name": "from",
          "type": "address"
        },
        {
          "internalType": "address",
          "name": "to",
          "type": "address"
        },
        {
          "internalType": "uint256[]",
          "name": "ids",
          "type": "uint256[]"
        },
        {
          "internalType": "uint256[]",
          "name": "amounts",
          "type": "uint256[]"
        },
        {
          "internalType": "bytes",
          "name": "data",
          "type": "bytes"
        }
      ],
      "name": "safeBatchTransferFrom",
      "outputs": [],
      "stateMutability": "nonpayable",
      "type": "function"
    },
    {
      "inputs": [
        {
          "internalType": "address",
          "name": "from",
          "type": "address"
        },
        {
          "internalType": "address",
          "name": "to",
          "type": "address"
        },
        {
          "internalType": "uint256",
          "name": "id",
          "type": "uint256"
        },
        {
          "internalType": "uint256",
          "name": "amount",
          "type": "uint256"
        },
        {
          "internalType": "bytes",
          "name": "data",
          "type": "bytes"
        }
      ],
      "name": "safeTransferFrom",
      "outputs": [],
      "stateMutability": "nonpayable",
      "type": "function"
    },
    {
      "inputs": [
        {
          "internalType": "address",
          "name": "operator",
          "type": "address"
        },
        {
          "internalType": "bool",
          "name": "approved",
          "type": "bool"
        }
      ],
      "name": "setApprovalForAll",
      "outputs": [],
      "stateMutability": "nonpayable",
      "type": "function"
    },
    {
      "inputs": [
        {
          "internalType": "bytes4",
          "name": "interfaceId",
          "type": "bytes4"
        }
      ],
      "name": "supportsInterface",
      "outputs": [
        {
          "internalType": "bool",
          "name": "",
          "type": "bool"
        }
      ],
      "stateMutability": "view",
      "type": "function"
    },
    {
      "inputs": [],
      "name": "symbol",
      "outputs": [
        {
          "internalType": "string",
          "name": "",
          "type": "string"
        }
      ],
      "stateMutability": "view",
      "type": "function"
    },
    {
      "inputs": [
        {
          "components": [
            {
              "internalType": "uint256",
              "name": "tokenId",
              "type": "uint256"
            },
            {
              "internalType": "string",
              "name": "uri",
              "type": "string"
            },
            {
              "internalType": "uint256",
              "name": "supply",
              "type": "uint256"
            },
            {
              "components": [
                {
                  "internalType": "address payable",
                  "name": "account",
                  "type": "address"
                },
                {
                  "internalType": "uint96",
                  "name": "value",
                  "type": "uint96"
                }
              ],
              "internalType": "struct LibPart.Part[]",
              "name": "creators",
              "type": "tuple[]"
            },
            {
              "components": [
                {
                  "internalType": "address payable",
                  "name": "account",
                  "type": "address"
                },
                {
                  "internalType": "uint96",
                  "name": "value",
                  "type": "uint96"
                }
              ],
              "internalType": "struct LibPart.Part[]",
              "name": "royalties",
              "type": "tuple[]"
            },
            {
              "internalType": "bytes[]",
              "name": "signatures",
              "type": "bytes[]"
            }
          ],
          "internalType": "struct LibERC1155LazyMint.Mint1155Data",
          "name": "data",
          "type": "tuple"
        },
        {
          "internalType": "address",
          "name": "from",
          "type": "address"
        },
        {
          "internalType": "address",
          "name": "to",
          "type": "address"
        },
        {
          "internalType": "uint256",
          "name": "amount",
          "type": "uint256"
        }
      ],
      "name": "transferFromOrMintTo",
      "outputs": [],
      "stateMutability": "nonpayable",
      "type": "function"
    },
    {
      "inputs": [
        {
          "internalType": "address",
          "name": "newOwner",
          "type": "address"
        }
      ],
      "name": "transferOwnership",
      "outputs": [],
      "stateMutability": "nonpayable",
      "type": "function"
    },
    {
      "inputs": [
        {
          "internalType": "string",
          "name": "_name",
          "type": "string"
        },
        {
          "internalType": "string",
          "name": "_symbol",
          "type": "string"
        },
        {
          "internalType": "string",
          "name": "baseURI",
          "type": "string"
        },
        {
          "internalType": "string",
          "name": "contractURI",
          "type": "string"
        },
        {
          "internalType": "address[]",
          "name": "operators",
          "type": "address[]"
        }
      ],
      "name": "__ERC1155WallUser_init",
      "outputs": [],
      "stateMutability": "nonpayable",
      "type": "function"
    },
    {
      "inputs": [
        {
          "internalType": "uint256",
          "name": "tokenId",
          "type": "uint256"
        }
      ],
      "name": "uri",
      "outputs": [
        {
          "internalType": "string",
          "name": "",
          "type": "string"
        }
      ],
      "stateMutability": "view",
      "type": "function"
    },
    {
      "inputs": [
        {
          "components": [
            {
              "internalType": "uint256",
              "name": "tokenId",
              "type": "uint256"
            },
            {
              "internalType": "string",
              "name": "uri",
              "type": "string"
            },
            {
              "internalType": "uint256",
              "name": "supply",
              "type": "uint256"
            },
            {
              "components": [
                {
                  "internalType": "address payable",
                  "name": "account",
                  "type": "address"
                },
                {
                  "internalType": "uint96",
                  "name": "value",
                  "type": "uint96"
                }
              ],
              "internalType": "struct LibPart.Part[]",
              "name": "creators",
              "type": "tuple[]"
            },
            {
              "components": [
                {
                  "internalType": "address payable",
                  "name": "account",
                  "type": "address"
                },
                {
                  "internalType": "uint96",
                  "name": "value",
                  "type": "uint96"
                }
              ],
              "internalType": "struct LibPart.Part[]",
              "name": "royalties",
              "type": "tuple[]"
            },
            {
              "internalType": "bytes[]",
              "name": "signatures",
              "type": "bytes[]"
            }
          ],
          "internalType": "struct LibERC1155LazyMint.Mint1155Data",
          "name": "data",
          "type": "tuple"
        },
        {
          "internalType": "address",
          "name": "to",
          "type": "address"
        },
        {
          "internalType": "uint256",
          "name": "_amount",
          "type": "uint256"
        }
      ],
      "name": "mintAndTransferTo",
      "outputs": [],
      "stateMutability": "nonpayable",
      "type": "function"
    }
  ],
  "bytecode": "0x608060405234801561001057600080fd5b50614714806100206000396000f3fe608060405234801561001057600080fd5b50600436106101575760003560e01c80638924af74116100c3578063e8a3d4851161007c578063e8a3d485146102e2578063e985e9c5146102ea578063f242432a146102fd578063f2fde38b14610310578063f428ea1214610323578063f5298aca1461033657610157565b80638924af741461026b5780638da5cb5b1461028c57806395d89b41146102a157806398d0b4fb146102a9578063a22cb465146102bc578063bb3bafd6146102cf57610157565b80636235b555116101155780636235b555146102025780636b20c454146102155780636c0360eb146102285780636eac80ca14610230578063715018a614610243578063891be9741461024b57610157565b8062fdd58e1461015c57806301ffc9a71461018557806306fdde03146101a55780630e89341c146101ba5780632eb2c2d6146101cd5780634e1273f4146101e2575b600080fd5b61016f61016a366004613cfb565b610349565b60405161017c91906142fc565b60405180910390f35b610198610193366004613dba565b6103b8565b60405161017c91906140fc565b6101ad6103db565b60405161017c9190614107565b6101ad6101c8366004613f5e565b61046a565b6101e06101db366004613b49565b61047b565b005b6101f56101f0366004613d5a565b610779565b60405161017c91906140b8565b6101e0610210366004613ea0565b610864565b6101e0610223366004613c58565b6108bf565b6101ad610938565b6101e061023e366004613f07565b6109cf565b6101e0610a37565b61025e610259366004613f5e565b610af5565b60405161017c91906140a5565b61027e610279366004613f76565b610b85565b60405161017c929190614083565b610294610bcf565b60405161017c9190614039565b6101ad610bde565b61027e6102b7366004613f76565b610c3a565b6101e06102ca366004613cca565b610c57565b61025e6102dd366004613f5e565b610d46565b6101ad610dc1565b6101986102f8366004613b11565b610e1d565b6101e061030b366004613bf2565b610e4b565b6101e061031e366004613af5565b611016565b6101e0610331366004613de2565b61112b565b6101e0610344366004613d26565b6112b2565b60006001600160a01b0383166103905760405162461bcd60e51b815260040180806020018281038252602b815260200180614490602b913960400191505060405180910390fd5b5060009081526097602090815260408083206001600160a01b03949094168352929052205490565b6001600160e01b0319811660009081526065602052604090205460ff165b919050565b61022f805460408051602060026001851615610100026000190190941693909304601f810184900484028201840190925281815292918301828280156104625780601f1061043757610100808354040283529160200191610462565b820191906000526020600020905b81548152906001019060200180831161044557829003601f168201915b505050505081565b606061047582611326565b92915050565b81518351146104bb5760405162461bcd60e51b81526004018080602001828103825260288152602001806146966028913960400191505060405180910390fd5b6001600160a01b0384166105005760405162461bcd60e51b81526004018080602001828103825260258152602001806145506025913960400191505060405180910390fd5b610508611562565b6001600160a01b0316856001600160a01b0316148061052e575061052e856102f8611562565b6105695760405162461bcd60e51b81526004018080602001828103825260328152602001806145756032913960400191505060405180910390fd5b6000610573611562565b9050610583818787878787610771565b60005b845181101561068957600085828151811061059d57fe5b6020026020010151905060008583815181106105b557fe5b60200260200101519050610622816040518060600160405280602a815260200161461a602a91396097600086815260200190815260200160002060008d6001600160a01b03166001600160a01b03168152602001908152602001600020546115669092919063ffffffff16565b60008381526097602090815260408083206001600160a01b038e811685529252808320939093558a168152205461065990826115fd565b60009283526097602090815260408085206001600160a01b038c1686529091529092209190915550600101610586565b50846001600160a01b0316866001600160a01b0316826001600160a01b03167f4a39dc06d4c0dbc64b70af90fd698a233a518aa5d07e595d983b8c0526c8f7fb8787604051808060200180602001838103835285818151815260200191508051906020019060200280838360005b8381101561070f5781810151838201526020016106f7565b50505050905001838103825284818151815260200191508051906020019060200280838360005b8381101561074e578181015183820152602001610736565b5050505090500194505050505060405180910390a461077181878787878761165e565b505050505050565b606081518351146107bb5760405162461bcd60e51b815260040180806020018281038252602981526020018061466d6029913960400191505060405180910390fd5b600083516001600160401b03811180156107d457600080fd5b506040519080825280602002602001820160405280156107fe578160200160208202803683370190505b50905060005b845181101561085c5761083d85828151811061081c57fe5b602002602001015185838151811061083057fe5b6020026020010151610349565b82828151811061084957fe5b6020908102919091010152600101610804565b509392505050565b6000610874848660000151610349565b90508181156108ae5782808310156108895750815b6108a9868689600001518460405180602001604052806000815250610e4b565b830390505b8015610771576107718685836109cf565b6108c7611562565b6001600160a01b0316836001600160a01b031614806108ed57506108ed836102f8611562565b6109285760405162461bcd60e51b81526004018080602001828103825260298152602001806145056029913960400191505060405180910390fd5b6109338383836118dd565b505050565b60fc8054604080516020601f60026000196101006001881615020190951694909404938401819004810282018101909252828152606093909290918301828280156109c45780601f10610999576101008083540402835291602001916109c4565b820191906000526020600020905b8154815290600101906020018083116109a757829003601f168201915b505050505090505b90565b82606001516000815181106109e057fe5b6020026020010151600001516001600160a01b03166109fd610bcf565b6001600160a01b031614610a2c5760405162461bcd60e51b8152600401610a239061411a565b60405180910390fd5b610933838383611b4b565b610a3f611562565b6001600160a01b0316610a50610bcf565b6001600160a01b031614610aab576040805162461bcd60e51b815260206004820181905260248201527f4f776e61626c653a2063616c6c6572206973206e6f7420746865206f776e6572604482015290519081900360640190fd5b6033546040516000916001600160a01b0316907f8be0079c531659141344cd1fd0a4f28419497f9722a3daafe3b4186f6b6457e0908390a3603380546001600160a01b0319169055565b60606101c86000838152602001908152602001600020805480602002602001604051908101604052809291908181526020016000905b82821015610b7a57600084815260209081902060408051808201909152908401546001600160a01b0381168252600160a01b90046001600160601b031681830152825260019092019101610b2b565b505050509050919050565b6101c76020528160005260406000208181548110610ba257600080fd5b6000918252602090912001546001600160a01b0381169250600160a01b90046001600160601b0316905082565b6033546001600160a01b031690565b610230805460408051602060026001851615610100026000190190941693909304601f810184900484028201840190925281815292918301828280156104625780601f1061043757610100808354040283529160200191610462565b6101c86020528160005260406000208181548110610ba257600080fd5b816001600160a01b0316610c69611562565b6001600160a01b03161415610caf5760405162461bcd60e51b81526004018080602001828103825260298152602001806146446029913960400191505060405180910390fd5b8060986000610cbc611562565b6001600160a01b03908116825260208083019390935260409182016000908120918716808252919093529120805460ff191692151592909217909155610d00611562565b6001600160a01b03167f17307eab39ab6107e8899845ad3d59bd9653f200f220920489ca2b5937696c318360405180821515815260200191505060405180910390a35050565b60008181526101c760209081526040808320805482518185028101850190935280835260609492939192909184018215610b7a57600084815260209081902060408051808201909152908401546001600160a01b0381168252600160a01b90046001600160601b031681830152825260019092019101610b2b565b6101fd805460408051602060026001851615610100026000190190941693909304601f810184900484028201840190925281815292918301828280156104625780601f1061043757610100808354040283529160200191610462565b6001600160a01b03918216600090815260986020908152604080832093909416825291909152205460ff1690565b6001600160a01b038416610e905760405162461bcd60e51b81526004018080602001828103825260258152602001806145506025913960400191505060405180910390fd5b610e98611562565b6001600160a01b0316856001600160a01b03161480610ebe5750610ebe856102f8611562565b610ef95760405162461bcd60e51b81526004018080602001828103825260298152602001806145056029913960400191505060405180910390fd5b6000610f03611562565b9050610f23818787610f1488611d4c565b610f1d88611d4c565b87610771565b610f6a836040518060600160405280602a815260200161461a602a913960008781526097602090815260408083206001600160a01b038d1684529091529020549190611566565b60008581526097602090815260408083206001600160a01b038b81168552925280832093909355871681522054610fa190846115fd565b60008581526097602090815260408083206001600160a01b03808b168086529184529382902094909455805188815291820187905280518a8416938616927fc3d58168c5ae7397731d063d5bbf3d657854427343f4c083240f7aacaa2d0f6292908290030190a4610771818787878787611d91565b61101e611562565b6001600160a01b031661102f610bcf565b6001600160a01b03161461108a576040805162461bcd60e51b815260206004820181905260248201527f4f776e61626c653a2063616c6c6572206973206e6f7420746865206f776e6572604482015290519081900360640190fd5b6001600160a01b0381166110cf5760405162461bcd60e51b81526004018080602001828103825260268152602001806144bb6026913960400191505060405180910390fd5b6033546040516001600160a01b038084169216907f8be0079c531659141344cd1fd0a4f28419497f9722a3daafe3b4186f6b6457e090600090a3603380546001600160a01b0319166001600160a01b0392909216919091179055565b600054610100900460ff16806111445750611144611f02565b80611152575060005460ff16155b61118d5760405162461bcd60e51b815260040180806020018281038252602e8152602001806145a7602e913960400191505060405180910390fd5b600054610100900460ff161580156111b8576000805460ff1961ff0019909116610100171660011790555b6111c0611f13565b6111c861200d565b6111d06120be565b6111d861215b565b6111e06121fb565b6111f8604051806020016040528060008152506122cb565b61120183612397565b61120961215b565b611211612449565b61121b86866124e6565b611224846125b3565b60005b82518110156112565761124e83828151811061123f57fe5b60200260200101516001610c57565b600101611227565b507f58f468e2fe1df40917c002de54e745fe90d5c8228700ff0617ac779bf03abddc611280611562565b87876040516112919392919061404d565b60405180910390a18015610771576000805461ff0019169055505050505050565b6112ba611562565b6001600160a01b0316836001600160a01b031614806112e057506112e0836102f8611562565b61131b5760405162461bcd60e51b81526004018080602001828103825260298152602001806145056029913960400191505060405180910390fd5b6109338383836125c6565b600081815260fb6020908152604080832080548251601f60026000196101006001861615020190931692909204918201859004850281018501909352808352606094938301828280156113ba5780601f1061138f576101008083540402835291602001916113ba565b820191906000526020600020905b81548152906001019060200180831161139d57829003601f168201915b5050505050905060006113cb610938565b90508051600014156113df575090506103d6565b8151156114a05780826040516020018083805190602001908083835b6020831061141a5780518252601f1990920191602091820191016113fb565b51815160209384036101000a600019018019909216911617905285519190930192850191508083835b602083106114625780518252601f199092019160209182019101611443565b6001836020036101000a03801982511681845116808217855250505050505090500192505050604051602081830303815290604052925050506103d6565b806114aa856126f9565b6040516020018083805190602001908083835b602083106114dc5780518252601f1990920191602091820191016114bd565b51815160209384036101000a600019018019909216911617905285519190930192850191508083835b602083106115245780518252601f199092019160209182019101611505565b6001836020036101000a0380198251168184511680821785525050505050509050019250505060405160208183030381529060405292505050919050565b3390565b600081848411156115f55760405162461bcd60e51b81526004018080602001828103825283818151815260200191508051906020019080838360005b838110156115ba5781810151838201526020016115a2565b50505050905090810190601f1680156115e75780820380516001836020036101000a031916815260200191505b509250505060405180910390fd5b505050900390565b600082820183811015611657576040805162461bcd60e51b815260206004820152601b60248201527f536166654d6174683a206164646974696f6e206f766572666c6f770000000000604482015290519081900360640190fd5b9392505050565b611670846001600160a01b03166127d3565b1561077157836001600160a01b031663bc197c8187878686866040518663ffffffff1660e01b815260040180866001600160a01b03168152602001856001600160a01b03168152602001806020018060200180602001848103845287818151815260200191508051906020019060200280838360005b838110156116fe5781810151838201526020016116e6565b50505050905001848103835286818151815260200191508051906020019060200280838360005b8381101561173d578181015183820152602001611725565b50505050905001848103825285818151815260200191508051906020019080838360005b83811015611779578181015183820152602001611761565b50505050905090810190601f1680156117a65780820380516001836020036101000a031916815260200191505b5098505050505050505050602060405180830381600087803b1580156117cb57600080fd5b505af19250505080156117f057506040513d60208110156117eb57600080fd5b505160015b611885576117fc61437a565b80611807575061184e565b60405162461bcd60e51b81526020600482018181528351602484015283518493919283926044019190850190808383600083156115ba5781810151838201526020016115a2565b60405162461bcd60e51b81526004018080602001828103825260348152602001806144346034913960400191505060405180910390fd5b6001600160e01b0319811663bc197c8160e01b146118d45760405162461bcd60e51b81526004018080602001828103825260288152602001806144686028913960400191505060405180910390fd5b50505050505050565b6001600160a01b0383166119225760405162461bcd60e51b81526004018080602001828103825260238152602001806145f76023913960400191505060405180910390fd5b80518251146119625760405162461bcd60e51b81526004018080602001828103825260288152602001806146966028913960400191505060405180910390fd5b600061196c611562565b905061198c81856000868660405180602001604052806000815250610771565b60005b8351811015611a6a57611a218382815181106119a757fe5b60200260200101516040518060600160405280602481526020016144e160249139609760008886815181106119d857fe5b602002602001015181526020019081526020016000206000896001600160a01b03166001600160a01b03168152602001908152602001600020546115669092919063ffffffff16565b60976000868481518110611a3157fe5b602090810291909101810151825281810192909252604090810160009081206001600160a01b038a16825290925290205560010161198f565b5060006001600160a01b0316846001600160a01b0316826001600160a01b03167f4a39dc06d4c0dbc64b70af90fd698a233a518aa5d07e595d983b8c0526c8f7fb8686604051808060200180602001838103835285818151815260200191508051906020019060200280838360005b83811015611af1578181015183820152602001611ad9565b50505050905001838103825284818151815260200191508051906020019060200280838360005b83811015611b30578181015183820152602001611b18565b5050505090500194505050505060405180910390a450505050565b825160601c6000611b5a611562565b9050806001600160a01b0316826001600160a01b03161480611b815750611b818282610e1d565b611b9d5760405162461bcd60e51b8152600401610a2390614205565b60008311611bbd5760405162461bcd60e51b8152600401610a23906141db565b845160009081526101c96020526040902054611d26578460600151600081518110611be457fe5b6020026020010151600001516001600160a01b0316826001600160a01b031614611c205760405162461bcd60e51b8152600401610a23906141b0565b6000856040015111611c445760405162461bcd60e51b8152600401610a2390614151565b8460a001515185606001515114611c5a57600080fd5b6000611c65866127d9565b905060005b866060015151811015611cdb57600087606001518281518110611c8957fe5b6020026020010151600001519050836001600160a01b0316816001600160a01b031614611cd257611cd281848a60a001518581518110611cc557fe5b6020026020010151612a2c565b50600101611c6a565b50611cee86600001518760400151612a37565b611d0086600001518760800151612aa1565b611d1286600001518760600151612c27565b611d2486600001518760200151612dd6565b505b611d458486600001518560405180602001604052806000815250612e99565b5050505050565b60408051600180825281830190925260609160009190602080830190803683370190505090508281600081518110611d8057fe5b602090810291909101015292915050565b611da3846001600160a01b03166127d3565b1561077157836001600160a01b031663f23a6e6187878686866040518663ffffffff1660e01b815260040180866001600160a01b03168152602001856001600160a01b0316815260200184815260200183815260200180602001828103825283818151815260200191508051906020019080838360005b83811015611e32578181015183820152602001611e1a565b50505050905090810190601f168015611e5f5780820380516001836020036101000a031916815260200191505b509650505050505050602060405180830381600087803b158015611e8257600080fd5b505af1925050508015611ea757506040513d6020811015611ea257600080fd5b505160015b611eb3576117fc61437a565b6001600160e01b0319811663f23a6e6160e01b146118d45760405162461bcd60e51b81526004018080602001828103825260288152602001806144686028913960400191505060405180910390fd5b6000611f0d306127d3565b15905090565b600054610100900460ff1680611f2c5750611f2c611f02565b80611f3a575060005460ff16155b611f755760405162461bcd60e51b815260040180806020018281038252602e8152602001806145a7602e913960400191505060405180910390fd5b600054610100900460ff16158015611fa0576000805460ff1961ff0019909116610100171660011790555b6000611faa611562565b603380546001600160a01b0319166001600160a01b038316908117909155604051919250906000907f8be0079c531659141344cd1fd0a4f28419497f9722a3daafe3b4186f6b6457e0908290a350801561200a576000805461ff00191690555b50565b600054610100900460ff16806120265750612026611f02565b80612034575060005460ff16155b61206f5760405162461bcd60e51b815260040180806020018281038252602e8152602001806145a7602e913960400191505060405180910390fd5b600054610100900460ff1615801561209a576000805460ff1961ff0019909116610100171660011790555b6120aa636db15a0f60e01b612eab565b801561200a576000805461ff001916905550565b600054610100900460ff16806120d757506120d7611f02565b806120e5575060005460ff16155b6121205760405162461bcd60e51b815260040180806020018281038252602e8152602001806145a7602e913960400191505060405180910390fd5b600054610100900460ff1615801561214b576000805460ff1961ff0019909116610100171660011790555b6120aa6301ffc9a760e01b612eab565b600054610100900460ff16806121745750612174611f02565b80612182575060005460ff16155b6121bd5760405162461bcd60e51b815260040180806020018281038252602e8152602001806145a7602e913960400191505060405180910390fd5b600054610100900460ff161580156120aa576000805460ff1961ff001990911661010017166001179055801561200a576000805461ff001916905550565b600054610100900460ff16806122145750612214611f02565b80612222575060005460ff16155b61225d5760405162461bcd60e51b815260040180806020018281038252602e8152602001806145a7602e913960400191505060405180910390fd5b600054610100900460ff16158015612288576000805460ff1961ff0019909116610100171660011790555b6120aa604051806040016040528060088152602001674d696e743131353560c01b815250604051806040016040528060018152602001603160f81b815250612f2f565b600054610100900460ff16806122e457506122e4611f02565b806122f2575060005460ff16155b61232d5760405162461bcd60e51b815260040180806020018281038252602e8152602001806145a7602e913960400191505060405180910390fd5b600054610100900460ff16158015612358576000805460ff1961ff0019909116610100171660011790555b61236182612ff1565b612371636cdb3d1360e11b612eab565b6123816303a24d0760e21b612eab565b8015612393576000805461ff00191690555b5050565b600054610100900460ff16806123b057506123b0611f02565b806123be575060005460ff16155b6123f95760405162461bcd60e51b815260040180806020018281038252602e8152602001806145a7602e913960400191505060405180910390fd5b600054610100900460ff16158015612424576000805460ff1961ff0019909116610100171660011790555b8151612438906101fd906020850190613744565b5061238163e8a3d48560e01b612eab565b600054610100900460ff16806124625750612462611f02565b80612470575060005460ff16155b6124ab5760405162461bcd60e51b815260040180806020018281038252602e8152602001806145a7602e913960400191505060405180910390fd5b600054610100900460ff161580156124d6576000805460ff1961ff0019909116610100171660011790555b6120aa631131d2f360e21b612eab565b600054610100900460ff16806124ff57506124ff611f02565b8061250d575060005460ff16155b6125485760405162461bcd60e51b815260040180806020018281038252602e8152602001806145a7602e913960400191505060405180910390fd5b600054610100900460ff16158015612573576000805460ff1961ff0019909116610100171660011790555b82516125879061022f906020860190613744565b50815161259c90610230906020850190613744565b508015610933576000805461ff0019169055505050565b80516123939060fc906020840190613744565b6001600160a01b03831661260b5760405162461bcd60e51b81526004018080602001828103825260238152602001806145f76023913960400191505060405180910390fd5b6000612615611562565b90506126458185600061262787611d4c565b61263087611d4c565b60405180602001604052806000815250610771565b61268c826040518060600160405280602481526020016144e16024913960008681526097602090815260408083206001600160a01b038b1684529091529020549190611566565b60008481526097602090815260408083206001600160a01b03808a16808652918452828520959095558151888152928301879052815193949093908616927fc3d58168c5ae7397731d063d5bbf3d657854427343f4c083240f7aacaa2d0f6292908290030190a450505050565b60608161271e57506040805180820190915260018152600360fc1b60208201526103d6565b8160005b811561273657600101600a82049150612722565b6000816001600160401b038111801561274e57600080fd5b506040519080825280601f01601f191660200182016040528015612779576020820181803683370190505b50859350905060001982015b83156127ca57600a840660300160f81b828280600190039350815181106127a857fe5b60200101906001600160f81b031916908160001a905350600a84049350612785565b50949350505050565b3b151590565b6000808260800151516001600160401b03811180156127f757600080fd5b50604051908082528060200260200182016040528015612821578160200160208202803683370190505b50905060005b836080015151811015612873576128548460800151828151811061284757fe5b6020026020010151613004565b82828151811061286057fe5b6020908102919091010152600101612827565b5060008360600151516001600160401b038111801561289157600080fd5b506040519080825280602002602001820160405280156128bb578160200160208202803683370190505b50905060005b846060015151811015612900576128e18560600151828151811061284757fe5b8282815181106128ed57fe5b60209081029190910101526001016128c1565b507ffb988707ebb338694f318760b0fd5cfe756d00a2ade251fda110b80c336a3c7f846000015185604001518660200151805190602001208460405160200180828051906020019060200280838360005b83811015612969578181015183820152602001612951565b50505050905001915050604051602081830303815290604052805190602001208660405160200180828051906020019060200280838360005b838110156129ba5781810151838201526020016129a2565b50505050905001915050604051602081830303815290604052805190602001206040516020018087815260200186815260200185815260200184815260200183815260200182815260200196505050505050506040516020818303038152906040528051906020012092505050919050565b610933838383613071565b60008281526101c9602052604090205415612a5157600080fd5b60008281526101c9602052604090819020829055517f5e2aa66efd74cce82b21852e317e5490d9ecc9e6bb953ae24d90851258cc2f5c90612a959084908490614326565b60405180910390a15050565b60005b8151811015612c1c5760006001600160a01b0316828281518110612ac457fe5b6020026020010151600001516001600160a01b03161415612b2c576040805162461bcd60e51b815260206004820152601b60248201527f526563697069656e742073686f756c642062652070726573656e740000000000604482015290519081900360640190fd5b818181518110612b3857fe5b6020026020010151602001516001600160601b031660001415612ba2576040805162461bcd60e51b815260206004820181905260248201527f526f79616c74792076616c75652073686f756c6420626520706f736974697665604482015290519081900360640190fd5b60008381526101c7602052604090208251839083908110612bbf57fe5b60209081029190910181015182546001818101855560009485529383902082519101805492909301516001600160601b0316600160a01b026001600160a01b039182166001600160a01b0319909316929092171617905501612aa4565b5061239382826132a9565b60008281526101c86020526040812090805b8351811015612d755760006001600160a01b0316848281518110612c5957fe5b6020026020010151600001516001600160a01b03161415612c8c5760405162461bcd60e51b8152600401610a2390614277565b838181518110612c9857fe5b6020026020010151602001516001600160601b031660001415612ccd5760405162461bcd60e51b8152600401610a239061417b565b82848281518110612cda57fe5b602090810291909101810151825460018101845560009384529282902081519301805491909201516001600160601b0316600160a01b026001600160a01b039384166001600160a01b0319909216919091179092169190911790558351612d6b90859083908110612d4757fe5b6020026020010151602001516001600160601b0316836115fd90919063ffffffff16565b9150600101612c39565b508061271014612d975760405162461bcd60e51b8152600401610a23906142ae565b7f841ffb90d4cabdd1f16034f3fa831d79060febbb8167bdd54a49269365bdf78f8484604051612dc8929190614305565b60405180910390a150505050565b600082815260fb602090815260409091208251612df592840190613744565b50817f6bb7ff708619ba0610cba295a58592e0451dee2622938c8755667688daf3529b612e2184611326565b6040805160208082528351818301528351919283929083019185019080838360005b83811015612e5b578181015183820152602001612e43565b50505050905090810190601f168015612e885780820380516001836020036101000a031916815260200191505b509250505060405180910390a25050565b612ea5848484846132da565b50505050565b6001600160e01b03198082161415612f0a576040805162461bcd60e51b815260206004820152601c60248201527f4552433136353a20696e76616c696420696e7465726661636520696400000000604482015290519081900360640190fd5b6001600160e01b0319166000908152606560205260409020805460ff19166001179055565b600054610100900460ff1680612f485750612f48611f02565b80612f56575060005460ff16155b612f915760405162461bcd60e51b815260040180806020018281038252602e8152602001806145a7602e913960400191505060405180910390fd5b600054610100900460ff16158015612fbc576000805460ff1961ff0019909116610100171660011790555b825160208085019190912083519184019190912061012f91909155610130558015610933576000805461ff0019169055505050565b8051612393906099906020840190613744565b8051602091820151604080517f397e04204c1e1a60ee8724b71f8244e10ab5f2e9009854d80f602bda21b59ebb818601526001600160a01b03909316838201526001600160601b039091166060808401919091528151808403909101815260809092019052805191012090565b600061307c83613345565b9050613090846001600160a01b03166127d3565b156132095760408051630b135d3f60e11b808252600482018481526024830193845285516044840152855191936001600160a01b03891693631626ba7e938793899390929091606490910190602085019080838360005b838110156130ff5781810151838201526020016130e7565b50505050905090810190601f16801561312c5780820380516001836020036101000a031916815260200191505b50935050505060206040518083038186803b15801561314a57600080fd5b505afa15801561315e573d6000803e3d6000fd5b505050506040513d602081101561317457600080fd5b505160408051808201909152601c81527f7369676e617475726520766572696669636174696f6e206572726f72000000006020820152916001600160e01b0319909116146132035760405162461bcd60e51b81526020600482018181528351602484015283519092839260449091019190850190808383600083156115ba5781810151838201526020016115a2565b50612ea5565b6001600160a01b03841661321d8284613391565b6001600160a01b0316146040518060400160405280601c81526020017f7369676e617475726520766572696669636174696f6e206572726f720000000081525090611d455760405162461bcd60e51b81526020600482018181528351602484015283519092839260449091019190850190808383600083156115ba5781810151838201526020016115a2565b7f3fa96d7b6bcbfe71ef171666d84db3cf52fa2d1c8afdb1cc8e486177f208b7df8282604051612a95929190614305565b60008381526101ca60205260408120546132f59084906115fd565b60008581526101c960205260409020549091508111156133275760405162461bcd60e51b8152600401610a239061424d565b60008481526101ca60205260409020819055611d4585858585613411565b600061334f613512565b82604051602001808061190160f01b81525060020183815260200182815260200192505050604051602081830303815290604052805190602001209050919050565b600081516041146133e9576040805162461bcd60e51b815260206004820152601f60248201527f45434453413a20696e76616c6964207369676e6174757265206c656e67746800604482015290519081900360640190fd5b60208201516040830151606084015160001a61340786828585613552565b9695505050505050565b6001600160a01b0384166134565760405162461bcd60e51b81526004018080602001828103825260218152602001806146be6021913960400191505060405180910390fd5b6000613460611562565b905061347281600087610f1488611d4c565b60008481526097602090815260408083206001600160a01b038916845290915290205461349f90846115fd565b60008581526097602090815260408083206001600160a01b03808b16808652918452828520959095558151898152928301889052815190948616927fc3d58168c5ae7397731d063d5bbf3d657854427343f4c083240f7aacaa2d0f6292908290030190a4611d4581600087878787611d91565b600061354d7f8b73c3c69bb8fe3d512ecc4cf759cc79239f7b179b0ffacaa9a75d522b39400f6135406136d0565b6135486136d7565b6136de565b905090565b60007f7fffffffffffffffffffffffffffffff5d576e7357a4501ddfe92f46681b20a08211156135b35760405162461bcd60e51b815260040180806020018281038252602281526020018061452e6022913960400191505060405180910390fd5b8360ff16601b14806135c857508360ff16601c145b6136035760405162461bcd60e51b81526004018080602001828103825260228152602001806145d56022913960400191505060405180910390fd5b600060018686868660405160008152602001604052604051808581526020018460ff1681526020018381526020018281526020019450505050506020604051602081039080840390855afa15801561365f573d6000803e3d6000fd5b5050604051601f1901519150506001600160a01b0381166136c7576040805162461bcd60e51b815260206004820152601860248201527f45434453413a20696e76616c6964207369676e61747572650000000000000000604482015290519081900360640190fd5b95945050505050565b61012f5490565b6101305490565b60008383836136eb613740565b3060405160200180868152602001858152602001848152602001838152602001826001600160a01b03168152602001955050505050506040516020818303038152906040528051906020012090509392505050565b4690565b828054600181600116156101000203166002900490600052602060002090601f01602090048101928261377a57600085556137c0565b82601f1061379357805160ff19168380011785556137c0565b828001600101855582156137c0579182015b828111156137c05782518255916020019190600101906137a5565b506137cc9291506137d0565b5090565b5b808211156137cc57600081556001016137d1565b600082601f8301126137f5578081fd5b8135602061380a61380583614357565b614334565b8281528181019085830183850287018401881015613826578586fd5b855b8581101561384d57813561383b8161441e565b84529284019290840190600101613828565b5090979650505050505050565b600082601f83011261386a578081fd5b8135602061387a61380583614357565b82815281810190858301855b8581101561384d5761389d898684358b01016139c4565b84529284019290840190600101613886565b600082601f8301126138bf578081fd5b813560206138cf61380583614357565b828152818101908583016040808602880185018910156138ed578687fd5b865b8681101561395c5781838b031215613905578788fd5b81518281018181106001600160401b038211171561391f57fe5b8352833561392c8161441e565b8152838701356001600160601b038116811461394657898afd5b81880152855293850193918101916001016138ef565b509198975050505050505050565b600082601f83011261397a578081fd5b8135602061398a61380583614357565b82815281810190858301838502870184018810156139a6578586fd5b855b8581101561384d578135845292840192908401906001016139a8565b600082601f8301126139d4578081fd5b81356001600160401b038111156139e757fe5b6139fa601f8201601f1916602001614334565b818152846020838601011115613a0e578283fd5b816020850160208301379081016020019190915292915050565b600060c08284031215613a39578081fd5b613a4360c0614334565b90508135815260208201356001600160401b0380821115613a6357600080fd5b613a6f858386016139c4565b6020840152604084013560408401526060840135915080821115613a9257600080fd5b613a9e858386016138af565b60608401526080840135915080821115613ab757600080fd5b613ac3858386016138af565b608084015260a0840135915080821115613adc57600080fd5b50613ae98482850161385a565b60a08301525092915050565b600060208284031215613b06578081fd5b81356116578161441e565b60008060408385031215613b23578081fd5b8235613b2e8161441e565b91506020830135613b3e8161441e565b809150509250929050565b600080600080600060a08688031215613b60578081fd5b8535613b6b8161441e565b94506020860135613b7b8161441e565b935060408601356001600160401b0380821115613b96578283fd5b613ba289838a0161396a565b94506060880135915080821115613bb7578283fd5b613bc389838a0161396a565b93506080880135915080821115613bd8578283fd5b50613be5888289016139c4565b9150509295509295909350565b600080600080600060a08688031215613c09578283fd5b8535613c148161441e565b94506020860135613c248161441e565b9350604086013592506060860135915060808601356001600160401b03811115613c4c578182fd5b613be5888289016139c4565b600080600060608486031215613c6c578081fd5b8335613c778161441e565b925060208401356001600160401b0380821115613c92578283fd5b613c9e8783880161396a565b93506040860135915080821115613cb3578283fd5b50613cc08682870161396a565b9150509250925092565b60008060408385031215613cdc578182fd5b8235613ce78161441e565b915060208301358015158114613b3e578182fd5b60008060408385031215613d0d578182fd5b8235613d188161441e565b946020939093013593505050565b600080600060608486031215613d3a578081fd5b8335613d458161441e565b95602085013595506040909401359392505050565b60008060408385031215613d6c578182fd5b82356001600160401b0380821115613d82578384fd5b613d8e868387016137e5565b93506020850135915080821115613da3578283fd5b50613db08582860161396a565b9150509250929050565b600060208284031215613dcb578081fd5b81356001600160e01b031981168114611657578182fd5b600080600080600060a08688031215613df9578283fd5b85356001600160401b0380821115613e0f578485fd5b613e1b89838a016139c4565b96506020880135915080821115613e30578485fd5b613e3c89838a016139c4565b95506040880135915080821115613e51578485fd5b613e5d89838a016139c4565b94506060880135915080821115613e72578283fd5b613e7e89838a016139c4565b93506080880135915080821115613e93578283fd5b50613be5888289016137e5565b60008060008060808587031215613eb5578182fd5b84356001600160401b03811115613eca578283fd5b613ed687828801613a28565b9450506020850135613ee78161441e565b92506040850135613ef78161441e565b9396929550929360600135925050565b600080600060608486031215613f1b578081fd5b83356001600160401b03811115613f30578182fd5b613f3c86828701613a28565b9350506020840135613f4d8161441e565b929592945050506040919091013590565b600060208284031215613f6f578081fd5b5035919050565b60008060408385031215613f88578182fd5b50508035926020909101359150565b6000815180845260208085019450808401835b83811015613fe357815180516001600160a01b031688528301516001600160601b03168388015260409096019590820190600101613faa565b509495945050505050565b60008151808452815b8181101561401357602081850181015186830182015201613ff7565b818111156140245782602083870101525b50601f01601f19169290920160200192915050565b6001600160a01b0391909116815260200190565b6001600160a01b038416815260606020820181905260009061407190830185613fee565b82810360408401526134078185613fee565b6001600160a01b039290921682526001600160601b0316602082015260400190565b6000602082526116576020830184613f97565b6020808252825182820181905260009190848201906040850190845b818110156140f0578351835292840192918401916001016140d4565b50909695505050505050565b901515815260200190565b6000602082526116576020830184613fee565b60208082526017908201527f6d696e746572206973206e6f7420746865206f776e6572000000000000000000604082015260600190565b60208082526010908201526f1cdd5c1c1b1e481a5b98dbdc9c9958dd60821b604082015260600190565b6020808252818101527f43726561746f722073686172652073686f756c6420626520706f736974697665604082015260600190565b6020808252601190820152701d1bdad95b9259081a5b98dbdc9c9958dd607a1b604082015260600190565b60208082526010908201526f185b5bdd5b9d081a5b98dbdc9c9958dd60821b604082015260600190565b60208082526028908201527f455243313135353a207472616e736665722063616c6c6572206973206e6f7420604082015267185c1c1c9bdd995960c21b606082015260800190565b60208082526010908201526f6d6f7265207468616e20737570706c7960801b604082015260600190565b60208082526019908201527f4163636f756e742073686f756c642062652070726573656e7400000000000000604082015260600190565b6020808252602e908201527f746f74616c20616d6f756e74206f662063726561746f7273207368617265207360408201526d0686f756c642062652031303030360941b606082015260800190565b90815260200190565b60008382526040602083015261431e6040830184613f97565b949350505050565b918252602082015260400190565b6040518181016001600160401b038111828210171561434f57fe5b604052919050565b60006001600160401b0382111561436a57fe5b5060209081020190565b60e01c90565b600060443d101561438a576109cc565b600481823e6308c379a061439e8251614374565b146143a8576109cc565b6040513d600319016004823e80513d6001600160401b0381602484011181841117156143d757505050506109cc565b828401925082519150808211156143f157505050506109cc565b503d83016020828401011115614409575050506109cc565b601f01601f1916810160200160405291505090565b6001600160a01b038116811461200a57600080fdfe455243313135353a207472616e7366657220746f206e6f6e2045524331313535526563656976657220696d706c656d656e746572455243313135353a204552433131353552656365697665722072656a656374656420746f6b656e73455243313135353a2062616c616e636520717565727920666f7220746865207a65726f20616464726573734f776e61626c653a206e6577206f776e657220697320746865207a65726f2061646472657373455243313135353a206275726e20616d6f756e7420657863656564732062616c616e6365455243313135353a2063616c6c6572206973206e6f74206f776e6572206e6f7220617070726f76656445434453413a20696e76616c6964207369676e6174757265202773272076616c7565455243313135353a207472616e7366657220746f20746865207a65726f2061646472657373455243313135353a207472616e736665722063616c6c6572206973206e6f74206f776e6572206e6f7220617070726f766564496e697469616c697a61626c653a20636f6e747261637420697320616c726561647920696e697469616c697a656445434453413a20696e76616c6964207369676e6174757265202776272076616c7565455243313135353a206275726e2066726f6d20746865207a65726f2061646472657373455243313135353a20696e73756666696369656e742062616c616e636520666f72207472616e73666572455243313135353a2073657474696e6720617070726f76616c2073746174757320666f722073656c66455243313135353a206163636f756e747320616e6420696473206c656e677468206d69736d61746368455243313135353a2069647320616e6420616d6f756e7473206c656e677468206d69736d61746368455243313135353a206d696e7420746f20746865207a65726f2061646472657373a26469706673582212208400e0f73a7d1afcb776e3d585ca34c521ee1e00d8e093783ba9c4ef33d980d164736f6c63430007060033",
  "immutableReferences": {},
  "source": "// SPDX-License-Identifier: MIT\n\npragma solidity >=0.6.2 <0.8.0;\npragma abicoder v2;\n\nimport \"@openzeppelin/contracts-upgradeable/access/OwnableUpgradeable.sol\";\nimport \"@openzeppelin/contracts-upgradeable/token/ERC1155/ERC1155BurnableUpgradeable.sol\";\nimport \"./ERC1155Lazy.sol\";\nimport \"../HasContractURI.sol\";\n\ncontract ERC1155WallUser is OwnableUpgradeable, ERC1155BurnableUpgradeable, ERC1155Lazy, HasContractURI {\n\n    event CreateERC1155WallUser(address owner, string name, string symbol);\n\n    string public name;\n    string public symbol;\n\n    function __ERC1155WallUser_init(string memory _name, string memory _symbol, string memory baseURI, string memory contractURI, address[] memory operators) external initializer {\n        __Ownable_init_unchained();\n        __ERC1155Lazy_init_unchained();\n        __ERC165_init_unchained();\n        __Context_init_unchained();\n        __Mint1155Validator_init_unchained();\n        __ERC1155_init_unchained(\"\");\n        __HasContractURI_init_unchained(contractURI);\n        __ERC1155Burnable_init_unchained();\n        __RoyaltiesVersion2Upgrade_init_unchained();\n        __ERC1155WallUser_init_unchained(_name, _symbol);\n        _setBaseURI(baseURI);\n        for(uint i = 0; i < operators.length; i++) {\n            setApprovalForAll(operators[i], true);\n        }\n        emit CreateERC1155WallUser(_msgSender(), _name, _symbol);\n    }\n\n    function __ERC1155WallUser_init_unchained(string memory _name, string memory _symbol) internal initializer {\n        name = _name;\n        symbol = _symbol;\n    }\n\n    function _mint(address account, uint256 tokenId, uint256 amount, bytes memory data) internal virtual override(ERC1155Upgradeable, ERC1155Lazy) {\n        ERC1155Lazy._mint(account, tokenId, amount, data);\n    }\n\n    function uri(uint tokenId) external view override(ERC1155BaseURI, ERC1155Upgradeable) virtual returns (string memory) {\n        return _tokenURI(tokenId);\n    }\n\n    function mintAndTransferTo(LibERC1155LazyMint.Mint1155Data memory data, address to, uint256 _amount) public override {\n        require(owner() == data.creators[0].account, \"minter is not the owner\");\n        super.mintAndTransferTo(data, to, _amount);\n    }\n    uint256[50] private __gap;\n}\n",
  "sourcePath": "/home/aniketdixit/Documents/wallappsendthis/contracts/tokens/contracts/erc-1155/ERC1155WallUser.sol",
  "compiler": {
    "name": "solc",
    "version": "0.7.6+commit.7338295f.Emscripten.clang"
  },
  "schemaVersion": "3.4.1",
  "updatedAt": "2021-07-07T08:25:44.215Z",
  "devdoc": {
    "kind": "dev",
    "methods": {
      "balanceOf(address,uint256)": {
        "details": "See {IERC1155-balanceOf}. Requirements: - `account` cannot be the zero address."
      },
      "balanceOfBatch(address[],uint256[])": {
        "details": "See {IERC1155-balanceOfBatch}. Requirements: - `accounts` and `ids` must have the same length."
      },
      "baseURI()": {
        "details": "Returns the base URI set via {_setBaseURI}. This will be automatically added as a prefix in {tokenURI} to each token's URI, or to the token ID if no specific URI is set for that token ID."
      },
      "isApprovedForAll(address,address)": {
        "details": "See {IERC1155-isApprovedForAll}."
      },
      "owner()": {
        "details": "Returns the address of the current owner."
      },
      "renounceOwnership()": {
        "details": "Leaves the contract without owner. It will not be possible to call `onlyOwner` functions anymore. Can only be called by the current owner. NOTE: Renouncing ownership will leave the contract without an owner, thereby removing any functionality that is only available to the owner."
      },
      "safeBatchTransferFrom(address,address,uint256[],uint256[],bytes)": {
        "details": "See {IERC1155-safeBatchTransferFrom}."
      },
      "safeTransferFrom(address,address,uint256,uint256,bytes)": {
        "details": "See {IERC1155-safeTransferFrom}."
      },
      "setApprovalForAll(address,bool)": {
        "details": "See {IERC1155-setApprovalForAll}."
      },
      "supportsInterface(bytes4)": {
        "details": "See {IERC165-supportsInterface}. Time complexity O(1), guaranteed to always use less than 30 000 gas."
      },
      "transferOwnership(address)": {
        "details": "Transfers ownership of the contract to a new account (`newOwner`). Can only be called by the current owner."
      }
    },
    "version": 1
  },
  "userdoc": {
    "kind": "user",
    "methods": {},
    "version": 1
  }
}