{
  "contractName": "ERC1155Wall",
  "abi": [
    {
      "anonymous": false,
      "inputs": [
        {
          "indexed": true,
          "internalType": "address",
          "name": "account",
          "type": "address"
        },
        {
          "indexed": true,
          "internalType": "address",
          "name": "operator",
          "type": "address"
        },
        {
          "indexed": false,
          "internalType": "bool",
          "name": "approved",
          "type": "bool"
        }
      ],
      "name": "ApprovalForAll",
      "type": "event"
    },
    {
      "anonymous": false,
      "inputs": [
        {
          "indexed": false,
          "internalType": "address",
          "name": "owner",
          "type": "address"
        },
        {
          "indexed": false,
          "internalType": "string",
          "name": "name",
          "type": "string"
        },
        {
          "indexed": false,
          "internalType": "string",
          "name": "symbol",
          "type": "string"
        }
      ],
      "name": "CreateERC1155",
      "type": "event"
    },
    {
      "anonymous": false,
      "inputs": [
        {
          "indexed": false,
          "internalType": "uint256",
          "name": "tokenId",
          "type": "uint256"
        },
        {
          "components": [
            {
              "internalType": "address payable",
              "name": "account",
              "type": "address"
            },
            {
              "internalType": "uint96",
              "name": "value",
              "type": "uint96"
            }
          ],
          "indexed": false,
          "internalType": "struct LibPart.Part[]",
          "name": "creators",
          "type": "tuple[]"
        }
      ],
      "name": "Creators",
      "type": "event"
    },
    {
      "anonymous": false,
      "inputs": [
        {
          "indexed": true,
          "internalType": "address",
          "name": "operator",
          "type": "address"
        },
        {
          "indexed": false,
          "internalType": "bool",
          "name": "hasApproval",
          "type": "bool"
        }
      ],
      "name": "DefaultApproval",
      "type": "event"
    },
    {
      "anonymous": false,
      "inputs": [
        {
          "indexed": true,
          "internalType": "address",
          "name": "previousOwner",
          "type": "address"
        },
        {
          "indexed": true,
          "internalType": "address",
          "name": "newOwner",
          "type": "address"
        }
      ],
      "name": "OwnershipTransferred",
      "type": "event"
    },
    {
      "anonymous": false,
      "inputs": [
        {
          "indexed": false,
          "internalType": "uint256",
          "name": "tokenId",
          "type": "uint256"
        },
        {
          "components": [
            {
              "internalType": "address payable",
              "name": "account",
              "type": "address"
            },
            {
              "internalType": "uint96",
              "name": "value",
              "type": "uint96"
            }
          ],
          "indexed": false,
          "internalType": "struct LibPart.Part[]",
          "name": "royalties",
          "type": "tuple[]"
        }
      ],
      "name": "RoyaltiesSet",
      "type": "event"
    },
    {
      "anonymous": false,
      "inputs": [
        {
          "indexed": false,
          "internalType": "uint256",
          "name": "tokenId",
          "type": "uint256"
        },
        {
          "indexed": false,
          "internalType": "uint256",
          "name": "value",
          "type": "uint256"
        }
      ],
      "name": "Supply",
      "type": "event"
    },
    {
      "anonymous": false,
      "inputs": [
        {
          "indexed": true,
          "internalType": "address",
          "name": "operator",
          "type": "address"
        },
        {
          "indexed": true,
          "internalType": "address",
          "name": "from",
          "type": "address"
        },
        {
          "indexed": true,
          "internalType": "address",
          "name": "to",
          "type": "address"
        },
        {
          "indexed": false,
          "internalType": "uint256[]",
          "name": "ids",
          "type": "uint256[]"
        },
        {
          "indexed": false,
          "internalType": "uint256[]",
          "name": "values",
          "type": "uint256[]"
        }
      ],
      "name": "TransferBatch",
      "type": "event"
    },
    {
      "anonymous": false,
      "inputs": [
        {
          "indexed": true,
          "internalType": "address",
          "name": "operator",
          "type": "address"
        },
        {
          "indexed": true,
          "internalType": "address",
          "name": "from",
          "type": "address"
        },
        {
          "indexed": true,
          "internalType": "address",
          "name": "to",
          "type": "address"
        },
        {
          "indexed": false,
          "internalType": "uint256",
          "name": "id",
          "type": "uint256"
        },
        {
          "indexed": false,
          "internalType": "uint256",
          "name": "value",
          "type": "uint256"
        }
      ],
      "name": "TransferSingle",
      "type": "event"
    },
    {
      "anonymous": false,
      "inputs": [
        {
          "indexed": false,
          "internalType": "string",
          "name": "value",
          "type": "string"
        },
        {
          "indexed": true,
          "internalType": "uint256",
          "name": "id",
          "type": "uint256"
        }
      ],
      "name": "URI",
      "type": "event"
    },
    {
      "inputs": [
        {
          "internalType": "address",
          "name": "account",
          "type": "address"
        },
        {
          "internalType": "uint256",
          "name": "id",
          "type": "uint256"
        }
      ],
      "name": "balanceOf",
      "outputs": [
        {
          "internalType": "uint256",
          "name": "",
          "type": "uint256"
        }
      ],
      "stateMutability": "view",
      "type": "function"
    },
    {
      "inputs": [
        {
          "internalType": "address[]",
          "name": "accounts",
          "type": "address[]"
        },
        {
          "internalType": "uint256[]",
          "name": "ids",
          "type": "uint256[]"
        }
      ],
      "name": "balanceOfBatch",
      "outputs": [
        {
          "internalType": "uint256[]",
          "name": "",
          "type": "uint256[]"
        }
      ],
      "stateMutability": "view",
      "type": "function"
    },
    {
      "inputs": [],
      "name": "baseURI",
      "outputs": [
        {
          "internalType": "string",
          "name": "",
          "type": "string"
        }
      ],
      "stateMutability": "view",
      "type": "function"
    },
    {
      "inputs": [
        {
          "internalType": "address",
          "name": "account",
          "type": "address"
        },
        {
          "internalType": "uint256",
          "name": "id",
          "type": "uint256"
        },
        {
          "internalType": "uint256",
          "name": "value",
          "type": "uint256"
        }
      ],
      "name": "burn",
      "outputs": [],
      "stateMutability": "nonpayable",
      "type": "function"
    },
    {
      "inputs": [
        {
          "internalType": "address",
          "name": "account",
          "type": "address"
        },
        {
          "internalType": "uint256[]",
          "name": "ids",
          "type": "uint256[]"
        },
        {
          "internalType": "uint256[]",
          "name": "values",
          "type": "uint256[]"
        }
      ],
      "name": "burnBatch",
      "outputs": [],
      "stateMutability": "nonpayable",
      "type": "function"
    },
    {
      "inputs": [],
      "name": "contractURI",
      "outputs": [
        {
          "internalType": "string",
          "name": "",
          "type": "string"
        }
      ],
      "stateMutability": "view",
      "type": "function"
    },
    {
      "inputs": [
        {
          "internalType": "uint256",
          "name": "",
          "type": "uint256"
        },
        {
          "internalType": "uint256",
          "name": "",
          "type": "uint256"
        }
      ],
      "name": "creators",
      "outputs": [
        {
          "internalType": "address payable",
          "name": "account",
          "type": "address"
        },
        {
          "internalType": "uint96",
          "name": "value",
          "type": "uint96"
        }
      ],
      "stateMutability": "view",
      "type": "function"
    },
    {
      "inputs": [
        {
          "internalType": "uint256",
          "name": "_id",
          "type": "uint256"
        }
      ],
      "name": "getCreators",
      "outputs": [
        {
          "components": [
            {
              "internalType": "address payable",
              "name": "account",
              "type": "address"
            },
            {
              "internalType": "uint96",
              "name": "value",
              "type": "uint96"
            }
          ],
          "internalType": "struct LibPart.Part[]",
          "name": "",
          "type": "tuple[]"
        }
      ],
      "stateMutability": "view",
      "type": "function"
    },
    {
      "inputs": [
        {
          "internalType": "uint256",
          "name": "id",
          "type": "uint256"
        }
      ],
      "name": "getRoyalties",
      "outputs": [
        {
          "components": [
            {
              "internalType": "address payable",
              "name": "account",
              "type": "address"
            },
            {
              "internalType": "uint96",
              "name": "value",
              "type": "uint96"
            }
          ],
          "internalType": "struct LibPart.Part[]",
          "name": "",
          "type": "tuple[]"
        }
      ],
      "stateMutability": "view",
      "type": "function"
    },
    {
      "inputs": [
        {
          "internalType": "address",
          "name": "_owner",
          "type": "address"
        },
        {
          "internalType": "address",
          "name": "_operator",
          "type": "address"
        }
      ],
      "name": "isApprovedForAll",
      "outputs": [
        {
          "internalType": "bool",
          "name": "",
          "type": "bool"
        }
      ],
      "stateMutability": "view",
      "type": "function"
    },
    {
      "inputs": [
        {
          "components": [
            {
              "internalType": "uint256",
              "name": "tokenId",
              "type": "uint256"
            },
            {
              "internalType": "string",
              "name": "uri",
              "type": "string"
            },
            {
              "internalType": "uint256",
              "name": "supply",
              "type": "uint256"
            },
            {
              "components": [
                {
                  "internalType": "address payable",
                  "name": "account",
                  "type": "address"
                },
                {
                  "internalType": "uint96",
                  "name": "value",
                  "type": "uint96"
                }
              ],
              "internalType": "struct LibPart.Part[]",
              "name": "creators",
              "type": "tuple[]"
            },
            {
              "components": [
                {
                  "internalType": "address payable",
                  "name": "account",
                  "type": "address"
                },
                {
                  "internalType": "uint96",
                  "name": "value",
                  "type": "uint96"
                }
              ],
              "internalType": "struct LibPart.Part[]",
              "name": "royalties",
              "type": "tuple[]"
            },
            {
              "internalType": "bytes[]",
              "name": "signatures",
              "type": "bytes[]"
            }
          ],
          "internalType": "struct LibERC1155LazyMint.Mint1155Data",
          "name": "data",
          "type": "tuple"
        },
        {
          "internalType": "address",
          "name": "to",
          "type": "address"
        },
        {
          "internalType": "uint256",
          "name": "_amount",
          "type": "uint256"
        }
      ],
      "name": "mintAndTransferTo",
      "outputs": [],
      "stateMutability": "nonpayable",
      "type": "function"
    },
    {
      "inputs": [],
      "name": "name",
      "outputs": [
        {
          "internalType": "string",
          "name": "",
          "type": "string"
        }
      ],
      "stateMutability": "view",
      "type": "function"
    },
    {
      "inputs": [],
      "name": "owner",
      "outputs": [
        {
          "internalType": "address",
          "name": "",
          "type": "address"
        }
      ],
      "stateMutability": "view",
      "type": "function"
    },
    {
      "inputs": [],
      "name": "renounceOwnership",
      "outputs": [],
      "stateMutability": "nonpayable",
      "type": "function"
    },
    {
      "inputs": [
        {
          "internalType": "uint256",
          "name": "",
          "type": "uint256"
        },
        {
          "internalType": "uint256",
          "name": "",
          "type": "uint256"
        }
      ],
      "name": "royalties",
      "outputs": [
        {
          "internalType": "address payable",
          "name": "account",
          "type": "address"
        },
        {
          "internalType": "uint96",
          "name": "value",
          "type": "uint96"
        }
      ],
      "stateMutability": "view",
      "type": "function"
    },
    {
      "inputs": [
        {
          "internalType": "address",
          "name": "from",
          "type": "address"
        },
        {
          "internalType": "address",
          "name": "to",
          "type": "address"
        },
        {
          "internalType": "uint256[]",
          "name": "ids",
          "type": "uint256[]"
        },
        {
          "internalType": "uint256[]",
          "name": "amounts",
          "type": "uint256[]"
        },
        {
          "internalType": "bytes",
          "name": "data",
          "type": "bytes"
        }
      ],
      "name": "safeBatchTransferFrom",
      "outputs": [],
      "stateMutability": "nonpayable",
      "type": "function"
    },
    {
      "inputs": [
        {
          "internalType": "address",
          "name": "from",
          "type": "address"
        },
        {
          "internalType": "address",
          "name": "to",
          "type": "address"
        },
        {
          "internalType": "uint256",
          "name": "id",
          "type": "uint256"
        },
        {
          "internalType": "uint256",
          "name": "amount",
          "type": "uint256"
        },
        {
          "internalType": "bytes",
          "name": "data",
          "type": "bytes"
        }
      ],
      "name": "safeTransferFrom",
      "outputs": [],
      "stateMutability": "nonpayable",
      "type": "function"
    },
    {
      "inputs": [
        {
          "internalType": "address",
          "name": "operator",
          "type": "address"
        },
        {
          "internalType": "bool",
          "name": "approved",
          "type": "bool"
        }
      ],
      "name": "setApprovalForAll",
      "outputs": [],
      "stateMutability": "nonpayable",
      "type": "function"
    },
    {
      "inputs": [
        {
          "internalType": "address",
          "name": "operator",
          "type": "address"
        },
        {
          "internalType": "bool",
          "name": "hasApproval",
          "type": "bool"
        }
      ],
      "name": "setDefaultApproval",
      "outputs": [],
      "stateMutability": "nonpayable",
      "type": "function"
    },
    {
      "inputs": [
        {
          "internalType": "bytes4",
          "name": "interfaceId",
          "type": "bytes4"
        }
      ],
      "name": "supportsInterface",
      "outputs": [
        {
          "internalType": "bool",
          "name": "",
          "type": "bool"
        }
      ],
      "stateMutability": "view",
      "type": "function"
    },
    {
      "inputs": [],
      "name": "symbol",
      "outputs": [
        {
          "internalType": "string",
          "name": "",
          "type": "string"
        }
      ],
      "stateMutability": "view",
      "type": "function"
    },
    {
      "inputs": [
        {
          "components": [
            {
              "internalType": "uint256",
              "name": "tokenId",
              "type": "uint256"
            },
            {
              "internalType": "string",
              "name": "uri",
              "type": "string"
            },
            {
              "internalType": "uint256",
              "name": "supply",
              "type": "uint256"
            },
            {
              "components": [
                {
                  "internalType": "address payable",
                  "name": "account",
                  "type": "address"
                },
                {
                  "internalType": "uint96",
                  "name": "value",
                  "type": "uint96"
                }
              ],
              "internalType": "struct LibPart.Part[]",
              "name": "creators",
              "type": "tuple[]"
            },
            {
              "components": [
                {
                  "internalType": "address payable",
                  "name": "account",
                  "type": "address"
                },
                {
                  "internalType": "uint96",
                  "name": "value",
                  "type": "uint96"
                }
              ],
              "internalType": "struct LibPart.Part[]",
              "name": "royalties",
              "type": "tuple[]"
            },
            {
              "internalType": "bytes[]",
              "name": "signatures",
              "type": "bytes[]"
            }
          ],
          "internalType": "struct LibERC1155LazyMint.Mint1155Data",
          "name": "data",
          "type": "tuple"
        },
        {
          "internalType": "address",
          "name": "from",
          "type": "address"
        },
        {
          "internalType": "address",
          "name": "to",
          "type": "address"
        },
        {
          "internalType": "uint256",
          "name": "amount",
          "type": "uint256"
        }
      ],
      "name": "transferFromOrMintTo",
      "outputs": [],
      "stateMutability": "nonpayable",
      "type": "function"
    },
    {
      "inputs": [
        {
          "internalType": "address",
          "name": "newOwner",
          "type": "address"
        }
      ],
      "name": "transferOwnership",
      "outputs": [],
      "stateMutability": "nonpayable",
      "type": "function"
    },
    {
      "inputs": [
        {
          "internalType": "uint256",
          "name": "id",
          "type": "uint256"
        }
      ],
      "name": "uri",
      "outputs": [
        {
          "internalType": "string",
          "name": "",
          "type": "string"
        }
      ],
      "stateMutability": "view",
      "type": "function"
    },
    {
      "inputs": [
        {
          "internalType": "string",
          "name": "_name",
          "type": "string"
        },
        {
          "internalType": "string",
          "name": "_symbol",
          "type": "string"
        },
        {
          "internalType": "string",
          "name": "baseURI",
          "type": "string"
        },
        {
          "internalType": "string",
          "name": "contractURI",
          "type": "string"
        }
      ],
      "name": "__ERC1155_init",
      "outputs": [],
      "stateMutability": "nonpayable",
      "type": "function"
    }
  ],
  "bytecode": "0x608060405234801561001057600080fd5b50614774806100206000396000f3fe608060405234801561001057600080fd5b50600436106101725760003560e01c8063715018a6116100de578063a22cb46511610097578063e985e9c511610071578063e985e9c51461032b578063f242432a1461033e578063f2fde38b14610351578063f5298aca1461036457610172565b8063a22cb465146102fd578063bb3bafd614610310578063e8a3d4851461032357610172565b8063715018a614610284578063891be9741461028c5780638924af74146102ac5780638da5cb5b146102cd57806395d89b41146102e257806398d0b4fb146102ea57610172565b80634e1273f4116101305780634e1273f4146102105780635ee1cec5146102305780636235b555146102435780636b20c454146102565780636c0360eb146102695780636eac80ca1461027157610172565b8062fdd58e1461017757806301ffc9a7146101a057806306fdde03146101c05780630e89341c146101d557806318054c37146101e85780632eb2c2d6146101fd575b600080fd5b61018a610185366004613d4a565b610377565b604051610197919061435c565b60405180910390f35b6101b36101ae366004613e68565b6103e6565b6040516101979190614193565b6101c8610409565b604051610197919061419e565b6101c86101e3366004613ff5565b610498565b6101fb6101f6366004613d19565b6104a9565b005b6101fb61020b366004613b98565b61052b565b61022361021e366004613da9565b610829565b604051610197919061414f565b6101fb61023e366004613e90565b610914565b6101fb610251366004613f37565b610a68565b6101fb610264366004613ca7565b610ac3565b6101c8610b3c565b6101fb61027f366004613f9e565b610bd4565b6101fb610dd7565b61029f61029a366004613ff5565b610e95565b604051610197919061413c565b6102bf6102ba36600461400d565b610f25565b60405161019792919061411a565b6102d5610f6f565b60405161019791906140d0565b6101c8610f7e565b6102bf6102f836600461400d565b610fda565b6101fb61030b366004613d19565b610ff7565b61029f61031e366004613ff5565b6110e6565b6101c8611161565b6101b3610339366004613b60565b6111bd565b6101fb61034c366004613c41565b6111d0565b6101fb61035f366004613b44565b61139b565b6101fb610372366004613d75565b6114b0565b60006001600160a01b0383166103be5760405162461bcd60e51b815260040180806020018281038252602b8152602001806144f0602b913960400191505060405180910390fd5b5060009081526097602090815260408083206001600160a01b03949094168352929052205490565b6001600160e01b0319811660009081526065602052604090205460ff165b919050565b610262805460408051602060026001851615610100026000190190941693909304601f810184900484028201840190925281815292918301828280156104905780601f1061046557610100808354040283529160200191610490565b820191906000526020600020905b81548152906001019060200180831161047357829003601f168201915b505050505081565b60606104a382611524565b92915050565b6104b1611761565b6001600160a01b03166104c2610f6f565b6001600160a01b03161461051d576040805162461bcd60e51b815260206004820181905260248201527f4f776e61626c653a2063616c6c6572206973206e6f7420746865206f776e6572604482015290519081900360640190fd5b6105278282611765565b5050565b815183511461056b5760405162461bcd60e51b81526004018080602001828103825260288152602001806146f66028913960400191505060405180910390fd5b6001600160a01b0384166105b05760405162461bcd60e51b81526004018080602001828103825260258152602001806145b06025913960400191505060405180910390fd5b6105b8611761565b6001600160a01b0316856001600160a01b031614806105de57506105de85610339611761565b6106195760405162461bcd60e51b81526004018080602001828103825260328152602001806145d56032913960400191505060405180910390fd5b6000610623611761565b9050610633818787878787610821565b60005b845181101561073957600085828151811061064d57fe5b60200260200101519050600085838151811061066557fe5b602002602001015190506106d2816040518060600160405280602a815260200161467a602a91396097600086815260200190815260200160002060008d6001600160a01b03166001600160a01b03168152602001908152602001600020546117c59092919063ffffffff16565b60008381526097602090815260408083206001600160a01b038e811685529252808320939093558a1681522054610709908261185c565b60009283526097602090815260408085206001600160a01b038c1686529091529092209190915550600101610636565b50846001600160a01b0316866001600160a01b0316826001600160a01b03167f4a39dc06d4c0dbc64b70af90fd698a233a518aa5d07e595d983b8c0526c8f7fb8787604051808060200180602001838103835285818151815260200191508051906020019060200280838360005b838110156107bf5781810151838201526020016107a7565b50505050905001838103825284818151815260200191508051906020019060200280838360005b838110156107fe5781810151838201526020016107e6565b5050505090500194505050505060405180910390a46108218187878787876118b6565b505050505050565b6060815183511461086b5760405162461bcd60e51b81526004018080602001828103825260298152602001806146cd6029913960400191505060405180910390fd5b600083516001600160401b038111801561088457600080fd5b506040519080825280602002602001820160405280156108ae578160200160208202803683370190505b50905060005b845181101561090c576108ed8582815181106108cc57fe5b60200260200101518583815181106108e057fe5b6020026020010151610377565b8282815181106108f957fe5b60209081029190910101526001016108b4565b509392505050565b600054610100900460ff168061092d575061092d611b35565b8061093b575060005460ff16155b6109765760405162461bcd60e51b815260040180806020018281038252602e815260200180614607602e913960400191505060405180910390fd5b600054610100900460ff161580156109a1576000805460ff1961ff0019909116610100171660011790555b6109a9611b46565b6109b1611c40565b6109b9611cf1565b6109c1611d8e565b6109c9611e2e565b6109e160405180602001604052806000815250611efe565b6109ea82611fc9565b6109f2611d8e565b6109fa61207b565b610a048585612118565b610a0d836121e5565b7f6389ec096801c30110c29cc87838b54c98db1e606d087183d3332416a085bbb7610a36611761565b8686604051610a47939291906140e4565b60405180910390a18015610a61576000805461ff00191690555b5050505050565b6000610a78848660000151610377565b9050818115610ab2578280831015610a8d5750815b610aad8686896000015184604051806020016040528060008152506111d0565b830390505b801561082157610821868583610bd4565b610acb611761565b6001600160a01b0316836001600160a01b03161480610af15750610af183610339611761565b610b2c5760405162461bcd60e51b81526004018080602001828103825260298152602001806145656029913960400191505060405180910390fd5b610b378383836121f9565b505050565b61012f8054604080516020601f6002600019610100600188161502019095169490940493840181900481028201810190925282815260609390929091830182828015610bc95780601f10610b9e57610100808354040283529160200191610bc9565b820191906000526020600020905b815481529060010190602001808311610bac57829003601f168201915b505050505090505b90565b825160601c6000610be3611761565b9050806001600160a01b0316826001600160a01b03161480610c0a5750610c0a82826111bd565b610c2f5760405162461bcd60e51b8152600401610c2690614265565b60405180910390fd5b60008311610c4f5760405162461bcd60e51b8152600401610c269061423b565b845160009081526101fc6020526040902054610db8578460600151600081518110610c7657fe5b6020026020010151600001516001600160a01b0316826001600160a01b031614610cb25760405162461bcd60e51b8152600401610c2690614210565b6000856040015111610cd65760405162461bcd60e51b8152600401610c26906141b1565b8460a001515185606001515114610cec57600080fd5b6000610cf786612467565b905060005b866060015151811015610d6d57600087606001518281518110610d1b57fe5b6020026020010151600001519050836001600160a01b0316816001600160a01b031614610d6457610d6481848a60a001518581518110610d5757fe5b60200260200101516126ba565b50600101610cfc565b50610d80866000015187604001516126c5565b610d928660000151876080015161272f565b610da4866000015187606001516128b5565b610db686600001518760200151612a64565b505b610a618486600001518560405180602001604052806000815250612b28565b610ddf611761565b6001600160a01b0316610df0610f6f565b6001600160a01b031614610e4b576040805162461bcd60e51b815260206004820181905260248201527f4f776e61626c653a2063616c6c6572206973206e6f7420746865206f776e6572604482015290519081900360640190fd5b6033546040516000916001600160a01b0316907f8be0079c531659141344cd1fd0a4f28419497f9722a3daafe3b4186f6b6457e0908390a3603380546001600160a01b0319169055565b60606101fb6000838152602001908152602001600020805480602002602001604051908101604052809291908181526020016000905b82821015610f1a57600084815260209081902060408051808201909152908401546001600160a01b0381168252600160a01b90046001600160601b031681830152825260019092019101610ecb565b505050509050919050565b6101fa6020528160005260406000208181548110610f4257600080fd5b6000918252602090912001546001600160a01b0381169250600160a01b90046001600160601b0316905082565b6033546001600160a01b031690565b610263805460408051602060026001851615610100026000190190941693909304601f810184900484028201840190925281815292918301828280156104905780601f1061046557610100808354040283529160200191610490565b6101fb6020528160005260406000208181548110610f4257600080fd5b816001600160a01b0316611009611761565b6001600160a01b0316141561104f5760405162461bcd60e51b81526004018080602001828103825260298152602001806146a46029913960400191505060405180910390fd5b806098600061105c611761565b6001600160a01b03908116825260208083019390935260409182016000908120918716808252919093529120805460ff1916921515929092179091556110a0611761565b6001600160a01b03167f17307eab39ab6107e8899845ad3d59bd9653f200f220920489ca2b5937696c318360405180821515815260200191505060405180910390a35050565b60008181526101fa60209081526040808320805482518185028101850190935280835260609492939192909184018215610f1a57600084815260209081902060408051808201909152908401546001600160a01b0381168252600160a01b90046001600160601b031681830152825260019092019101610ecb565b610230805460408051602060026001851615610100026000190190941693909304601f810184900484028201840190925281815292918301828280156104905780601f1061046557610100808354040283529160200191610490565b60006111c98383612b3a565b9392505050565b6001600160a01b0384166112155760405162461bcd60e51b81526004018080602001828103825260258152602001806145b06025913960400191505060405180910390fd5b61121d611761565b6001600160a01b0316856001600160a01b03161480611243575061124385610339611761565b61127e5760405162461bcd60e51b81526004018080602001828103825260298152602001806145656029913960400191505060405180910390fd5b6000611288611761565b90506112a881878761129988612b66565b6112a288612b66565b87610821565b6112ef836040518060600160405280602a815260200161467a602a913960008781526097602090815260408083206001600160a01b038d16845290915290205491906117c5565b60008581526097602090815260408083206001600160a01b038b81168552925280832093909355871681522054611326908461185c565b60008581526097602090815260408083206001600160a01b03808b168086529184529382902094909455805188815291820187905280518a8416938616927fc3d58168c5ae7397731d063d5bbf3d657854427343f4c083240f7aacaa2d0f6292908290030190a4610821818787878787612bab565b6113a3611761565b6001600160a01b03166113b4610f6f565b6001600160a01b03161461140f576040805162461bcd60e51b815260206004820181905260248201527f4f776e61626c653a2063616c6c6572206973206e6f7420746865206f776e6572604482015290519081900360640190fd5b6001600160a01b0381166114545760405162461bcd60e51b815260040180806020018281038252602681526020018061451b6026913960400191505060405180910390fd5b6033546040516001600160a01b038084169216907f8be0079c531659141344cd1fd0a4f28419497f9722a3daafe3b4186f6b6457e090600090a3603380546001600160a01b0319166001600160a01b0392909216919091179055565b6114b8611761565b6001600160a01b0316836001600160a01b031614806114de57506114de83610339611761565b6115195760405162461bcd60e51b81526004018080602001828103825260298152602001806145656029913960400191505060405180910390fd5b610b37838383612d1c565b600081815261012e6020908152604080832080548251601f60026000196101006001861615020190931692909204918201859004850281018501909352808352606094938301828280156115b95780601f1061158e576101008083540402835291602001916115b9565b820191906000526020600020905b81548152906001019060200180831161159c57829003601f168201915b5050505050905060006115ca610b3c565b90508051600014156115de57509050610404565b81511561169f5780826040516020018083805190602001908083835b602083106116195780518252601f1990920191602091820191016115fa565b51815160209384036101000a600019018019909216911617905285519190930192850191508083835b602083106116615780518252601f199092019160209182019101611642565b6001836020036101000a0380198251168184511680821785525050505050509050019250505060405160208183030381529060405292505050610404565b806116a985612e4f565b6040516020018083805190602001908083835b602083106116db5780518252601f1990920191602091820191016116bc565b51815160209384036101000a600019018019909216911617905285519190930192850191508083835b602083106117235780518252601f199092019160209182019101611704565b6001836020036101000a0380198251168184511680821785525050505050509050019250505060405160208183030381529060405292505050919050565b3390565b6001600160a01b038216600081815260c96020908152604091829020805460ff1916851515908117909155825190815291517f270dbb8ba4292910ae92862466486be25c355c837270a3d8824b36a8bc7c653b9281900390910190a25050565b600081848411156118545760405162461bcd60e51b81526004018080602001828103825283818151815260200191508051906020019080838360005b83811015611819578181015183820152602001611801565b50505050905090810190601f1680156118465780820380516001836020036101000a031916815260200191505b509250505060405180910390fd5b505050900390565b6000828201838110156111c9576040805162461bcd60e51b815260206004820152601b60248201527f536166654d6174683a206164646974696f6e206f766572666c6f770000000000604482015290519081900360640190fd5b6118c8846001600160a01b0316612f29565b1561082157836001600160a01b031663bc197c8187878686866040518663ffffffff1660e01b815260040180866001600160a01b03168152602001856001600160a01b03168152602001806020018060200180602001848103845287818151815260200191508051906020019060200280838360005b8381101561195657818101518382015260200161193e565b50505050905001848103835286818151815260200191508051906020019060200280838360005b8381101561199557818101518382015260200161197d565b50505050905001848103825285818151815260200191508051906020019080838360005b838110156119d15781810151838201526020016119b9565b50505050905090810190601f1680156119fe5780820380516001836020036101000a031916815260200191505b5098505050505050505050602060405180830381600087803b158015611a2357600080fd5b505af1925050508015611a4857506040513d6020811015611a4357600080fd5b505160015b611add57611a546143da565b80611a5f5750611aa6565b60405162461bcd60e51b8152602060048201818152835160248401528351849391928392604401919085019080838360008315611819578181015183820152602001611801565b60405162461bcd60e51b81526004018080602001828103825260348152602001806144946034913960400191505060405180910390fd5b6001600160e01b0319811663bc197c8160e01b14611b2c5760405162461bcd60e51b81526004018080602001828103825260288152602001806144c86028913960400191505060405180910390fd5b50505050505050565b6000611b4030612f29565b15905090565b600054610100900460ff1680611b5f5750611b5f611b35565b80611b6d575060005460ff16155b611ba85760405162461bcd60e51b815260040180806020018281038252602e815260200180614607602e913960400191505060405180910390fd5b600054610100900460ff16158015611bd3576000805460ff1961ff0019909116610100171660011790555b6000611bdd611761565b603380546001600160a01b0319166001600160a01b038316908117909155604051919250906000907f8be0079c531659141344cd1fd0a4f28419497f9722a3daafe3b4186f6b6457e0908290a3508015611c3d576000805461ff00191690555b50565b600054610100900460ff1680611c595750611c59611b35565b80611c67575060005460ff16155b611ca25760405162461bcd60e51b815260040180806020018281038252602e815260200180614607602e913960400191505060405180910390fd5b600054610100900460ff16158015611ccd576000805460ff1961ff0019909116610100171660011790555b611cdd636db15a0f60e01b612f2f565b8015611c3d576000805461ff001916905550565b600054610100900460ff1680611d0a5750611d0a611b35565b80611d18575060005460ff16155b611d535760405162461bcd60e51b815260040180806020018281038252602e815260200180614607602e913960400191505060405180910390fd5b600054610100900460ff16158015611d7e576000805460ff1961ff0019909116610100171660011790555b611cdd6301ffc9a760e01b612f2f565b600054610100900460ff1680611da75750611da7611b35565b80611db5575060005460ff16155b611df05760405162461bcd60e51b815260040180806020018281038252602e815260200180614607602e913960400191505060405180910390fd5b600054610100900460ff16158015611cdd576000805460ff1961ff0019909116610100171660011790558015611c3d576000805461ff001916905550565b600054610100900460ff1680611e475750611e47611b35565b80611e55575060005460ff16155b611e905760405162461bcd60e51b815260040180806020018281038252602e815260200180614607602e913960400191505060405180910390fd5b600054610100900460ff16158015611ebb576000805460ff1961ff0019909116610100171660011790555b611cdd604051806040016040528060088152602001674d696e743131353560c01b815250604051806040016040528060018152602001603160f81b815250612fb3565b600054610100900460ff1680611f175750611f17611b35565b80611f25575060005460ff16155b611f605760405162461bcd60e51b815260040180806020018281038252602e815260200180614607602e913960400191505060405180910390fd5b600054610100900460ff16158015611f8b576000805460ff1961ff0019909116610100171660011790555b611f9482613075565b611fa4636cdb3d1360e11b612f2f565b611fb46303a24d0760e21b612f2f565b8015610527576000805461ff00191690555050565b600054610100900460ff1680611fe25750611fe2611b35565b80611ff0575060005460ff16155b61202b5760405162461bcd60e51b815260040180806020018281038252602e815260200180614607602e913960400191505060405180910390fd5b600054610100900460ff16158015612056576000805460ff1961ff0019909116610100171660011790555b815161206a906102309060208501906137f6565b50611fb463e8a3d48560e01b612f2f565b600054610100900460ff16806120945750612094611b35565b806120a2575060005460ff16155b6120dd5760405162461bcd60e51b815260040180806020018281038252602e815260200180614607602e913960400191505060405180910390fd5b600054610100900460ff16158015612108576000805460ff1961ff0019909116610100171660011790555b611cdd631131d2f360e21b612f2f565b600054610100900460ff16806121315750612131611b35565b8061213f575060005460ff16155b61217a5760405162461bcd60e51b815260040180806020018281038252602e815260200180614607602e913960400191505060405180910390fd5b600054610100900460ff161580156121a5576000805460ff1961ff0019909116610100171660011790555b82516121b9906102629060208601906137f6565b5081516121ce906102639060208501906137f6565b508015610b37576000805461ff0019169055505050565b80516105279061012f9060208401906137f6565b6001600160a01b03831661223e5760405162461bcd60e51b81526004018080602001828103825260238152602001806146576023913960400191505060405180910390fd5b805182511461227e5760405162461bcd60e51b81526004018080602001828103825260288152602001806146f66028913960400191505060405180910390fd5b6000612288611761565b90506122a881856000868660405180602001604052806000815250610821565b60005b83518110156123865761233d8382815181106122c357fe5b602002602001015160405180606001604052806024815260200161454160249139609760008886815181106122f457fe5b602002602001015181526020019081526020016000206000896001600160a01b03166001600160a01b03168152602001908152602001600020546117c59092919063ffffffff16565b6097600086848151811061234d57fe5b602090810291909101810151825281810192909252604090810160009081206001600160a01b038a1682529092529020556001016122ab565b5060006001600160a01b0316846001600160a01b0316826001600160a01b03167f4a39dc06d4c0dbc64b70af90fd698a233a518aa5d07e595d983b8c0526c8f7fb8686604051808060200180602001838103835285818151815260200191508051906020019060200280838360005b8381101561240d5781810151838201526020016123f5565b50505050905001838103825284818151815260200191508051906020019060200280838360005b8381101561244c578181015183820152602001612434565b5050505090500194505050505060405180910390a450505050565b6000808260800151516001600160401b038111801561248557600080fd5b506040519080825280602002602001820160405280156124af578160200160208202803683370190505b50905060005b836080015151811015612501576124e2846080015182815181106124d557fe5b6020026020010151613088565b8282815181106124ee57fe5b60209081029190910101526001016124b5565b5060008360600151516001600160401b038111801561251f57600080fd5b50604051908082528060200260200182016040528015612549578160200160208202803683370190505b50905060005b84606001515181101561258e5761256f856060015182815181106124d557fe5b82828151811061257b57fe5b602090810291909101015260010161254f565b507ffb988707ebb338694f318760b0fd5cfe756d00a2ade251fda110b80c336a3c7f846000015185604001518660200151805190602001208460405160200180828051906020019060200280838360005b838110156125f75781810151838201526020016125df565b50505050905001915050604051602081830303815290604052805190602001208660405160200180828051906020019060200280838360005b83811015612648578181015183820152602001612630565b50505050905001915050604051602081830303815290604052805190602001206040516020018087815260200186815260200185815260200184815260200183815260200182815260200196505050505050506040516020818303038152906040528051906020012092505050919050565b610b378383836130f5565b60008281526101fc6020526040902054156126df57600080fd5b60008281526101fc602052604090819020829055517f5e2aa66efd74cce82b21852e317e5490d9ecc9e6bb953ae24d90851258cc2f5c906127239084908490614386565b60405180910390a15050565b60005b81518110156128aa5760006001600160a01b031682828151811061275257fe5b6020026020010151600001516001600160a01b031614156127ba576040805162461bcd60e51b815260206004820152601b60248201527f526563697069656e742073686f756c642062652070726573656e740000000000604482015290519081900360640190fd5b8181815181106127c657fe5b6020026020010151602001516001600160601b031660001415612830576040805162461bcd60e51b815260206004820181905260248201527f526f79616c74792076616c75652073686f756c6420626520706f736974697665604482015290519081900360640190fd5b60008381526101fa60205260409020825183908390811061284d57fe5b60209081029190910181015182546001818101855560009485529383902082519101805492909301516001600160601b0316600160a01b026001600160a01b039182166001600160a01b0319909316929092171617905501612732565b50610527828261332d565b60008281526101fb6020526040812090805b8351811015612a035760006001600160a01b03168482815181106128e757fe5b6020026020010151600001516001600160a01b0316141561291a5760405162461bcd60e51b8152600401610c26906142d7565b83818151811061292657fe5b6020026020010151602001516001600160601b03166000141561295b5760405162461bcd60e51b8152600401610c26906141db565b8284828151811061296857fe5b602090810291909101810151825460018101845560009384529282902081519301805491909201516001600160601b0316600160a01b026001600160a01b039384166001600160a01b03199092169190911790921691909117905583516129f9908590839081106129d557fe5b6020026020010151602001516001600160601b03168361185c90919063ffffffff16565b91506001016128c7565b508061271014612a255760405162461bcd60e51b8152600401610c269061430e565b7f841ffb90d4cabdd1f16034f3fa831d79060febbb8167bdd54a49269365bdf78f8484604051612a56929190614365565b60405180910390a150505050565b600082815261012e602090815260409091208251612a84928401906137f6565b50817f6bb7ff708619ba0610cba295a58592e0451dee2622938c8755667688daf3529b612ab084611524565b6040805160208082528351818301528351919283929083019185019080838360005b83811015612aea578181015183820152602001612ad2565b50505050905090810190601f168015612b175780820380516001836020036101000a031916815260200191505b509250505060405180910390a25050565b612b348484848461335e565b50505050565b6001600160a01b038116600090815260c9602052604081205460ff16806111c957506111c983836133c9565b60408051600180825281830190925260609160009190602080830190803683370190505090508281600081518110612b9a57fe5b602090810291909101015292915050565b612bbd846001600160a01b0316612f29565b1561082157836001600160a01b031663f23a6e6187878686866040518663ffffffff1660e01b815260040180866001600160a01b03168152602001856001600160a01b0316815260200184815260200183815260200180602001828103825283818151815260200191508051906020019080838360005b83811015612c4c578181015183820152602001612c34565b50505050905090810190601f168015612c795780820380516001836020036101000a031916815260200191505b509650505050505050602060405180830381600087803b158015612c9c57600080fd5b505af1925050508015612cc157506040513d6020811015612cbc57600080fd5b505160015b612ccd57611a546143da565b6001600160e01b0319811663f23a6e6160e01b14611b2c5760405162461bcd60e51b81526004018080602001828103825260288152602001806144c86028913960400191505060405180910390fd5b6001600160a01b038316612d615760405162461bcd60e51b81526004018080602001828103825260238152602001806146576023913960400191505060405180910390fd5b6000612d6b611761565b9050612d9b81856000612d7d87612b66565b612d8687612b66565b60405180602001604052806000815250610821565b612de2826040518060600160405280602481526020016145416024913960008681526097602090815260408083206001600160a01b038b16845290915290205491906117c5565b60008481526097602090815260408083206001600160a01b03808a16808652918452828520959095558151888152928301879052815193949093908616927fc3d58168c5ae7397731d063d5bbf3d657854427343f4c083240f7aacaa2d0f6292908290030190a450505050565b606081612e7457506040805180820190915260018152600360fc1b6020820152610404565b8160005b8115612e8c57600101600a82049150612e78565b6000816001600160401b0381118015612ea457600080fd5b506040519080825280601f01601f191660200182016040528015612ecf576020820181803683370190505b50859350905060001982015b8315612f2057600a840660300160f81b82828060019003935081518110612efe57fe5b60200101906001600160f81b031916908160001a905350600a84049350612edb565b50949350505050565b3b151590565b6001600160e01b03198082161415612f8e576040805162461bcd60e51b815260206004820152601c60248201527f4552433136353a20696e76616c696420696e7465726661636520696400000000604482015290519081900360640190fd5b6001600160e01b0319166000908152606560205260409020805460ff19166001179055565b600054610100900460ff1680612fcc5750612fcc611b35565b80612fda575060005460ff16155b6130155760405162461bcd60e51b815260040180806020018281038252602e815260200180614607602e913960400191505060405180910390fd5b600054610100900460ff16158015613040576000805460ff1961ff0019909116610100171660011790555b825160208085019190912083519184019190912061016291909155610163558015610b37576000805461ff0019169055505050565b80516105279060999060208401906137f6565b8051602091820151604080517f397e04204c1e1a60ee8724b71f8244e10ab5f2e9009854d80f602bda21b59ebb818601526001600160a01b03909316838201526001600160601b039091166060808401919091528151808403909101815260809092019052805191012090565b6000613100836133f7565b9050613114846001600160a01b0316612f29565b1561328d5760408051630b135d3f60e11b808252600482018481526024830193845285516044840152855191936001600160a01b03891693631626ba7e938793899390929091606490910190602085019080838360005b8381101561318357818101518382015260200161316b565b50505050905090810190601f1680156131b05780820380516001836020036101000a031916815260200191505b50935050505060206040518083038186803b1580156131ce57600080fd5b505afa1580156131e2573d6000803e3d6000fd5b505050506040513d60208110156131f857600080fd5b505160408051808201909152601c81527f7369676e617475726520766572696669636174696f6e206572726f72000000006020820152916001600160e01b0319909116146132875760405162461bcd60e51b8152602060048201818152835160248401528351909283926044909101919085019080838360008315611819578181015183820152602001611801565b50612b34565b6001600160a01b0384166132a18284613443565b6001600160a01b0316146040518060400160405280601c81526020017f7369676e617475726520766572696669636174696f6e206572726f720000000081525090610a615760405162461bcd60e51b8152602060048201818152835160248401528351909283926044909101919085019080838360008315611819578181015183820152602001611801565b7f3fa96d7b6bcbfe71ef171666d84db3cf52fa2d1c8afdb1cc8e486177f208b7df8282604051612723929190614365565b60008381526101fd602052604081205461337990849061185c565b60008581526101fc60205260409020549091508111156133ab5760405162461bcd60e51b8152600401610c26906142ad565b60008481526101fd60205260409020819055610a61858585856134c3565b6001600160a01b03918216600090815260986020908152604080832093909416825291909152205460ff1690565b60006134016135c4565b82604051602001808061190160f01b81525060020183815260200182815260200192505050604051602081830303815290604052805190602001209050919050565b6000815160411461349b576040805162461bcd60e51b815260206004820152601f60248201527f45434453413a20696e76616c6964207369676e6174757265206c656e67746800604482015290519081900360640190fd5b60208201516040830151606084015160001a6134b986828585613604565b9695505050505050565b6001600160a01b0384166135085760405162461bcd60e51b815260040180806020018281038252602181526020018061471e6021913960400191505060405180910390fd5b6000613512611761565b90506135248160008761129988612b66565b60008481526097602090815260408083206001600160a01b0389168452909152902054613551908461185c565b60008581526097602090815260408083206001600160a01b03808b16808652918452828520959095558151898152928301889052815190948616927fc3d58168c5ae7397731d063d5bbf3d657854427343f4c083240f7aacaa2d0f6292908290030190a4610a6181600087878787612bab565b60006135ff7f8b73c3c69bb8fe3d512ecc4cf759cc79239f7b179b0ffacaa9a75d522b39400f6135f2613782565b6135fa613789565b613790565b905090565b60007f7fffffffffffffffffffffffffffffff5d576e7357a4501ddfe92f46681b20a08211156136655760405162461bcd60e51b815260040180806020018281038252602281526020018061458e6022913960400191505060405180910390fd5b8360ff16601b148061367a57508360ff16601c145b6136b55760405162461bcd60e51b81526004018080602001828103825260228152602001806146356022913960400191505060405180910390fd5b600060018686868660405160008152602001604052604051808581526020018460ff1681526020018381526020018281526020019450505050506020604051602081039080840390855afa158015613711573d6000803e3d6000fd5b5050604051601f1901519150506001600160a01b038116613779576040805162461bcd60e51b815260206004820152601860248201527f45434453413a20696e76616c6964207369676e61747572650000000000000000604482015290519081900360640190fd5b95945050505050565b6101625490565b6101635490565b600083838361379d6137f2565b3060405160200180868152602001858152602001848152602001838152602001826001600160a01b03168152602001955050505050506040516020818303038152906040528051906020012090509392505050565b4690565b828054600181600116156101000203166002900490600052602060002090601f01602090048101928261382c5760008555613872565b82601f1061384557805160ff1916838001178555613872565b82800160010185558215613872579182015b82811115613872578251825591602001919060010190613857565b5061387e929150613882565b5090565b5b8082111561387e5760008155600101613883565b600082601f8301126138a7578081fd5b813560206138bc6138b7836143b7565b614394565b82815281810190858301855b858110156138f1576138df898684358b0101613a13565b845292840192908401906001016138c8565b5090979650505050505050565b600082601f83011261390e578081fd5b8135602061391e6138b7836143b7565b8281528181019085830160408086028801850189101561393c578687fd5b865b868110156139ab5781838b031215613954578788fd5b81518281018181106001600160401b038211171561396e57fe5b8352833561397b8161447e565b8152838701356001600160601b038116811461399557898afd5b818801528552938501939181019160010161393e565b509198975050505050505050565b600082601f8301126139c9578081fd5b813560206139d96138b7836143b7565b82815281810190858301838502870184018810156139f5578586fd5b855b858110156138f1578135845292840192908401906001016139f7565b600082601f830112613a23578081fd5b81356001600160401b03811115613a3657fe5b613a49601f8201601f1916602001614394565b818152846020838601011115613a5d578283fd5b816020850160208301379081016020019190915292915050565b600060c08284031215613a88578081fd5b613a9260c0614394565b90508135815260208201356001600160401b0380821115613ab257600080fd5b613abe85838601613a13565b6020840152604084013560408401526060840135915080821115613ae157600080fd5b613aed858386016138fe565b60608401526080840135915080821115613b0657600080fd5b613b12858386016138fe565b608084015260a0840135915080821115613b2b57600080fd5b50613b3884828501613897565b60a08301525092915050565b600060208284031215613b55578081fd5b81356111c98161447e565b60008060408385031215613b72578081fd5b8235613b7d8161447e565b91506020830135613b8d8161447e565b809150509250929050565b600080600080600060a08688031215613baf578081fd5b8535613bba8161447e565b94506020860135613bca8161447e565b935060408601356001600160401b0380821115613be5578283fd5b613bf189838a016139b9565b94506060880135915080821115613c06578283fd5b613c1289838a016139b9565b93506080880135915080821115613c27578283fd5b50613c3488828901613a13565b9150509295509295909350565b600080600080600060a08688031215613c58578283fd5b8535613c638161447e565b94506020860135613c738161447e565b9350604086013592506060860135915060808601356001600160401b03811115613c9b578182fd5b613c3488828901613a13565b600080600060608486031215613cbb578081fd5b8335613cc68161447e565b925060208401356001600160401b0380821115613ce1578283fd5b613ced878388016139b9565b93506040860135915080821115613d02578283fd5b50613d0f868287016139b9565b9150509250925092565b60008060408385031215613d2b578182fd5b8235613d368161447e565b915060208301358015158114613b8d578182fd5b60008060408385031215613d5c578182fd5b8235613d678161447e565b946020939093013593505050565b600080600060608486031215613d89578081fd5b8335613d948161447e565b95602085013595506040909401359392505050565b60008060408385031215613dbb578182fd5b82356001600160401b0380821115613dd1578384fd5b818501915085601f830112613de4578384fd5b81356020613df46138b7836143b7565b82815281810190858301838502870184018b1015613e10578889fd5b8896505b84871015613e3b578035613e278161447e565b835260019690960195918301918301613e14565b5096505086013592505080821115613e51578283fd5b50613e5e858286016139b9565b9150509250929050565b600060208284031215613e79578081fd5b81356001600160e01b0319811681146111c9578182fd5b60008060008060808587031215613ea5578182fd5b84356001600160401b0380821115613ebb578384fd5b613ec788838901613a13565b95506020870135915080821115613edc578384fd5b613ee888838901613a13565b94506040870135915080821115613efd578384fd5b613f0988838901613a13565b93506060870135915080821115613f1e578283fd5b50613f2b87828801613a13565b91505092959194509250565b60008060008060808587031215613f4c578182fd5b84356001600160401b03811115613f61578283fd5b613f6d87828801613a77565b9450506020850135613f7e8161447e565b92506040850135613f8e8161447e565b9396929550929360600135925050565b600080600060608486031215613fb2578081fd5b83356001600160401b03811115613fc7578182fd5b613fd386828701613a77565b9350506020840135613fe48161447e565b929592945050506040919091013590565b600060208284031215614006578081fd5b5035919050565b6000806040838503121561401f578182fd5b50508035926020909101359150565b6000815180845260208085019450808401835b8381101561407a57815180516001600160a01b031688528301516001600160601b03168388015260409096019590820190600101614041565b509495945050505050565b60008151808452815b818110156140aa5760208185018101518683018201520161408e565b818111156140bb5782602083870101525b50601f01601f19169290920160200192915050565b6001600160a01b0391909116815260200190565b6001600160a01b038416815260606020820181905260009061410890830185614085565b82810360408401526134b98185614085565b6001600160a01b039290921682526001600160601b0316602082015260400190565b6000602082526111c9602083018461402e565b6020808252825182820181905260009190848201906040850190845b818110156141875783518352928401929184019160010161416b565b50909695505050505050565b901515815260200190565b6000602082526111c96020830184614085565b60208082526010908201526f1cdd5c1c1b1e481a5b98dbdc9c9958dd60821b604082015260600190565b6020808252818101527f43726561746f722073686172652073686f756c6420626520706f736974697665604082015260600190565b6020808252601190820152701d1bdad95b9259081a5b98dbdc9c9958dd607a1b604082015260600190565b60208082526010908201526f185b5bdd5b9d081a5b98dbdc9c9958dd60821b604082015260600190565b60208082526028908201527f455243313135353a207472616e736665722063616c6c6572206973206e6f7420604082015267185c1c1c9bdd995960c21b606082015260800190565b60208082526010908201526f6d6f7265207468616e20737570706c7960801b604082015260600190565b60208082526019908201527f4163636f756e742073686f756c642062652070726573656e7400000000000000604082015260600190565b6020808252602e908201527f746f74616c20616d6f756e74206f662063726561746f7273207368617265207360408201526d0686f756c642062652031303030360941b606082015260800190565b90815260200190565b60008382526040602083015261437e604083018461402e565b949350505050565b918252602082015260400190565b6040518181016001600160401b03811182821017156143af57fe5b604052919050565b60006001600160401b038211156143ca57fe5b5060209081020190565b60e01c90565b600060443d10156143ea57610bd1565b600481823e6308c379a06143fe82516143d4565b1461440857610bd1565b6040513d600319016004823e80513d6001600160401b0381602484011181841117156144375750505050610bd1565b828401925082519150808211156144515750505050610bd1565b503d8301602082840101111561446957505050610bd1565b601f01601f1916810160200160405291505090565b6001600160a01b0381168114611c3d57600080fdfe455243313135353a207472616e7366657220746f206e6f6e2045524331313535526563656976657220696d706c656d656e746572455243313135353a204552433131353552656365697665722072656a656374656420746f6b656e73455243313135353a2062616c616e636520717565727920666f7220746865207a65726f20616464726573734f776e61626c653a206e6577206f776e657220697320746865207a65726f2061646472657373455243313135353a206275726e20616d6f756e7420657863656564732062616c616e6365455243313135353a2063616c6c6572206973206e6f74206f776e6572206e6f7220617070726f76656445434453413a20696e76616c6964207369676e6174757265202773272076616c7565455243313135353a207472616e7366657220746f20746865207a65726f2061646472657373455243313135353a207472616e736665722063616c6c6572206973206e6f74206f776e6572206e6f7220617070726f766564496e697469616c697a61626c653a20636f6e747261637420697320616c726561647920696e697469616c697a656445434453413a20696e76616c6964207369676e6174757265202776272076616c7565455243313135353a206275726e2066726f6d20746865207a65726f2061646472657373455243313135353a20696e73756666696369656e742062616c616e636520666f72207472616e73666572455243313135353a2073657474696e6720617070726f76616c2073746174757320666f722073656c66455243313135353a206163636f756e747320616e6420696473206c656e677468206d69736d61746368455243313135353a2069647320616e6420616d6f756e7473206c656e677468206d69736d61746368455243313135353a206d696e7420746f20746865207a65726f2061646472657373a26469706673582212205ddcc2d67f0af8e8479409ffe0b3b4e752bbb74ae0944e724662e69812eb387564736f6c63430007060033",
  "immutableReferences": {},
  "source": "// SPDX-License-Identifier: MIT\n\npragma solidity >=0.6.2 <0.8.0;\npragma abicoder v2;\n\nimport \"./ERC1155Base.sol\";\n\ncontract ERC1155Wall is ERC1155Base {\n    event CreateERC1155(address owner, string name, string symbol);\n\n    function __ERC1155_init(string memory _name, string memory _symbol, string memory baseURI, string memory contractURI) external initializer {\n        __Ownable_init_unchained();\n        __ERC1155Lazy_init_unchained();\n        __ERC165_init_unchained();\n        __Context_init_unchained();\n        __Mint1155Validator_init_unchained();\n        __ERC1155_init_unchained(\"\");\n        __HasContractURI_init_unchained(contractURI);\n        __ERC1155Burnable_init_unchained();\n        __RoyaltiesVersion2Upgrade_init_unchained();\n        __ERC1155Base_init_unchained(_name, _symbol);\n        _setBaseURI(baseURI);\n        emit CreateERC1155(_msgSender(), _name, _symbol);\n    }\n    uint256[50] private __gap;\n}\n",
  "sourcePath": "/home/aniketdixit/Documents/wallappsendthis/contracts/tokens/contracts/erc-1155/ERC1155Wall.sol",
  "compiler": {
    "name": "solc",
    "version": "0.7.6+commit.7338295f.Emscripten.clang"
  },
  "schemaVersion": "3.4.1",
  "updatedAt": "2021-07-07T08:25:44.207Z",
  "devdoc": {
    "kind": "dev",
    "methods": {
      "balanceOf(address,uint256)": {
        "details": "See {IERC1155-balanceOf}. Requirements: - `account` cannot be the zero address."
      },
      "balanceOfBatch(address[],uint256[])": {
        "details": "See {IERC1155-balanceOfBatch}. Requirements: - `accounts` and `ids` must have the same length."
      },
      "baseURI()": {
        "details": "Returns the base URI set via {_setBaseURI}. This will be automatically added as a prefix in {tokenURI} to each token's URI, or to the token ID if no specific URI is set for that token ID."
      },
      "owner()": {
        "details": "Returns the address of the current owner."
      },
      "renounceOwnership()": {
        "details": "Leaves the contract without owner. It will not be possible to call `onlyOwner` functions anymore. Can only be called by the current owner. NOTE: Renouncing ownership will leave the contract without an owner, thereby removing any functionality that is only available to the owner."
      },
      "safeBatchTransferFrom(address,address,uint256[],uint256[],bytes)": {
        "details": "See {IERC1155-safeBatchTransferFrom}."
      },
      "safeTransferFrom(address,address,uint256,uint256,bytes)": {
        "details": "See {IERC1155-safeTransferFrom}."
      },
      "setApprovalForAll(address,bool)": {
        "details": "See {IERC1155-setApprovalForAll}."
      },
      "supportsInterface(bytes4)": {
        "details": "See {IERC165-supportsInterface}. Time complexity O(1), guaranteed to always use less than 30 000 gas."
      },
      "transferOwnership(address)": {
        "details": "Transfers ownership of the contract to a new account (`newOwner`). Can only be called by the current owner."
      }
    },
    "version": 1
  },
  "userdoc": {
    "kind": "user",
    "methods": {},
    "version": 1
  }
}