{
  "contractName": "ERC721User",
  "abi": [
    {
      "anonymous": false,
      "inputs": [
        {
          "indexed": true,
          "internalType": "address",
          "name": "owner",
          "type": "address"
        },
        {
          "indexed": true,
          "internalType": "address",
          "name": "approved",
          "type": "address"
        },
        {
          "indexed": true,
          "internalType": "uint256",
          "name": "tokenId",
          "type": "uint256"
        }
      ],
      "name": "Approval",
      "type": "event"
    },
    {
      "anonymous": false,
      "inputs": [
        {
          "indexed": true,
          "internalType": "address",
          "name": "owner",
          "type": "address"
        },
        {
          "indexed": true,
          "internalType": "address",
          "name": "operator",
          "type": "address"
        },
        {
          "indexed": false,
          "internalType": "bool",
          "name": "approved",
          "type": "bool"
        }
      ],
      "name": "ApprovalForAll",
      "type": "event"
    },
    {
      "anonymous": false,
      "inputs": [
        {
          "indexed": false,
          "internalType": "address",
          "name": "owner",
          "type": "address"
        },
        {
          "indexed": false,
          "internalType": "string",
          "name": "name",
          "type": "string"
        },
        {
          "indexed": false,
          "internalType": "string",
          "name": "symbol",
          "type": "string"
        }
      ],
      "name": "CreateERC721User",
      "type": "event"
    },
    {
      "anonymous": false,
      "inputs": [
        {
          "indexed": false,
          "internalType": "uint256",
          "name": "tokenId",
          "type": "uint256"
        },
        {
          "components": [
            {
              "internalType": "address payable",
              "name": "account",
              "type": "address"
            },
            {
              "internalType": "uint96",
              "name": "value",
              "type": "uint96"
            }
          ],
          "indexed": false,
          "internalType": "struct LibPart.Part[]",
          "name": "creators",
          "type": "tuple[]"
        }
      ],
      "name": "Creators",
      "type": "event"
    },
    {
      "anonymous": false,
      "inputs": [
        {
          "indexed": true,
          "internalType": "address",
          "name": "previousOwner",
          "type": "address"
        },
        {
          "indexed": true,
          "internalType": "address",
          "name": "newOwner",
          "type": "address"
        }
      ],
      "name": "OwnershipTransferred",
      "type": "event"
    },
    {
      "anonymous": false,
      "inputs": [
        {
          "indexed": false,
          "internalType": "uint256",
          "name": "tokenId",
          "type": "uint256"
        },
        {
          "components": [
            {
              "internalType": "address payable",
              "name": "account",
              "type": "address"
            },
            {
              "internalType": "uint96",
              "name": "value",
              "type": "uint96"
            }
          ],
          "indexed": false,
          "internalType": "struct LibPart.Part[]",
          "name": "royalties",
          "type": "tuple[]"
        }
      ],
      "name": "RoyaltiesSet",
      "type": "event"
    },
    {
      "anonymous": false,
      "inputs": [
        {
          "indexed": true,
          "internalType": "address",
          "name": "from",
          "type": "address"
        },
        {
          "indexed": true,
          "internalType": "address",
          "name": "to",
          "type": "address"
        },
        {
          "indexed": true,
          "internalType": "uint256",
          "name": "tokenId",
          "type": "uint256"
        }
      ],
      "name": "Transfer",
      "type": "event"
    },
    {
      "inputs": [
        {
          "internalType": "address",
          "name": "to",
          "type": "address"
        },
        {
          "internalType": "uint256",
          "name": "tokenId",
          "type": "uint256"
        }
      ],
      "name": "approve",
      "outputs": [],
      "stateMutability": "nonpayable",
      "type": "function"
    },
    {
      "inputs": [
        {
          "internalType": "address",
          "name": "owner",
          "type": "address"
        }
      ],
      "name": "balanceOf",
      "outputs": [
        {
          "internalType": "uint256",
          "name": "",
          "type": "uint256"
        }
      ],
      "stateMutability": "view",
      "type": "function"
    },
    {
      "inputs": [],
      "name": "baseURI",
      "outputs": [
        {
          "internalType": "string",
          "name": "",
          "type": "string"
        }
      ],
      "stateMutability": "view",
      "type": "function"
    },
    {
      "inputs": [
        {
          "internalType": "uint256",
          "name": "tokenId",
          "type": "uint256"
        }
      ],
      "name": "burn",
      "outputs": [],
      "stateMutability": "nonpayable",
      "type": "function"
    },
    {
      "inputs": [],
      "name": "contractURI",
      "outputs": [
        {
          "internalType": "string",
          "name": "",
          "type": "string"
        }
      ],
      "stateMutability": "view",
      "type": "function"
    },
    {
      "inputs": [
        {
          "internalType": "uint256",
          "name": "tokenId",
          "type": "uint256"
        }
      ],
      "name": "getApproved",
      "outputs": [
        {
          "internalType": "address",
          "name": "",
          "type": "address"
        }
      ],
      "stateMutability": "view",
      "type": "function"
    },
    {
      "inputs": [
        {
          "internalType": "uint256",
          "name": "_id",
          "type": "uint256"
        }
      ],
      "name": "getCreators",
      "outputs": [
        {
          "components": [
            {
              "internalType": "address payable",
              "name": "account",
              "type": "address"
            },
            {
              "internalType": "uint96",
              "name": "value",
              "type": "uint96"
            }
          ],
          "internalType": "struct LibPart.Part[]",
          "name": "",
          "type": "tuple[]"
        }
      ],
      "stateMutability": "view",
      "type": "function"
    },
    {
      "inputs": [
        {
          "internalType": "uint256",
          "name": "id",
          "type": "uint256"
        }
      ],
      "name": "getRoyalties",
      "outputs": [
        {
          "components": [
            {
              "internalType": "address payable",
              "name": "account",
              "type": "address"
            },
            {
              "internalType": "uint96",
              "name": "value",
              "type": "uint96"
            }
          ],
          "internalType": "struct LibPart.Part[]",
          "name": "",
          "type": "tuple[]"
        }
      ],
      "stateMutability": "view",
      "type": "function"
    },
    {
      "inputs": [
        {
          "internalType": "address",
          "name": "owner",
          "type": "address"
        },
        {
          "internalType": "address",
          "name": "operator",
          "type": "address"
        }
      ],
      "name": "isApprovedForAll",
      "outputs": [
        {
          "internalType": "bool",
          "name": "",
          "type": "bool"
        }
      ],
      "stateMutability": "view",
      "type": "function"
    },
    {
      "inputs": [],
      "name": "name",
      "outputs": [
        {
          "internalType": "string",
          "name": "",
          "type": "string"
        }
      ],
      "stateMutability": "view",
      "type": "function"
    },
    {
      "inputs": [],
      "name": "owner",
      "outputs": [
        {
          "internalType": "address",
          "name": "",
          "type": "address"
        }
      ],
      "stateMutability": "view",
      "type": "function"
    },
    {
      "inputs": [
        {
          "internalType": "uint256",
          "name": "tokenId",
          "type": "uint256"
        }
      ],
      "name": "ownerOf",
      "outputs": [
        {
          "internalType": "address",
          "name": "",
          "type": "address"
        }
      ],
      "stateMutability": "view",
      "type": "function"
    },
    {
      "inputs": [],
      "name": "renounceOwnership",
      "outputs": [],
      "stateMutability": "nonpayable",
      "type": "function"
    },
    {
      "inputs": [
        {
          "internalType": "uint256",
          "name": "",
          "type": "uint256"
        },
        {
          "internalType": "uint256",
          "name": "",
          "type": "uint256"
        }
      ],
      "name": "royalties",
      "outputs": [
        {
          "internalType": "address payable",
          "name": "account",
          "type": "address"
        },
        {
          "internalType": "uint96",
          "name": "value",
          "type": "uint96"
        }
      ],
      "stateMutability": "view",
      "type": "function"
    },
    {
      "inputs": [
        {
          "internalType": "address",
          "name": "from",
          "type": "address"
        },
        {
          "internalType": "address",
          "name": "to",
          "type": "address"
        },
        {
          "internalType": "uint256",
          "name": "tokenId",
          "type": "uint256"
        }
      ],
      "name": "safeTransferFrom",
      "outputs": [],
      "stateMutability": "nonpayable",
      "type": "function"
    },
    {
      "inputs": [
        {
          "internalType": "address",
          "name": "from",
          "type": "address"
        },
        {
          "internalType": "address",
          "name": "to",
          "type": "address"
        },
        {
          "internalType": "uint256",
          "name": "tokenId",
          "type": "uint256"
        },
        {
          "internalType": "bytes",
          "name": "_data",
          "type": "bytes"
        }
      ],
      "name": "safeTransferFrom",
      "outputs": [],
      "stateMutability": "nonpayable",
      "type": "function"
    },
    {
      "inputs": [
        {
          "internalType": "address",
          "name": "operator",
          "type": "address"
        },
        {
          "internalType": "bool",
          "name": "approved",
          "type": "bool"
        }
      ],
      "name": "setApprovalForAll",
      "outputs": [],
      "stateMutability": "nonpayable",
      "type": "function"
    },
    {
      "inputs": [
        {
          "internalType": "bytes4",
          "name": "interfaceId",
          "type": "bytes4"
        }
      ],
      "name": "supportsInterface",
      "outputs": [
        {
          "internalType": "bool",
          "name": "",
          "type": "bool"
        }
      ],
      "stateMutability": "view",
      "type": "function"
    },
    {
      "inputs": [],
      "name": "symbol",
      "outputs": [
        {
          "internalType": "string",
          "name": "",
          "type": "string"
        }
      ],
      "stateMutability": "view",
      "type": "function"
    },
    {
      "inputs": [
        {
          "internalType": "uint256",
          "name": "index",
          "type": "uint256"
        }
      ],
      "name": "tokenByIndex",
      "outputs": [
        {
          "internalType": "uint256",
          "name": "",
          "type": "uint256"
        }
      ],
      "stateMutability": "view",
      "type": "function"
    },
    {
      "inputs": [
        {
          "internalType": "address",
          "name": "owner",
          "type": "address"
        },
        {
          "internalType": "uint256",
          "name": "index",
          "type": "uint256"
        }
      ],
      "name": "tokenOfOwnerByIndex",
      "outputs": [
        {
          "internalType": "uint256",
          "name": "",
          "type": "uint256"
        }
      ],
      "stateMutability": "view",
      "type": "function"
    },
    {
      "inputs": [
        {
          "internalType": "uint256",
          "name": "tokenId",
          "type": "uint256"
        }
      ],
      "name": "tokenURI",
      "outputs": [
        {
          "internalType": "string",
          "name": "",
          "type": "string"
        }
      ],
      "stateMutability": "view",
      "type": "function"
    },
    {
      "inputs": [],
      "name": "totalSupply",
      "outputs": [
        {
          "internalType": "uint256",
          "name": "",
          "type": "uint256"
        }
      ],
      "stateMutability": "view",
      "type": "function"
    },
    {
      "inputs": [
        {
          "internalType": "address",
          "name": "from",
          "type": "address"
        },
        {
          "internalType": "address",
          "name": "to",
          "type": "address"
        },
        {
          "internalType": "uint256",
          "name": "tokenId",
          "type": "uint256"
        }
      ],
      "name": "transferFrom",
      "outputs": [],
      "stateMutability": "nonpayable",
      "type": "function"
    },
    {
      "inputs": [
        {
          "components": [
            {
              "internalType": "uint256",
              "name": "tokenId",
              "type": "uint256"
            },
            {
              "internalType": "string",
              "name": "uri",
              "type": "string"
            },
            {
              "components": [
                {
                  "internalType": "address payable",
                  "name": "account",
                  "type": "address"
                },
                {
                  "internalType": "uint96",
                  "name": "value",
                  "type": "uint96"
                }
              ],
              "internalType": "struct LibPart.Part[]",
              "name": "creators",
              "type": "tuple[]"
            },
            {
              "components": [
                {
                  "internalType": "address payable",
                  "name": "account",
                  "type": "address"
                },
                {
                  "internalType": "uint96",
                  "name": "value",
                  "type": "uint96"
                }
              ],
              "internalType": "struct LibPart.Part[]",
              "name": "royalties",
              "type": "tuple[]"
            },
            {
              "internalType": "bytes[]",
              "name": "signatures",
              "type": "bytes[]"
            }
          ],
          "internalType": "struct LibERC721LazyMint.Mint721Data",
          "name": "data",
          "type": "tuple"
        },
        {
          "internalType": "address",
          "name": "from",
          "type": "address"
        },
        {
          "internalType": "address",
          "name": "to",
          "type": "address"
        }
      ],
      "name": "transferFromOrMintTo",
      "outputs": [],
      "stateMutability": "nonpayable",
      "type": "function"
    },
    {
      "inputs": [
        {
          "internalType": "address",
          "name": "newOwner",
          "type": "address"
        }
      ],
      "name": "transferOwnership",
      "outputs": [],
      "stateMutability": "nonpayable",
      "type": "function"
    },
    {
      "inputs": [
        {
          "internalType": "uint256",
          "name": "_id",
          "type": "uint256"
        },
        {
          "internalType": "address",
          "name": "_from",
          "type": "address"
        },
        {
          "internalType": "address",
          "name": "_to",
          "type": "address"
        }
      ],
      "name": "updateAccount",
      "outputs": [],
      "stateMutability": "nonpayable",
      "type": "function"
    },
    {
      "inputs": [
        {
          "internalType": "string",
          "name": "_name",
          "type": "string"
        },
        {
          "internalType": "string",
          "name": "_symbol",
          "type": "string"
        },
        {
          "internalType": "string",
          "name": "baseURI",
          "type": "string"
        },
        {
          "internalType": "string",
          "name": "contractURI",
          "type": "string"
        },
        {
          "internalType": "address[]",
          "name": "operators",
          "type": "address[]"
        }
      ],
      "name": "__ERC721WallUser_init",
      "outputs": [],
      "stateMutability": "nonpayable",
      "type": "function"
    },
    {
      "inputs": [
        {
          "components": [
            {
              "internalType": "uint256",
              "name": "tokenId",
              "type": "uint256"
            },
            {
              "internalType": "string",
              "name": "uri",
              "type": "string"
            },
            {
              "components": [
                {
                  "internalType": "address payable",
                  "name": "account",
                  "type": "address"
                },
                {
                  "internalType": "uint96",
                  "name": "value",
                  "type": "uint96"
                }
              ],
              "internalType": "struct LibPart.Part[]",
              "name": "creators",
              "type": "tuple[]"
            },
            {
              "components": [
                {
                  "internalType": "address payable",
                  "name": "account",
                  "type": "address"
                },
                {
                  "internalType": "uint96",
                  "name": "value",
                  "type": "uint96"
                }
              ],
              "internalType": "struct LibPart.Part[]",
              "name": "royalties",
              "type": "tuple[]"
            },
            {
              "internalType": "bytes[]",
              "name": "signatures",
              "type": "bytes[]"
            }
          ],
          "internalType": "struct LibERC721LazyMint.Mint721Data",
          "name": "data",
          "type": "tuple"
        },
        {
          "internalType": "address",
          "name": "to",
          "type": "address"
        }
      ],
      "name": "mintAndTransferTo",
      "outputs": [],
      "stateMutability": "nonpayable",
      "type": "function"
    }
  ],
  "bytecode": "0x608060405234801561001057600080fd5b50614434806100206000396000f3fe608060405234801561001057600080fd5b50600436106101cf5760003560e01c8063715018a611610104578063a2e29777116100a2578063e07f231911610071578063e07f2319146103c7578063e8a3d485146103da578063e985e9c5146103e2578063f2fde38b146103f5576101cf565b8063a2e297771461037b578063b88d4fde1461038e578063bb3bafd6146103a1578063c87b56dd146103b4576101cf565b80638b06f66c116100de5780638b06f66c146103455780638da5cb5b1461035857806395d89b4114610360578063a22cb46514610368576101cf565b8063715018a6146102fc578063891be974146103045780638924af7414610324576101cf565b80633d4e4acb116101715780634f6ccce71161014b5780634f6ccce7146102bb5780636352211e146102ce5780636c0360eb146102e157806370a08231146102e9576101cf565b80633d4e4acb1461028257806342842e0e1461029557806342966c68146102a8576101cf565b8063095ea7b3116101ad578063095ea7b31461023257806318160ddd1461024757806323b872dd1461025c5780632f745c591461026f576101cf565b806301ffc9a7146101d457806306fdde03146101fd578063081812fc14610212575b600080fd5b6101e76101e2366004613b79565b610408565b6040516101f49190613e94565b60405180910390f35b61020561042b565b6040516101f49190613e9f565b610225610220366004613d14565b6104c1565b6040516101f49190613e15565b610245610240366004613b4e565b610523565b005b61024f6105f9565b6040516101f49190614044565b61024561026a366004613a73565b61060a565b61024f61027d366004613b4e565b610661565b610245610290366004613cb2565b61068c565b6102456102a3366004613a73565b6106ba565b6102456102b6366004613d14565b6106d5565b61024f6102c9366004613d14565b610727565b6102256102dc366004613d14565b61073d565b610205610765565b61024f6102f7366004613a1f565b6107c6565b61024561082e565b610317610312366004613d14565b6108ec565b6040516101f49190613e81565b610337610332366004613d52565b61097c565b6040516101f4929190613e5f565b610245610353366004613ba1565b6109c6565b610225610b36565b610205610b45565b610245610376366004613b1d565b610ba6565b610245610389366004613c6d565b610cab565b61024561039c366004613ab3565b610d16565b6103176103af366004613d14565b610d74565b6102056103c2366004613d14565b610def565b6102456103d5366004613d2c565b611070565b6102056110b3565b6101e76103f0366004613a3b565b611142565b610245610403366004613a1f565b611170565b6001600160e01b0319811660009081526065602052604090205460ff165b919050565b609c8054604080516020601f60026000196101006001881615020190951694909404938401819004810282018101909252828152606093909290918301828280156104b75780601f1061048c576101008083540402835291602001916104b7565b820191906000526020600020905b81548152906001019060200180831161049a57829003601f168201915b5050505050905090565b60006104cc82611285565b6105075760405162461bcd60e51b815260040180806020018281038252602c8152602001806142cd602c913960400191505060405180910390fd5b506000908152609a60205260409020546001600160a01b031690565b600061052e8261073d565b9050806001600160a01b0316836001600160a01b031614156105815760405162461bcd60e51b815260040180806020018281038252602181526020018061437d6021913960400191505060405180910390fd5b806001600160a01b0316610593611292565b6001600160a01b031614806105af57506105af816103f0611292565b6105ea5760405162461bcd60e51b81526004018080602001828103825260388152602001806141d06038913960400191505060405180910390fd5b6105f48383611296565b505050565b60006106056098611304565b905090565b61061b610615611292565b8261130f565b6106565760405162461bcd60e51b815260040180806020018281038252603181526020018061439e6031913960400191505060405180910390fd5b6105f48383836113b3565b6001600160a01b038216600090815260976020526040812061068390836114ff565b90505b92915050565b825161069790611285565b156106b0576106ab828285600001516106ba565b6105f4565b6105f48382610cab565b6105f483838360405180602001604052806000815250610d16565b6106e0610615611292565b61071b5760405162461bcd60e51b81526004018080602001828103825260308152602001806143cf6030913960400191505060405180910390fd5b6107248161150b565b50565b6000806107356098846115d8565b509392505050565b60006106868260405180606001604052806029815260200161423260299139609891906115f4565b609f8054604080516020601f60026000196101006001881615020190951694909404938401819004810282018101909252828152606093909290918301828280156104b75780601f1061048c576101008083540402835291602001916104b7565b60006001600160a01b03821661080d5760405162461bcd60e51b815260040180806020018281038252602a815260200180614208602a913960400191505060405180910390fd5b6001600160a01b038216600090815260976020526040902061068690611304565b610836611292565b6001600160a01b0316610847610b36565b6001600160a01b0316146108a2576040805162461bcd60e51b815260206004820181905260248201527f4f776e61626c653a2063616c6c6572206973206e6f7420746865206f776e6572604482015290519081900360640190fd5b6033546040516000916001600160a01b0316907f8be0079c531659141344cd1fd0a4f28419497f9722a3daafe3b4186f6b6457e0908390a3603380546001600160a01b0319169055565b60606101946000838152602001908152602001600020805480602002602001604051908101604052809291908181526020016000905b8282101561097157600084815260209081902060408051808201909152908401546001600160a01b0381168252600160a01b90046001600160601b031681830152825260019092019101610922565b505050509050919050565b610193602052816000526040600020818154811061099957600080fd5b6000918252602090912001546001600160a01b0381169250600160a01b90046001600160601b0316905082565b600054610100900460ff16806109df57506109df61160b565b806109ed575060005460ff16155b610a285760405162461bcd60e51b815260040180806020018281038252602e81526020018061425b602e913960400191505060405180910390fd5b600054610100900460ff16158015610a53576000805460ff1961ff0019909116610100171660011790555b610a5c8461161c565b610a6461162f565b610a6c6116e0565b610a74611780565b610a7c61181d565b610a846116e0565b610a8c611916565b610a95836119e5565b610a9d611aac565b610aa78686611b49565b60005b8251811015610ad957610ad1838281518110610ac257fe5b60200260200101516001610ba6565b600101610aaa565b507fc53a23ea7aa41db6061b8e5461b1021c843b706b65911463121c3e33593c143d610b03611292565b8787604051610b1493929190613e29565b60405180910390a18015610b2e576000805461ff00191690555b505050505050565b6033546001600160a01b031690565b609d8054604080516020601f60026000196101006001881615020190951694909404938401819004810282018101909252828152606093909290918301828280156104b75780601f1061048c576101008083540402835291602001916104b7565b610bae611292565b6001600160a01b0316826001600160a01b03161415610c14576040805162461bcd60e51b815260206004820152601960248201527f4552433732313a20617070726f766520746f2063616c6c657200000000000000604482015290519081900360640190fd5b80609b6000610c21611292565b6001600160a01b03908116825260208083019390935260409182016000908120918716808252919093529120805460ff191692151592909217909155610c65611292565b6001600160a01b03167f17307eab39ab6107e8899845ad3d59bd9653f200f220920489ca2b5937696c318360405180821515815260200191505060405180910390a35050565b8160400151600081518110610cbc57fe5b6020026020010151600001516001600160a01b0316610cd9610b36565b6001600160a01b031614610d085760405162461bcd60e51b8152600401610cff90613eb2565b60405180910390fd5b610d128282611c44565b5050565b610d27610d21611292565b8361130f565b610d625760405162461bcd60e51b815260040180806020018281038252603181526020018061439e6031913960400191505060405180910390fd5b610d6e84848484611dc6565b50505050565b60008181526101936020908152604080832080548251818502810185019093528083526060949293919290918401821561097157600084815260209081902060408051808201909152908401546001600160a01b0381168252600160a01b90046001600160601b031681830152825260019092019101610922565b6060610dfa82611285565b610e355760405162461bcd60e51b815260040180806020018281038252602f81526020018061434e602f913960400191505060405180910390fd5b6000828152609e602090815260408083208054825160026001831615610100026000190190921691909104601f810185900485028201850190935282815292909190830182828015610ec85780601f10610e9d57610100808354040283529160200191610ec8565b820191906000526020600020905b815481529060010190602001808311610eab57829003601f168201915b505050505090506000610ed9610765565b9050805160001415610eed57509050610426565b815115610fae5780826040516020018083805190602001908083835b60208310610f285780518252601f199092019160209182019101610f09565b51815160209384036101000a600019018019909216911617905285519190930192850191508083835b60208310610f705780518252601f199092019160209182019101610f51565b6001836020036101000a0380198251168184511680821785525050505050509050019250505060405160208183030381529060405292505050610426565b80610fb885611e18565b6040516020018083805190602001908083835b60208310610fea5780518252601f199092019160209182019101610fcb565b51815160209384036101000a600019018019909216911617905285519190930192850191508083835b602083106110325780518252601f199092019160209182019101611013565b6001836020036101000a0380198251168184511680821785525050505050509050019250505060405160208183030381529060405292505050919050565b816001600160a01b0316611082611292565b6001600160a01b0316146110a85760405162461bcd60e51b8152600401610cff90613f49565b6105f4838383611ef3565b6101c7805460408051602060026001851615610100026000190190941693909304601f8101849004840282018401909252818152929183018282801561113a5780601f1061110f5761010080835404028352916020019161113a565b820191906000526020600020905b81548152906001019060200180831161111d57829003601f168201915b505050505081565b6001600160a01b039182166000908152609b6020908152604080832093909416825291909152205460ff1690565b611178611292565b6001600160a01b0316611189610b36565b6001600160a01b0316146111e4576040805162461bcd60e51b815260206004820181905260248201527f4f776e61626c653a2063616c6c6572206973206e6f7420746865206f776e6572604482015290519081900360640190fd5b6001600160a01b0381166112295760405162461bcd60e51b81526004018080602001828103825260268152602001806141126026913960400191505060405180910390fd5b6033546040516001600160a01b038084169216907f8be0079c531659141344cd1fd0a4f28419497f9722a3daafe3b4186f6b6457e090600090a3603380546001600160a01b0319166001600160a01b0392909216919091179055565b6000610686609883611f9f565b3390565b6000818152609a6020526040902080546001600160a01b0319166001600160a01b03841690811790915581906112cb8261073d565b6001600160a01b03167f8c5be1e5ebec7d5bd14f71427d1e84f3dd0314c0f7b2291e5b200ac8c7c3b92560405160405180910390a45050565b600061068682611fab565b600061131a82611285565b6113555760405162461bcd60e51b815260040180806020018281038252602c8152602001806141a4602c913960400191505060405180910390fd5b60006113608361073d565b9050806001600160a01b0316846001600160a01b0316148061139b5750836001600160a01b0316611390846104c1565b6001600160a01b0316145b806113ab57506113ab8185611142565b949350505050565b826001600160a01b03166113c68261073d565b6001600160a01b03161461140b5760405162461bcd60e51b81526004018080602001828103825260298152602001806143256029913960400191505060405180910390fd5b6001600160a01b0382166114505760405162461bcd60e51b81526004018080602001828103825260248152602001806141386024913960400191505060405180910390fd5b61145b8383836105f4565b611466600082611296565b6001600160a01b03831660009081526097602052604090206114889082611faf565b506001600160a01b03821660009081526097602052604090206114ab9082611fbb565b506114b860988284611fc7565b5080826001600160a01b0316846001600160a01b03167fddf252ad1be2c89b69c2b068fc378daa952ba7f163c4a11628f55a4df523b3ef60405160405180910390a4505050565b60006106838383611fdd565b60006115168261073d565b9050611524816000846105f4565b61152f600083611296565b6000828152609e6020526040902054600260001961010060018416150201909116041561156d576000828152609e6020526040812061156d9161368b565b6001600160a01b038116600090815260976020526040902061158f9083611faf565b5061159b609883612041565b5060405182906000906001600160a01b038416907fddf252ad1be2c89b69c2b068fc378daa952ba7f163c4a11628f55a4df523b3ef908390a45050565b60008080806115e7868661204d565b9097909650945050505050565b60006116018484846120c8565b90505b9392505050565b600061161630612192565b15905090565b8051610d1290609f9060208401906136cf565b600054610100900460ff1680611648575061164861160b565b80611656575060005460ff16155b6116915760405162461bcd60e51b815260040180806020018281038252602e81526020018061425b602e913960400191505060405180910390fd5b600054610100900460ff161580156116bc576000805460ff1961ff0019909116610100171660011790555b6116cc638486f69f60e01b612198565b8015610724576000805461ff001916905550565b600054610100900460ff16806116f957506116f961160b565b80611707575060005460ff16155b6117425760405162461bcd60e51b815260040180806020018281038252602e81526020018061425b602e913960400191505060405180910390fd5b600054610100900460ff161580156116cc576000805460ff1961ff0019909116610100171660011790558015610724576000805461ff001916905550565b600054610100900460ff1680611799575061179961160b565b806117a7575060005460ff16155b6117e25760405162461bcd60e51b815260040180806020018281038252602e81526020018061425b602e913960400191505060405180910390fd5b600054610100900460ff1615801561180d576000805460ff1961ff0019909116610100171660011790555b6116cc6301ffc9a760e01b612198565b600054610100900460ff1680611836575061183661160b565b80611844575060005460ff16155b61187f5760405162461bcd60e51b815260040180806020018281038252602e81526020018061425b602e913960400191505060405180910390fd5b600054610100900460ff161580156118aa576000805460ff1961ff0019909116610100171660011790555b60006118b4611292565b603380546001600160a01b0319166001600160a01b038316908117909155604051919250906000907f8be0079c531659141344cd1fd0a4f28419497f9722a3daafe3b4186f6b6457e0908290a3508015610724576000805461ff001916905550565b600054610100900460ff168061192f575061192f61160b565b8061193d575060005460ff16155b6119785760405162461bcd60e51b815260040180806020018281038252602e81526020018061425b602e913960400191505060405180910390fd5b600054610100900460ff161580156119a3576000805460ff1961ff0019909116610100171660011790555b6116cc604051806040016040528060078152602001664d696e7437323160c81b815250604051806040016040528060018152602001603160f81b81525061221c565b600054610100900460ff16806119fe57506119fe61160b565b80611a0c575060005460ff16155b611a475760405162461bcd60e51b815260040180806020018281038252602e81526020018061425b602e913960400191505060405180910390fd5b600054610100900460ff16158015611a72576000805460ff1961ff0019909116610100171660011790555b8151611a86906101c79060208501906136cf565b50611a9763e8a3d48560e01b612198565b8015610d12576000805461ff00191690555050565b600054610100900460ff1680611ac55750611ac561160b565b80611ad3575060005460ff16155b611b0e5760405162461bcd60e51b815260040180806020018281038252602e81526020018061425b602e913960400191505060405180910390fd5b600054610100900460ff16158015611b39576000805460ff1961ff0019909116610100171660011790555b6116cc631131d2f360e21b612198565b600054610100900460ff1680611b625750611b6261160b565b80611b70575060005460ff16155b611bab5760405162461bcd60e51b815260040180806020018281038252602e81526020018061425b602e913960400191505060405180910390fd5b600054610100900460ff16158015611bd6576000805460ff1961ff0019909116610100171660011790555b8251611be990609c9060208601906136cf565b508151611bfd90609d9060208501906136cf565b50611c0e6380ac58cd60e01b612198565b611c1e635b5e139f60e01b612198565b611c2e63780e9d6360e01b612198565b80156105f4576000805461ff0019169055505050565b815160601c6000611c53611292565b90508360400151600081518110611c6657fe5b6020026020010151600001516001600160a01b0316826001600160a01b031614611ca25760405162461bcd60e51b8152600401610cff90613f1e565b83608001515184604001515114611cb857600080fd5b806001600160a01b0316826001600160a01b03161480611cdd5750611cdd8282611142565b611cf95760405162461bcd60e51b8152600401610cff90613fa5565b6000611d04856122b3565b905060005b856040015151811015611d7a57600086604001518281518110611d2857fe5b6020026020010151600001519050836001600160a01b0316816001600160a01b031614611d7157611d71818489608001518581518110611d6457fe5b60200260200101516124fc565b50600101611d09565b50611d89848660000151612507565b611d9b85600001518660600151612635565b611dad856000015186604001516127bb565b611dbf8560000151866020015161296a565b5050505050565b611dd18484846113b3565b611ddd848484846129cd565b610d6e5760405162461bcd60e51b81526004018080602001828103825260328152602001806140e06032913960400191505060405180910390fd5b606081611e3d57506040805180820190915260018152600360fc1b6020820152610426565b8160005b8115611e5557600101600a82049150611e41565b60008167ffffffffffffffff81118015611e6e57600080fd5b506040519080825280601f01601f191660200182016040528015611e99576020820181803683370190505b50859350905060001982015b8315611eea57600a840660300160f81b82828060019003935081518110611ec857fe5b60200101906001600160f81b031916908160001a905350600a84049350611ea5565b50949350505050565b60008381526101936020526040812054905b81811015611dbf5760008581526101936020526040902080546001600160a01b038616919083908110611f3457fe5b6000918252602090912001546001600160a01b03161415611f9757600085815261019360205260409020805484919083908110611f6d57fe5b600091825260209091200180546001600160a01b0319166001600160a01b03929092169190911790555b600101611f05565b60006106838383612b35565b5490565b60006106838383612b4d565b60006106838383612c13565b600061160184846001600160a01b038516612c5d565b8154600090821061201f5760405162461bcd60e51b81526004018080602001828103825260228152602001806140be6022913960400191505060405180910390fd5b82600001828154811061202e57fe5b9060005260206000200154905092915050565b60006106838383612cf4565b8154600090819083106120915760405162461bcd60e51b81526004018080602001828103825260228152602001806142ab6022913960400191505060405180910390fd5b60008460000184815481106120a257fe5b906000526020600020906002020190508060000154816001015492509250509250929050565b600082815260018401602052604081205482816121635760405162461bcd60e51b81526004018080602001828103825283818151815260200191508051906020019080838360005b83811015612128578181015183820152602001612110565b50505050905090810190601f1680156121555780820380516001836020036101000a031916815260200191505b509250505060405180910390fd5b5084600001600182038154811061217657fe5b9060005260206000209060020201600101549150509392505050565b3b151590565b6001600160e01b031980821614156121f7576040805162461bcd60e51b815260206004820152601c60248201527f4552433136353a20696e76616c696420696e7465726661636520696400000000604482015290519081900360640190fd5b6001600160e01b0319166000908152606560205260409020805460ff19166001179055565b600054610100900460ff1680612235575061223561160b565b80612243575060005460ff16155b61227e5760405162461bcd60e51b815260040180806020018281038252602e81526020018061425b602e913960400191505060405180910390fd5b600054610100900460ff161580156122a9576000805460ff1961ff0019909116610100171660011790555b611c2e8383612dc8565b60008082606001515167ffffffffffffffff811180156122d257600080fd5b506040519080825280602002602001820160405280156122fc578160200160208202803683370190505b50905060005b83606001515181101561234e5761232f8460600151828151811061232257fe5b6020026020010151612e88565b82828151811061233b57fe5b6020908102919091010152600101612302565b50600083604001515167ffffffffffffffff8111801561236d57600080fd5b50604051908082528060200260200182016040528015612397578160200160208202803683370190505b50905060005b8460400151518110156123dc576123bd8560400151828151811061232257fe5b8282815181106123c957fe5b602090810291909101015260010161239d565b507ff64326045af5fd7e15297ba939f85b550474d3899daa47d2bc1ffbdb9ced344e84600001518560200151805190602001208360405160200180828051906020019060200280838360005b83811015612440578181015183820152602001612428565b50505050905001915050604051602081830303815290604052805190602001208560405160200180828051906020019060200280838360005b83811015612491578181015183820152602001612479565b505050509050019150506040516020818303038152906040528051906020012060405160200180868152602001858152602001848152602001838152602001828152602001955050505050506040516020818303038152906040528051906020012092505050919050565b6105f4838383612ef5565b6001600160a01b038216612562576040805162461bcd60e51b815260206004820181905260248201527f4552433732313a206d696e7420746f20746865207a65726f2061646472657373604482015290519081900360640190fd5b61256b81611285565b156125bd576040805162461bcd60e51b815260206004820152601c60248201527f4552433732313a20746f6b656e20616c7265616479206d696e74656400000000604482015290519081900360640190fd5b6125c9600083836105f4565b6001600160a01b03821660009081526097602052604090206125eb9082611fbb565b506125f860988284611fc7565b5060405181906001600160a01b038416906000907fddf252ad1be2c89b69c2b068fc378daa952ba7f163c4a11628f55a4df523b3ef908290a45050565b60005b81518110156127b05760006001600160a01b031682828151811061265857fe5b6020026020010151600001516001600160a01b031614156126c0576040805162461bcd60e51b815260206004820152601b60248201527f526563697069656e742073686f756c642062652070726573656e740000000000604482015290519081900360640190fd5b8181815181106126cc57fe5b6020026020010151602001516001600160601b031660001415612736576040805162461bcd60e51b815260206004820181905260248201527f526f79616c74792076616c75652073686f756c6420626520706f736974697665604482015290519081900360640190fd5b600083815261019360205260409020825183908390811061275357fe5b60209081029190910181015182546001818101855560009485529383902082519101805492909301516001600160601b0316600160a01b026001600160a01b039182166001600160a01b0319909316929092171617905501612638565b50610d12828261312d565b60008281526101946020526040812090805b83518110156129095760006001600160a01b03168482815181106127ed57fe5b6020026020010151600001516001600160a01b031614156128205760405162461bcd60e51b8152600401610cff90613f6e565b83818151811061282c57fe5b6020026020010151602001516001600160601b0316600014156128615760405162461bcd60e51b8152600401610cff90613ee9565b8284828151811061286e57fe5b602090810291909101810151825460018101845560009384529282902081519301805491909201516001600160601b0316600160a01b026001600160a01b039384166001600160a01b03199092169190911790921691909117905583516128ff908590839081106128db57fe5b6020026020010151602001516001600160601b03168361316a90919063ffffffff16565b91506001016127cd565b50806127101461292b5760405162461bcd60e51b8152600401610cff90613ff6565b7f841ffb90d4cabdd1f16034f3fa831d79060febbb8167bdd54a49269365bdf78f848460405161295c92919061404d565b60405180910390a150505050565b61297382611285565b6129ae5760405162461bcd60e51b815260040180806020018281038252602c8152602001806142f9602c913960400191505060405180910390fd5b6000828152609e6020908152604090912082516105f4928401906136cf565b60006129e1846001600160a01b0316612192565b6129ed575060016113ab565b6000612afb630a85bd0160e11b612a02611292565b88878760405160240180856001600160a01b03168152602001846001600160a01b0316815260200183815260200180602001828103825283818151815260200191508051906020019080838360005b83811015612a69578181015183820152602001612a51565b50505050905090810190601f168015612a965780820380516001836020036101000a031916815260200191505b5095505050505050604051602081830303815290604052906001600160e01b0319166020820180516001600160e01b0383818316178352505050506040518060600160405280603281526020016140e0603291396001600160a01b03881691906131c4565b90506000818060200190516020811015612b1457600080fd5b50516001600160e01b031916630a85bd0160e11b1492505050949350505050565b60009081526001919091016020526040902054151590565b60008181526001830160205260408120548015612c095783546000198083019190810190600090879083908110612b8057fe5b9060005260206000200154905080876000018481548110612b9d57fe5b600091825260208083209091019290925582815260018981019092526040902090840190558654879080612bcd57fe5b60019003818190600052602060002001600090559055866001016000878152602001908152602001600020600090556001945050505050610686565b6000915050610686565b6000612c1f8383612b35565b612c5557508154600181810184556000848152602080822090930184905584548482528286019093526040902091909155610686565b506000610686565b600082815260018401602052604081205480612cc2575050604080518082018252838152602080820184815286546001818101895560008981528481209551600290930290950191825591519082015586548684528188019092529290912055611604565b82856000016001830381548110612cd557fe5b9060005260206000209060020201600101819055506000915050611604565b60008181526001830160205260408120548015612c095783546000198083019190810190600090879083908110612d2757fe5b9060005260206000209060020201905080876000018481548110612d4757fe5b600091825260208083208454600290930201918255600193840154918401919091558354825289830190526040902090840190558654879080612d8657fe5b60008281526020808220600260001990940193840201828155600190810183905592909355888152898201909252604082209190915594506106869350505050565b600054610100900460ff1680612de15750612de161160b565b80612def575060005460ff16155b612e2a5760405162461bcd60e51b815260040180806020018281038252602e81526020018061425b602e913960400191505060405180910390fd5b600054610100900460ff16158015612e55576000805460ff1961ff0019909116610100171660011790555b825160208085019190912083519184019190912060fb9190915560fc5580156105f4576000805461ff0019169055505050565b8051602091820151604080517f397e04204c1e1a60ee8724b71f8244e10ab5f2e9009854d80f602bda21b59ebb818601526001600160a01b03909316838201526001600160601b039091166060808401919091528151808403909101815260809092019052805191012090565b6000612f00836131d3565b9050612f14846001600160a01b0316612192565b1561308d5760408051630b135d3f60e11b808252600482018481526024830193845285516044840152855191936001600160a01b03891693631626ba7e938793899390929091606490910190602085019080838360005b83811015612f83578181015183820152602001612f6b565b50505050905090810190601f168015612fb05780820380516001836020036101000a031916815260200191505b50935050505060206040518083038186803b158015612fce57600080fd5b505afa158015612fe2573d6000803e3d6000fd5b505050506040513d6020811015612ff857600080fd5b505160408051808201909152601c81527f7369676e617475726520766572696669636174696f6e206572726f72000000006020820152916001600160e01b0319909116146130875760405162461bcd60e51b8152602060048201818152835160248401528351909283926044909101919085019080838360008315612128578181015183820152602001612110565b50610d6e565b6001600160a01b0384166130a1828461321f565b6001600160a01b0316146040518060400160405280601c81526020017f7369676e617475726520766572696669636174696f6e206572726f720000000081525090611dbf5760405162461bcd60e51b8152602060048201818152835160248401528351909283926044909101919085019080838360008315612128578181015183820152602001612110565b7f3fa96d7b6bcbfe71ef171666d84db3cf52fa2d1c8afdb1cc8e486177f208b7df828260405161315e92919061404d565b60405180910390a15050565b600082820183811015610683576040805162461bcd60e51b815260206004820152601b60248201527f536166654d6174683a206164646974696f6e206f766572666c6f770000000000604482015290519081900360640190fd5b6060611601848460008561329f565b60006131dd6133fa565b82604051602001808061190160f01b81525060020183815260200182815260200192505050604051602081830303815290604052805190602001209050919050565b60008151604114613277576040805162461bcd60e51b815260206004820152601f60248201527f45434453413a20696e76616c6964207369676e6174757265206c656e67746800604482015290519081900360640190fd5b60208201516040830151606084015160001a61329586828585613435565b9695505050505050565b6060824710156132e05760405162461bcd60e51b815260040180806020018281038252602681526020018061417e6026913960400191505060405180910390fd5b6132e985612192565b61333a576040805162461bcd60e51b815260206004820152601d60248201527f416464726573733a2063616c6c20746f206e6f6e2d636f6e7472616374000000604482015290519081900360640190fd5b600080866001600160a01b031685876040518082805190602001908083835b602083106133785780518252601f199092019160209182019101613359565b6001836020036101000a03801982511681845116808217855250505050505090500191505060006040518083038185875af1925050503d80600081146133da576040519150601f19603f3d011682016040523d82523d6000602084013e6133df565b606091505b50915091506133ef8282866135b3565b979650505050505050565b60006106057f8b73c3c69bb8fe3d512ecc4cf759cc79239f7b179b0ffacaa9a75d522b39400f613428613619565b61343061361f565b613625565b60007f7fffffffffffffffffffffffffffffff5d576e7357a4501ddfe92f46681b20a08211156134965760405162461bcd60e51b815260040180806020018281038252602281526020018061415c6022913960400191505060405180910390fd5b8360ff16601b14806134ab57508360ff16601c145b6134e65760405162461bcd60e51b81526004018080602001828103825260228152602001806142896022913960400191505060405180910390fd5b600060018686868660405160008152602001604052604051808581526020018460ff1681526020018381526020018281526020019450505050506020604051602081039080840390855afa158015613542573d6000803e3d6000fd5b5050604051601f1901519150506001600160a01b0381166135aa576040805162461bcd60e51b815260206004820152601860248201527f45434453413a20696e76616c6964207369676e61747572650000000000000000604482015290519081900360640190fd5b95945050505050565b606083156135c2575081611604565b8251156135d25782518084602001fd5b60405162461bcd60e51b8152602060048201818152845160248401528451859391928392604401919085019080838360008315612128578181015183820152602001612110565b60fb5490565b60fc5490565b6000838383613632613687565b3060405160200180868152602001858152602001848152602001838152602001826001600160a01b03168152602001955050505050506040516020818303038152906040528051906020012090509392505050565b4690565b50805460018160011615610100020316600290046000825580601f106136b15750610724565b601f016020900490600052602060002090810190610724919061375b565b828054600181600116156101000203166002900490600052602060002090601f016020900481019282613705576000855561374b565b82601f1061371e57805160ff191683800117855561374b565b8280016001018555821561374b579182015b8281111561374b578251825591602001919060010190613730565b5061375792915061375b565b5090565b5b80821115613757576000815560010161375c565b600082601f830112613780578081fd5b813560206137956137908361408a565b614066565b82815281810190858301838502870184018810156137b1578586fd5b855b858110156137d85781356137c6816140a8565b845292840192908401906001016137b3565b5090979650505050505050565b600082601f8301126137f5578081fd5b813560206138056137908361408a565b82815281810190858301855b858110156137d857613828898684358b01016138f6565b84529284019290840190600101613811565b600082601f83011261384a578081fd5b8135602061385a6137908361408a565b82815281810190858301604080860288018501891015613878578687fd5b865b868110156138e85781838b031215613890578788fd5b815182810181811067ffffffffffffffff821117156138ab57fe5b835283356138b8816140a8565b8152838701356001600160601b03811681146138d257898afd5b818801528552938501939181019160010161387a565b509198975050505050505050565b600082601f830112613906578081fd5b813567ffffffffffffffff81111561391a57fe5b61392d601f8201601f1916602001614066565b818152846020838601011115613941578283fd5b816020850160208301379081016020019190915292915050565b600060a0828403121561396c578081fd5b61397660a0614066565b905081358152602082013567ffffffffffffffff8082111561399757600080fd5b6139a3858386016138f6565b602084015260408401359150808211156139bc57600080fd5b6139c88583860161383a565b604084015260608401359150808211156139e157600080fd5b6139ed8583860161383a565b60608401526080840135915080821115613a0657600080fd5b50613a13848285016137e5565b60808301525092915050565b600060208284031215613a30578081fd5b8135610683816140a8565b60008060408385031215613a4d578081fd5b8235613a58816140a8565b91506020830135613a68816140a8565b809150509250929050565b600080600060608486031215613a87578081fd5b8335613a92816140a8565b92506020840135613aa2816140a8565b929592945050506040919091013590565b60008060008060808587031215613ac8578081fd5b8435613ad3816140a8565b93506020850135613ae3816140a8565b925060408501359150606085013567ffffffffffffffff811115613b05578182fd5b613b11878288016138f6565b91505092959194509250565b60008060408385031215613b2f578182fd5b8235613b3a816140a8565b915060208301358015158114613a68578182fd5b60008060408385031215613b60578182fd5b8235613b6b816140a8565b946020939093013593505050565b600060208284031215613b8a578081fd5b81356001600160e01b031981168114610683578182fd5b600080600080600060a08688031215613bb8578283fd5b853567ffffffffffffffff80821115613bcf578485fd5b613bdb89838a016138f6565b96506020880135915080821115613bf0578485fd5b613bfc89838a016138f6565b95506040880135915080821115613c11578485fd5b613c1d89838a016138f6565b94506060880135915080821115613c32578283fd5b613c3e89838a016138f6565b93506080880135915080821115613c53578283fd5b50613c6088828901613770565b9150509295509295909350565b60008060408385031215613c7f578182fd5b823567ffffffffffffffff811115613c95578283fd5b613ca18582860161395b565b9250506020830135613a68816140a8565b600080600060608486031215613cc6578081fd5b833567ffffffffffffffff811115613cdc578182fd5b613ce88682870161395b565b9350506020840135613cf9816140a8565b91506040840135613d09816140a8565b809150509250925092565b600060208284031215613d25578081fd5b5035919050565b600080600060608486031215613d40578081fd5b833592506020840135613cf9816140a8565b60008060408385031215613d64578182fd5b50508035926020909101359150565b6000815180845260208085019450808401835b83811015613dbf57815180516001600160a01b031688528301516001600160601b03168388015260409096019590820190600101613d86565b509495945050505050565b60008151808452815b81811015613def57602081850181015186830182015201613dd3565b81811115613e005782602083870101525b50601f01601f19169290920160200192915050565b6001600160a01b0391909116815260200190565b6001600160a01b0384168152606060208201819052600090613e4d90830185613dca565b82810360408401526132958185613dca565b6001600160a01b039290921682526001600160601b0316602082015260400190565b6000602082526106836020830184613d73565b901515815260200190565b6000602082526106836020830184613dca565b60208082526017908201527f6d696e746572206973206e6f7420746865206f776e6572000000000000000000604082015260600190565b6020808252818101527f43726561746f722073686172652073686f756c6420626520706f736974697665604082015260600190565b6020808252601190820152701d1bdad95b9259081a5b98dbdc9c9958dd607a1b604082015260600190565b6020808252600b908201526a1b9bdd08185b1b1bddd95960aa1b604082015260600190565b60208082526019908201527f4163636f756e742073686f756c642062652070726573656e7400000000000000604082015260600190565b60208082526031908201527f4552433732313a207472616e736665722063616c6c6572206973206e6f74206f6040820152701ddb995c881b9bdc88185c1c1c9bdd9959607a1b606082015260800190565b6020808252602e908201527f746f74616c20616d6f756e74206f662063726561746f7273207368617265207360408201526d0686f756c642062652031303030360941b606082015260800190565b90815260200190565b6000838252604060208301526116016040830184613d73565b60405181810167ffffffffffffffff8111828210171561408257fe5b604052919050565b600067ffffffffffffffff82111561409e57fe5b5060209081020190565b6001600160a01b038116811461072457600080fdfe456e756d657261626c655365743a20696e646578206f7574206f6620626f756e64734552433732313a207472616e7366657220746f206e6f6e20455243373231526563656976657220696d706c656d656e7465724f776e61626c653a206e6577206f776e657220697320746865207a65726f20616464726573734552433732313a207472616e7366657220746f20746865207a65726f206164647265737345434453413a20696e76616c6964207369676e6174757265202773272076616c7565416464726573733a20696e73756666696369656e742062616c616e636520666f722063616c6c4552433732313a206f70657261746f7220717565727920666f72206e6f6e6578697374656e7420746f6b656e4552433732313a20617070726f76652063616c6c6572206973206e6f74206f776e6572206e6f7220617070726f76656420666f7220616c6c4552433732313a2062616c616e636520717565727920666f7220746865207a65726f20616464726573734552433732313a206f776e657220717565727920666f72206e6f6e6578697374656e7420746f6b656e496e697469616c697a61626c653a20636f6e747261637420697320616c726561647920696e697469616c697a656445434453413a20696e76616c6964207369676e6174757265202776272076616c7565456e756d657261626c654d61703a20696e646578206f7574206f6620626f756e64734552433732313a20617070726f76656420717565727920666f72206e6f6e6578697374656e7420746f6b656e4552433732314d657461646174613a2055524920736574206f66206e6f6e6578697374656e7420746f6b656e4552433732313a207472616e73666572206f6620746f6b656e2074686174206973206e6f74206f776e4552433732314d657461646174613a2055524920717565727920666f72206e6f6e6578697374656e7420746f6b656e4552433732313a20617070726f76616c20746f2063757272656e74206f776e65724552433732313a207472616e736665722063616c6c6572206973206e6f74206f776e6572206e6f7220617070726f7665644552433732314275726e61626c653a2063616c6c6572206973206e6f74206f776e6572206e6f7220617070726f766564a2646970667358221220d54f257847700d6f9f2d7e6085c8b935d007f27328a6be4d0b925b79b4ee37e464736f6c63430007060033",
  "immutableReferences": {},
  "source": "// SPDX-License-Identifier: MIT\n\npragma solidity >=0.6.2 <0.8.0;\npragma abicoder v2;\n\nimport \"@openzeppelin/contracts-upgradeable/access/OwnableUpgradeable.sol\";\nimport \"@openzeppelin/contracts-upgradeable/token/ERC721/ERC721BurnableUpgradeable.sol\";\nimport \"./ERC721Lazy.sol\";\nimport \"../HasContractURI.sol\";\n\ncontract ERC721User is OwnableUpgradeable, ERC721BurnableUpgradeable, ERC721Lazy, HasContractURI {\n\n    event CreateERC721User(address owner, string name, string symbol);\n\n    function __ERC721WallUser_init(string memory _name, string memory _symbol, string memory baseURI, string memory contractURI, address[] memory operators) external initializer {\n        _setBaseURI(baseURI);\n        __ERC721Lazy_init_unchained();\n        __Context_init_unchained();\n        __ERC165_init_unchained();\n        __Ownable_init_unchained();\n        __ERC721Burnable_init_unchained();\n        __Mint721Validator_init_unchained();\n        __HasContractURI_init_unchained(contractURI);\n        __RoyaltiesVersion2Upgrade_init_unchained();\n        __ERC721_init_unchained(_name, _symbol);\n        for(uint i = 0; i < operators.length; i++) {\n            setApprovalForAll(operators[i], true);\n        }\n        emit CreateERC721User(_msgSender(), _name, _symbol);\n    }\n\n    function mintAndTransferTo(LibERC721LazyMint.Mint721Data memory data, address to) public override virtual {\n        require(owner() == data.creators[0].account, \"minter is not the owner\");\n        super.mintAndTransferTo(data, to);\n    }\n    uint256[50] private __gap;\n}\n",
  "sourcePath": "/home/aniketdixit/Documents/wallappsendthis/contracts/tokens/contracts/erc-721/ERC721User.sol",
  "compiler": {
    "name": "solc",
    "version": "0.7.6+commit.7338295f.Emscripten.clang"
  },
  "schemaVersion": "3.4.1",
  "updatedAt": "2021-07-07T08:25:44.233Z",
  "devdoc": {
    "kind": "dev",
    "methods": {
      "approve(address,uint256)": {
        "details": "See {IERC721-approve}."
      },
      "balanceOf(address)": {
        "details": "See {IERC721-balanceOf}."
      },
      "baseURI()": {
        "details": "Returns the base URI set via {_setBaseURI}. This will be automatically added as a prefix in {tokenURI} to each token's URI, or to the token ID if no specific URI is set for that token ID."
      },
      "burn(uint256)": {
        "details": "Burns `tokenId`. See {ERC721-_burn}. Requirements: - The caller must own `tokenId` or be an approved operator."
      },
      "getApproved(uint256)": {
        "details": "See {IERC721-getApproved}."
      },
      "isApprovedForAll(address,address)": {
        "details": "See {IERC721-isApprovedForAll}."
      },
      "name()": {
        "details": "See {IERC721Metadata-name}."
      },
      "owner()": {
        "details": "Returns the address of the current owner."
      },
      "ownerOf(uint256)": {
        "details": "See {IERC721-ownerOf}."
      },
      "renounceOwnership()": {
        "details": "Leaves the contract without owner. It will not be possible to call `onlyOwner` functions anymore. Can only be called by the current owner. NOTE: Renouncing ownership will leave the contract without an owner, thereby removing any functionality that is only available to the owner."
      },
      "safeTransferFrom(address,address,uint256)": {
        "details": "See {IERC721-safeTransferFrom}."
      },
      "safeTransferFrom(address,address,uint256,bytes)": {
        "details": "See {IERC721-safeTransferFrom}."
      },
      "setApprovalForAll(address,bool)": {
        "details": "See {IERC721-setApprovalForAll}."
      },
      "supportsInterface(bytes4)": {
        "details": "See {IERC165-supportsInterface}. Time complexity O(1), guaranteed to always use less than 30 000 gas."
      },
      "symbol()": {
        "details": "See {IERC721Metadata-symbol}."
      },
      "tokenByIndex(uint256)": {
        "details": "See {IERC721Enumerable-tokenByIndex}."
      },
      "tokenOfOwnerByIndex(address,uint256)": {
        "details": "See {IERC721Enumerable-tokenOfOwnerByIndex}."
      },
      "tokenURI(uint256)": {
        "details": "See {IERC721Metadata-tokenURI}."
      },
      "totalSupply()": {
        "details": "See {IERC721Enumerable-totalSupply}."
      },
      "transferFrom(address,address,uint256)": {
        "details": "See {IERC721-transferFrom}."
      },
      "transferOwnership(address)": {
        "details": "Transfers ownership of the contract to a new account (`newOwner`). Can only be called by the current owner."
      }
    },
    "version": 1
  },
  "userdoc": {
    "kind": "user",
    "methods": {},
    "version": 1
  }
}