{
  "contractName": "ERC721Wall",
  "abi": [
    {
      "anonymous": false,
      "inputs": [
        {
          "indexed": true,
          "internalType": "address",
          "name": "owner",
          "type": "address"
        },
        {
          "indexed": true,
          "internalType": "address",
          "name": "approved",
          "type": "address"
        },
        {
          "indexed": true,
          "internalType": "uint256",
          "name": "tokenId",
          "type": "uint256"
        }
      ],
      "name": "Approval",
      "type": "event"
    },
    {
      "anonymous": false,
      "inputs": [
        {
          "indexed": true,
          "internalType": "address",
          "name": "owner",
          "type": "address"
        },
        {
          "indexed": true,
          "internalType": "address",
          "name": "operator",
          "type": "address"
        },
        {
          "indexed": false,
          "internalType": "bool",
          "name": "approved",
          "type": "bool"
        }
      ],
      "name": "ApprovalForAll",
      "type": "event"
    },
    {
      "anonymous": false,
      "inputs": [
        {
          "indexed": false,
          "internalType": "address",
          "name": "owner",
          "type": "address"
        },
        {
          "indexed": false,
          "internalType": "string",
          "name": "name",
          "type": "string"
        },
        {
          "indexed": false,
          "internalType": "string",
          "name": "symbol",
          "type": "string"
        }
      ],
      "name": "CreateERC721",
      "type": "event"
    },
    {
      "anonymous": false,
      "inputs": [
        {
          "indexed": false,
          "internalType": "uint256",
          "name": "tokenId",
          "type": "uint256"
        },
        {
          "components": [
            {
              "internalType": "address payable",
              "name": "account",
              "type": "address"
            },
            {
              "internalType": "uint96",
              "name": "value",
              "type": "uint96"
            }
          ],
          "indexed": false,
          "internalType": "struct LibPart.Part[]",
          "name": "creators",
          "type": "tuple[]"
        }
      ],
      "name": "Creators",
      "type": "event"
    },
    {
      "anonymous": false,
      "inputs": [
        {
          "indexed": true,
          "internalType": "address",
          "name": "operator",
          "type": "address"
        },
        {
          "indexed": false,
          "internalType": "bool",
          "name": "hasApproval",
          "type": "bool"
        }
      ],
      "name": "DefaultApproval",
      "type": "event"
    },
    {
      "anonymous": false,
      "inputs": [
        {
          "indexed": true,
          "internalType": "address",
          "name": "previousOwner",
          "type": "address"
        },
        {
          "indexed": true,
          "internalType": "address",
          "name": "newOwner",
          "type": "address"
        }
      ],
      "name": "OwnershipTransferred",
      "type": "event"
    },
    {
      "anonymous": false,
      "inputs": [
        {
          "indexed": false,
          "internalType": "uint256",
          "name": "tokenId",
          "type": "uint256"
        },
        {
          "components": [
            {
              "internalType": "address payable",
              "name": "account",
              "type": "address"
            },
            {
              "internalType": "uint96",
              "name": "value",
              "type": "uint96"
            }
          ],
          "indexed": false,
          "internalType": "struct LibPart.Part[]",
          "name": "royalties",
          "type": "tuple[]"
        }
      ],
      "name": "RoyaltiesSet",
      "type": "event"
    },
    {
      "anonymous": false,
      "inputs": [
        {
          "indexed": true,
          "internalType": "address",
          "name": "from",
          "type": "address"
        },
        {
          "indexed": true,
          "internalType": "address",
          "name": "to",
          "type": "address"
        },
        {
          "indexed": true,
          "internalType": "uint256",
          "name": "tokenId",
          "type": "uint256"
        }
      ],
      "name": "Transfer",
      "type": "event"
    },
    {
      "inputs": [
        {
          "internalType": "address",
          "name": "to",
          "type": "address"
        },
        {
          "internalType": "uint256",
          "name": "tokenId",
          "type": "uint256"
        }
      ],
      "name": "approve",
      "outputs": [],
      "stateMutability": "nonpayable",
      "type": "function"
    },
    {
      "inputs": [
        {
          "internalType": "address",
          "name": "owner",
          "type": "address"
        }
      ],
      "name": "balanceOf",
      "outputs": [
        {
          "internalType": "uint256",
          "name": "",
          "type": "uint256"
        }
      ],
      "stateMutability": "view",
      "type": "function"
    },
    {
      "inputs": [],
      "name": "baseURI",
      "outputs": [
        {
          "internalType": "string",
          "name": "",
          "type": "string"
        }
      ],
      "stateMutability": "view",
      "type": "function"
    },
    {
      "inputs": [
        {
          "internalType": "uint256",
          "name": "tokenId",
          "type": "uint256"
        }
      ],
      "name": "burn",
      "outputs": [],
      "stateMutability": "nonpayable",
      "type": "function"
    },
    {
      "inputs": [],
      "name": "contractURI",
      "outputs": [
        {
          "internalType": "string",
          "name": "",
          "type": "string"
        }
      ],
      "stateMutability": "view",
      "type": "function"
    },
    {
      "inputs": [
        {
          "internalType": "uint256",
          "name": "tokenId",
          "type": "uint256"
        }
      ],
      "name": "getApproved",
      "outputs": [
        {
          "internalType": "address",
          "name": "",
          "type": "address"
        }
      ],
      "stateMutability": "view",
      "type": "function"
    },
    {
      "inputs": [
        {
          "internalType": "uint256",
          "name": "_id",
          "type": "uint256"
        }
      ],
      "name": "getCreators",
      "outputs": [
        {
          "components": [
            {
              "internalType": "address payable",
              "name": "account",
              "type": "address"
            },
            {
              "internalType": "uint96",
              "name": "value",
              "type": "uint96"
            }
          ],
          "internalType": "struct LibPart.Part[]",
          "name": "",
          "type": "tuple[]"
        }
      ],
      "stateMutability": "view",
      "type": "function"
    },
    {
      "inputs": [
        {
          "internalType": "uint256",
          "name": "id",
          "type": "uint256"
        }
      ],
      "name": "getRoyalties",
      "outputs": [
        {
          "components": [
            {
              "internalType": "address payable",
              "name": "account",
              "type": "address"
            },
            {
              "internalType": "uint96",
              "name": "value",
              "type": "uint96"
            }
          ],
          "internalType": "struct LibPart.Part[]",
          "name": "",
          "type": "tuple[]"
        }
      ],
      "stateMutability": "view",
      "type": "function"
    },
    {
      "inputs": [
        {
          "internalType": "address",
          "name": "owner",
          "type": "address"
        },
        {
          "internalType": "address",
          "name": "operator",
          "type": "address"
        }
      ],
      "name": "isApprovedForAll",
      "outputs": [
        {
          "internalType": "bool",
          "name": "",
          "type": "bool"
        }
      ],
      "stateMutability": "view",
      "type": "function"
    },
    {
      "inputs": [
        {
          "components": [
            {
              "internalType": "uint256",
              "name": "tokenId",
              "type": "uint256"
            },
            {
              "internalType": "string",
              "name": "uri",
              "type": "string"
            },
            {
              "components": [
                {
                  "internalType": "address payable",
                  "name": "account",
                  "type": "address"
                },
                {
                  "internalType": "uint96",
                  "name": "value",
                  "type": "uint96"
                }
              ],
              "internalType": "struct LibPart.Part[]",
              "name": "creators",
              "type": "tuple[]"
            },
            {
              "components": [
                {
                  "internalType": "address payable",
                  "name": "account",
                  "type": "address"
                },
                {
                  "internalType": "uint96",
                  "name": "value",
                  "type": "uint96"
                }
              ],
              "internalType": "struct LibPart.Part[]",
              "name": "royalties",
              "type": "tuple[]"
            },
            {
              "internalType": "bytes[]",
              "name": "signatures",
              "type": "bytes[]"
            }
          ],
          "internalType": "struct LibERC721LazyMint.Mint721Data",
          "name": "data",
          "type": "tuple"
        },
        {
          "internalType": "address",
          "name": "to",
          "type": "address"
        }
      ],
      "name": "mintAndTransferTo",
      "outputs": [],
      "stateMutability": "nonpayable",
      "type": "function"
    },
    {
      "inputs": [],
      "name": "name",
      "outputs": [
        {
          "internalType": "string",
          "name": "",
          "type": "string"
        }
      ],
      "stateMutability": "view",
      "type": "function"
    },
    {
      "inputs": [],
      "name": "owner",
      "outputs": [
        {
          "internalType": "address",
          "name": "",
          "type": "address"
        }
      ],
      "stateMutability": "view",
      "type": "function"
    },
    {
      "inputs": [
        {
          "internalType": "uint256",
          "name": "tokenId",
          "type": "uint256"
        }
      ],
      "name": "ownerOf",
      "outputs": [
        {
          "internalType": "address",
          "name": "",
          "type": "address"
        }
      ],
      "stateMutability": "view",
      "type": "function"
    },
    {
      "inputs": [],
      "name": "renounceOwnership",
      "outputs": [],
      "stateMutability": "nonpayable",
      "type": "function"
    },
    {
      "inputs": [
        {
          "internalType": "uint256",
          "name": "",
          "type": "uint256"
        },
        {
          "internalType": "uint256",
          "name": "",
          "type": "uint256"
        }
      ],
      "name": "royalties",
      "outputs": [
        {
          "internalType": "address payable",
          "name": "account",
          "type": "address"
        },
        {
          "internalType": "uint96",
          "name": "value",
          "type": "uint96"
        }
      ],
      "stateMutability": "view",
      "type": "function"
    },
    {
      "inputs": [
        {
          "internalType": "address",
          "name": "from",
          "type": "address"
        },
        {
          "internalType": "address",
          "name": "to",
          "type": "address"
        },
        {
          "internalType": "uint256",
          "name": "tokenId",
          "type": "uint256"
        }
      ],
      "name": "safeTransferFrom",
      "outputs": [],
      "stateMutability": "nonpayable",
      "type": "function"
    },
    {
      "inputs": [
        {
          "internalType": "address",
          "name": "from",
          "type": "address"
        },
        {
          "internalType": "address",
          "name": "to",
          "type": "address"
        },
        {
          "internalType": "uint256",
          "name": "tokenId",
          "type": "uint256"
        },
        {
          "internalType": "bytes",
          "name": "_data",
          "type": "bytes"
        }
      ],
      "name": "safeTransferFrom",
      "outputs": [],
      "stateMutability": "nonpayable",
      "type": "function"
    },
    {
      "inputs": [
        {
          "internalType": "address",
          "name": "operator",
          "type": "address"
        },
        {
          "internalType": "bool",
          "name": "approved",
          "type": "bool"
        }
      ],
      "name": "setApprovalForAll",
      "outputs": [],
      "stateMutability": "nonpayable",
      "type": "function"
    },
    {
      "inputs": [
        {
          "internalType": "address",
          "name": "operator",
          "type": "address"
        },
        {
          "internalType": "bool",
          "name": "hasApproval",
          "type": "bool"
        }
      ],
      "name": "setDefaultApproval",
      "outputs": [],
      "stateMutability": "nonpayable",
      "type": "function"
    },
    {
      "inputs": [
        {
          "internalType": "bytes4",
          "name": "interfaceId",
          "type": "bytes4"
        }
      ],
      "name": "supportsInterface",
      "outputs": [
        {
          "internalType": "bool",
          "name": "",
          "type": "bool"
        }
      ],
      "stateMutability": "view",
      "type": "function"
    },
    {
      "inputs": [],
      "name": "symbol",
      "outputs": [
        {
          "internalType": "string",
          "name": "",
          "type": "string"
        }
      ],
      "stateMutability": "view",
      "type": "function"
    },
    {
      "inputs": [
        {
          "internalType": "uint256",
          "name": "index",
          "type": "uint256"
        }
      ],
      "name": "tokenByIndex",
      "outputs": [
        {
          "internalType": "uint256",
          "name": "",
          "type": "uint256"
        }
      ],
      "stateMutability": "view",
      "type": "function"
    },
    {
      "inputs": [
        {
          "internalType": "address",
          "name": "owner",
          "type": "address"
        },
        {
          "internalType": "uint256",
          "name": "index",
          "type": "uint256"
        }
      ],
      "name": "tokenOfOwnerByIndex",
      "outputs": [
        {
          "internalType": "uint256",
          "name": "",
          "type": "uint256"
        }
      ],
      "stateMutability": "view",
      "type": "function"
    },
    {
      "inputs": [
        {
          "internalType": "uint256",
          "name": "tokenId",
          "type": "uint256"
        }
      ],
      "name": "tokenURI",
      "outputs": [
        {
          "internalType": "string",
          "name": "",
          "type": "string"
        }
      ],
      "stateMutability": "view",
      "type": "function"
    },
    {
      "inputs": [],
      "name": "totalSupply",
      "outputs": [
        {
          "internalType": "uint256",
          "name": "",
          "type": "uint256"
        }
      ],
      "stateMutability": "view",
      "type": "function"
    },
    {
      "inputs": [
        {
          "internalType": "address",
          "name": "from",
          "type": "address"
        },
        {
          "internalType": "address",
          "name": "to",
          "type": "address"
        },
        {
          "internalType": "uint256",
          "name": "tokenId",
          "type": "uint256"
        }
      ],
      "name": "transferFrom",
      "outputs": [],
      "stateMutability": "nonpayable",
      "type": "function"
    },
    {
      "inputs": [
        {
          "components": [
            {
              "internalType": "uint256",
              "name": "tokenId",
              "type": "uint256"
            },
            {
              "internalType": "string",
              "name": "uri",
              "type": "string"
            },
            {
              "components": [
                {
                  "internalType": "address payable",
                  "name": "account",
                  "type": "address"
                },
                {
                  "internalType": "uint96",
                  "name": "value",
                  "type": "uint96"
                }
              ],
              "internalType": "struct LibPart.Part[]",
              "name": "creators",
              "type": "tuple[]"
            },
            {
              "components": [
                {
                  "internalType": "address payable",
                  "name": "account",
                  "type": "address"
                },
                {
                  "internalType": "uint96",
                  "name": "value",
                  "type": "uint96"
                }
              ],
              "internalType": "struct LibPart.Part[]",
              "name": "royalties",
              "type": "tuple[]"
            },
            {
              "internalType": "bytes[]",
              "name": "signatures",
              "type": "bytes[]"
            }
          ],
          "internalType": "struct LibERC721LazyMint.Mint721Data",
          "name": "data",
          "type": "tuple"
        },
        {
          "internalType": "address",
          "name": "from",
          "type": "address"
        },
        {
          "internalType": "address",
          "name": "to",
          "type": "address"
        }
      ],
      "name": "transferFromOrMintTo",
      "outputs": [],
      "stateMutability": "nonpayable",
      "type": "function"
    },
    {
      "inputs": [
        {
          "internalType": "address",
          "name": "newOwner",
          "type": "address"
        }
      ],
      "name": "transferOwnership",
      "outputs": [],
      "stateMutability": "nonpayable",
      "type": "function"
    },
    {
      "inputs": [
        {
          "internalType": "uint256",
          "name": "_id",
          "type": "uint256"
        },
        {
          "internalType": "address",
          "name": "_from",
          "type": "address"
        },
        {
          "internalType": "address",
          "name": "_to",
          "type": "address"
        }
      ],
      "name": "updateAccount",
      "outputs": [],
      "stateMutability": "nonpayable",
      "type": "function"
    },
    {
      "inputs": [
        {
          "internalType": "string",
          "name": "_name",
          "type": "string"
        },
        {
          "internalType": "string",
          "name": "_symbol",
          "type": "string"
        },
        {
          "internalType": "string",
          "name": "baseURI",
          "type": "string"
        },
        {
          "internalType": "string",
          "name": "contractURI",
          "type": "string"
        }
      ],
      "name": "__ERC721_init",
      "outputs": [],
      "stateMutability": "nonpayable",
      "type": "function"
    }
  ],
  "bytecode": "0x608060405234801561001057600080fd5b5061443f806100206000396000f3fe608060405234801561001057600080fd5b50600436106101da5760003560e01c8063715018a611610104578063a2e29777116100a2578063e07f231911610071578063e07f2319146103e5578063e8a3d485146103f8578063e985e9c514610400578063f2fde38b14610413576101da565b8063a2e2977714610399578063b88d4fde146103ac578063bb3bafd6146103bf578063c87b56dd146103d2576101da565b80638924af74116100de5780638924af74146103555780638da5cb5b1461037657806395d89b411461037e578063a22cb46514610386576101da565b8063715018a61461031a57806384cb948114610322578063891be97414610335576101da565b80632f745c591161017c5780634f6ccce71161014b5780634f6ccce7146102d95780636352211e146102ec5780636c0360eb146102ff57806370a0823114610307576101da565b80632f745c591461028d5780633d4e4acb146102a057806342842e0e146102b357806342966c68146102c6576101da565b8063095ea7b3116101b8578063095ea7b31461023d57806318054c371461025257806318160ddd1461026557806323b872dd1461027a576101da565b806301ffc9a7146101df57806306fdde0314610208578063081812fc1461021d575b600080fd5b6101f26101ed366004613beb565b610426565b6040516101ff9190613ed6565b60405180910390f35b610210610449565b6040516101ff9190613ee1565b61023061022b366004613d56565b6104df565b6040516101ff9190613e57565b61025061024b366004613bc0565b610541565b005b610250610260366004613b8f565b61061c565b61026d61069e565b6040516101ff919061404f565b610250610288366004613ae5565b6106af565b61026d61029b366004613bc0565b610706565b6102506102ae366004613cf4565b610731565b6102506102c1366004613ae5565b61075f565b6102506102d4366004613d56565b61077a565b61026d6102e7366004613d56565b6107cc565b6102306102fa366004613d56565b6107e2565b61021061080a565b61026d610315366004613a91565b61086b565b6102506108d3565b610250610330366004613c13565b610991565b610348610343366004613d56565b610acd565b6040516101ff9190613ec3565b610368610363366004613d94565b610b5d565b6040516101ff929190613ea1565b610230610ba7565b610210610bb6565b610250610394366004613b8f565b610c17565b6102506103a7366004613caf565b610d1c565b6102506103ba366004613b25565b610ea0565b6103486103cd366004613d56565b610efe565b6102106103e0366004613d56565b610f79565b6102506103f3366004613d6e565b6111fa565b61021061123d565b6101f261040e366004613aad565b6112cc565b610250610421366004613a91565b6112d8565b6001600160e01b0319811660009081526065602052604090205460ff165b919050565b609c8054604080516020601f60026000196101006001881615020190951694909404938401819004810282018101909252828152606093909290918301828280156104d55780601f106104aa576101008083540402835291602001916104d5565b820191906000526020600020905b8154815290600101906020018083116104b857829003601f168201915b5050505050905090565b60006104ea826113ed565b6105255760405162461bcd60e51b815260040180806020018281038252602c8152602001806142d8602c913960400191505060405180910390fd5b506000908152609a60205260409020546001600160a01b031690565b600061054c826107e2565b9050806001600160a01b0316836001600160a01b0316141561059f5760405162461bcd60e51b81526004018080602001828103825260218152602001806143886021913960400191505060405180910390fd5b806001600160a01b03166105b16113fa565b6001600160a01b031614806105d257506105d2816105cd6113fa565b6113fe565b61060d5760405162461bcd60e51b81526004018080602001828103825260388152602001806141db6038913960400191505060405180910390fd5b610617838361142c565b505050565b6106246113fa565b6001600160a01b0316610635610ba7565b6001600160a01b031614610690576040805162461bcd60e51b815260206004820181905260248201527f4f776e61626c653a2063616c6c6572206973206e6f7420746865206f776e6572604482015290519081900360640190fd5b61069a828261149a565b5050565b60006106aa60986114fa565b905090565b6106c06106ba6113fa565b82611505565b6106fb5760405162461bcd60e51b81526004018080602001828103825260318152602001806143a96031913960400191505060405180910390fd5b610617838383611511565b6001600160a01b0382166000908152609760205260408120610728908361165d565b90505b92915050565b825161073c906113ed565b15610755576107508282856000015161075f565b610617565b6106178382610d1c565b61061783838360405180602001604052806000815250610ea0565b6107856106ba6113fa565b6107c05760405162461bcd60e51b81526004018080602001828103825260308152602001806143da6030913960400191505060405180910390fd5b6107c981611669565b50565b6000806107da609884611736565b509392505050565b600061072b8260405180606001604052806029815260200161423d6029913960989190611752565b609f8054604080516020601f60026000196101006001881615020190951694909404938401819004810282018101909252828152606093909290918301828280156104d55780601f106104aa576101008083540402835291602001916104d5565b60006001600160a01b0382166108b25760405162461bcd60e51b815260040180806020018281038252602a815260200180614213602a913960400191505060405180910390fd5b6001600160a01b038216600090815260976020526040902061072b906114fa565b6108db6113fa565b6001600160a01b03166108ec610ba7565b6001600160a01b031614610947576040805162461bcd60e51b815260206004820181905260248201527f4f776e61626c653a2063616c6c6572206973206e6f7420746865206f776e6572604482015290519081900360640190fd5b6033546040516000916001600160a01b0316907f8be0079c531659141344cd1fd0a4f28419497f9722a3daafe3b4186f6b6457e0908390a3603380546001600160a01b0319169055565b600054610100900460ff16806109aa57506109aa611769565b806109b8575060005460ff16155b6109f35760405162461bcd60e51b815260040180806020018281038252602e815260200180614266602e913960400191505060405180910390fd5b600054610100900460ff16158015610a1e576000805460ff1961ff0019909116610100171660011790555b610a278361177a565b610a2f61178d565b610a3761183e565b610a3f6118db565b610a4761197b565b610a4f611a18565b610a576118db565b610a5f611b11565b610a6882611be0565b610a728585611ca7565b7f67ca6f12a144afa9fd0057258684e6aea5d9dc4207a5e5714f519a5816f30b3f610a9b6113fa565b8686604051610aac93929190613e6b565b60405180910390a18015610ac6576000805461ff00191690555b5050505050565b60606101c76000838152602001908152602001600020805480602002602001604051908101604052809291908181526020016000905b82821015610b5257600084815260209081902060408051808201909152908401546001600160a01b0381168252600160a01b90046001600160601b031681830152825260019092019101610b03565b505050509050919050565b6101c66020528160005260406000208181548110610b7a57600080fd5b6000918252602090912001546001600160a01b0381169250600160a01b90046001600160601b0316905082565b6033546001600160a01b031690565b609d8054604080516020601f60026000196101006001881615020190951694909404938401819004810282018101909252828152606093909290918301828280156104d55780601f106104aa576101008083540402835291602001916104d5565b610c1f6113fa565b6001600160a01b0316826001600160a01b03161415610c85576040805162461bcd60e51b815260206004820152601960248201527f4552433732313a20617070726f766520746f2063616c6c657200000000000000604482015290519081900360640190fd5b80609b6000610c926113fa565b6001600160a01b03908116825260208083019390935260409182016000908120918716808252919093529120805460ff191692151592909217909155610cd66113fa565b6001600160a01b03167f17307eab39ab6107e8899845ad3d59bd9653f200f220920489ca2b5937696c318360405180821515815260200191505060405180910390a35050565b815160601c6000610d2b6113fa565b90508360400151600081518110610d3e57fe5b6020026020010151600001516001600160a01b0316826001600160a01b031614610d835760405162461bcd60e51b8152600401610d7a90613f29565b60405180910390fd5b83608001515184604001515114610d9957600080fd5b806001600160a01b0316826001600160a01b03161480610dbe5750610dbe82826112cc565b610dda5760405162461bcd60e51b8152600401610d7a90613fb0565b6000610de585611da2565b905060005b856040015151811015610e5b57600086604001518281518110610e0957fe5b6020026020010151600001519050836001600160a01b0316816001600160a01b031614610e5257610e52818489608001518581518110610e4557fe5b6020026020010151611feb565b50600101610dea565b50610e6a848660000151611ff6565b610e7c85600001518660600151612124565b610e8e856000015186604001516122aa565b610ac685600001518660200151612459565b610eb1610eab6113fa565b83611505565b610eec5760405162461bcd60e51b81526004018080602001828103825260318152602001806143a96031913960400191505060405180910390fd5b610ef8848484846124bc565b50505050565b60008181526101c660209081526040808320805482518185028101850190935280835260609492939192909184018215610b5257600084815260209081902060408051808201909152908401546001600160a01b0381168252600160a01b90046001600160601b031681830152825260019092019101610b03565b6060610f84826113ed565b610fbf5760405162461bcd60e51b815260040180806020018281038252602f815260200180614359602f913960400191505060405180910390fd5b6000828152609e602090815260408083208054825160026001831615610100026000190190921691909104601f8101859004850282018501909352828152929091908301828280156110525780601f1061102757610100808354040283529160200191611052565b820191906000526020600020905b81548152906001019060200180831161103557829003601f168201915b50505050509050600061106361080a565b905080516000141561107757509050610444565b8151156111385780826040516020018083805190602001908083835b602083106110b25780518252601f199092019160209182019101611093565b51815160209384036101000a600019018019909216911617905285519190930192850191508083835b602083106110fa5780518252601f1990920191602091820191016110db565b6001836020036101000a0380198251168184511680821785525050505050509050019250505060405160208183030381529060405292505050610444565b806111428561250e565b6040516020018083805190602001908083835b602083106111745780518252601f199092019160209182019101611155565b51815160209384036101000a600019018019909216911617905285519190930192850191508083835b602083106111bc5780518252601f19909201916020918201910161119d565b6001836020036101000a0380198251168184511680821785525050505050509050019250505060405160208183030381529060405292505050919050565b816001600160a01b031661120c6113fa565b6001600160a01b0316146112325760405162461bcd60e51b8152600401610d7a90613f54565b6106178383836125e9565b6101fa805460408051602060026001851615610100026000190190941693909304601f810184900484028201840190925281815292918301828280156112c45780601f10611299576101008083540402835291602001916112c4565b820191906000526020600020905b8154815290600101906020018083116112a757829003601f168201915b505050505081565b60006107288383612695565b6112e06113fa565b6001600160a01b03166112f1610ba7565b6001600160a01b03161461134c576040805162461bcd60e51b815260206004820181905260248201527f4f776e61626c653a2063616c6c6572206973206e6f7420746865206f776e6572604482015290519081900360640190fd5b6001600160a01b0381166113915760405162461bcd60e51b815260040180806020018281038252602681526020018061411d6026913960400191505060405180910390fd5b6033546040516001600160a01b038084169216907f8be0079c531659141344cd1fd0a4f28419497f9722a3daafe3b4186f6b6457e090600090a3603380546001600160a01b0319166001600160a01b0392909216919091179055565b600061072b6098836126c1565b3390565b6001600160a01b039182166000908152609b6020908152604080832093909416825291909152205460ff1690565b6000818152609a6020526040902080546001600160a01b0319166001600160a01b0384169081179091558190611461826107e2565b6001600160a01b03167f8c5be1e5ebec7d5bd14f71427d1e84f3dd0314c0f7b2291e5b200ac8c7c3b92560405160405180910390a45050565b6001600160a01b038216600081815260c96020908152604091829020805460ff1916851515908117909155825190815291517f270dbb8ba4292910ae92862466486be25c355c837270a3d8824b36a8bc7c653b9281900390910190a25050565b600061072b826126cd565b600061072883836126d1565b826001600160a01b0316611524826107e2565b6001600160a01b0316146115695760405162461bcd60e51b81526004018080602001828103825260298152602001806143306029913960400191505060405180910390fd5b6001600160a01b0382166115ae5760405162461bcd60e51b81526004018080602001828103825260248152602001806141436024913960400191505060405180910390fd5b6115b9838383610617565b6115c460008261142c565b6001600160a01b03831660009081526097602052604090206115e690826126fd565b506001600160a01b03821660009081526097602052604090206116099082612709565b5061161660988284612715565b5080826001600160a01b0316846001600160a01b03167fddf252ad1be2c89b69c2b068fc378daa952ba7f163c4a11628f55a4df523b3ef60405160405180910390a4505050565b6000610728838361272b565b6000611674826107e2565b905061168281600084610617565b61168d60008361142c565b6000828152609e602052604090205460026000196101006001841615020190911604156116cb576000828152609e602052604081206116cb91613760565b6001600160a01b03811660009081526097602052604090206116ed90836126fd565b506116f960988361278f565b5060405182906000906001600160a01b038416907fddf252ad1be2c89b69c2b068fc378daa952ba7f163c4a11628f55a4df523b3ef908390a45050565b6000808080611745868661279b565b9097909650945050505050565b600061175f848484612816565b90505b9392505050565b6000611774306128e0565b15905090565b805161069a90609f9060208401906137a4565b600054610100900460ff16806117a657506117a6611769565b806117b4575060005460ff16155b6117ef5760405162461bcd60e51b815260040180806020018281038252602e815260200180614266602e913960400191505060405180910390fd5b600054610100900460ff1615801561181a576000805460ff1961ff0019909116610100171660011790555b61182a638486f69f60e01b6128e6565b80156107c9576000805461ff001916905550565b600054610100900460ff16806118575750611857611769565b80611865575060005460ff16155b6118a05760405162461bcd60e51b815260040180806020018281038252602e815260200180614266602e913960400191505060405180910390fd5b600054610100900460ff161580156118cb576000805460ff1961ff0019909116610100171660011790555b61182a631131d2f360e21b6128e6565b600054610100900460ff16806118f457506118f4611769565b80611902575060005460ff16155b61193d5760405162461bcd60e51b815260040180806020018281038252602e815260200180614266602e913960400191505060405180910390fd5b600054610100900460ff1615801561182a576000805460ff1961ff00199091166101001716600117905580156107c9576000805461ff001916905550565b600054610100900460ff16806119945750611994611769565b806119a2575060005460ff16155b6119dd5760405162461bcd60e51b815260040180806020018281038252602e815260200180614266602e913960400191505060405180910390fd5b600054610100900460ff16158015611a08576000805460ff1961ff0019909116610100171660011790555b61182a6301ffc9a760e01b6128e6565b600054610100900460ff1680611a315750611a31611769565b80611a3f575060005460ff16155b611a7a5760405162461bcd60e51b815260040180806020018281038252602e815260200180614266602e913960400191505060405180910390fd5b600054610100900460ff16158015611aa5576000805460ff1961ff0019909116610100171660011790555b6000611aaf6113fa565b603380546001600160a01b0319166001600160a01b038316908117909155604051919250906000907f8be0079c531659141344cd1fd0a4f28419497f9722a3daafe3b4186f6b6457e0908290a35080156107c9576000805461ff001916905550565b600054610100900460ff1680611b2a5750611b2a611769565b80611b38575060005460ff16155b611b735760405162461bcd60e51b815260040180806020018281038252602e815260200180614266602e913960400191505060405180910390fd5b600054610100900460ff16158015611b9e576000805460ff1961ff0019909116610100171660011790555b61182a604051806040016040528060078152602001664d696e7437323160c81b815250604051806040016040528060018152602001603160f81b81525061296a565b600054610100900460ff1680611bf95750611bf9611769565b80611c07575060005460ff16155b611c425760405162461bcd60e51b815260040180806020018281038252602e815260200180614266602e913960400191505060405180910390fd5b600054610100900460ff16158015611c6d576000805460ff1961ff0019909116610100171660011790555b8151611c81906101fa9060208501906137a4565b50611c9263e8a3d48560e01b6128e6565b801561069a576000805461ff00191690555050565b600054610100900460ff1680611cc05750611cc0611769565b80611cce575060005460ff16155b611d095760405162461bcd60e51b815260040180806020018281038252602e815260200180614266602e913960400191505060405180910390fd5b600054610100900460ff16158015611d34576000805460ff1961ff0019909116610100171660011790555b8251611d4790609c9060208601906137a4565b508151611d5b90609d9060208501906137a4565b50611d6c6380ac58cd60e01b6128e6565b611d7c635b5e139f60e01b6128e6565b611d8c63780e9d6360e01b6128e6565b8015610617576000805461ff0019169055505050565b60008082606001515167ffffffffffffffff81118015611dc157600080fd5b50604051908082528060200260200182016040528015611deb578160200160208202803683370190505b50905060005b836060015151811015611e3d57611e1e84606001518281518110611e1157fe5b6020026020010151612a01565b828281518110611e2a57fe5b6020908102919091010152600101611df1565b50600083604001515167ffffffffffffffff81118015611e5c57600080fd5b50604051908082528060200260200182016040528015611e86578160200160208202803683370190505b50905060005b846040015151811015611ecb57611eac85604001518281518110611e1157fe5b828281518110611eb857fe5b6020908102919091010152600101611e8c565b507ff64326045af5fd7e15297ba939f85b550474d3899daa47d2bc1ffbdb9ced344e84600001518560200151805190602001208360405160200180828051906020019060200280838360005b83811015611f2f578181015183820152602001611f17565b50505050905001915050604051602081830303815290604052805190602001208560405160200180828051906020019060200280838360005b83811015611f80578181015183820152602001611f68565b505050509050019150506040516020818303038152906040528051906020012060405160200180868152602001858152602001848152602001838152602001828152602001955050505050506040516020818303038152906040528051906020012092505050919050565b610617838383612a6e565b6001600160a01b038216612051576040805162461bcd60e51b815260206004820181905260248201527f4552433732313a206d696e7420746f20746865207a65726f2061646472657373604482015290519081900360640190fd5b61205a816113ed565b156120ac576040805162461bcd60e51b815260206004820152601c60248201527f4552433732313a20746f6b656e20616c7265616479206d696e74656400000000604482015290519081900360640190fd5b6120b860008383610617565b6001600160a01b03821660009081526097602052604090206120da9082612709565b506120e760988284612715565b5060405181906001600160a01b038416906000907fddf252ad1be2c89b69c2b068fc378daa952ba7f163c4a11628f55a4df523b3ef908290a45050565b60005b815181101561229f5760006001600160a01b031682828151811061214757fe5b6020026020010151600001516001600160a01b031614156121af576040805162461bcd60e51b815260206004820152601b60248201527f526563697069656e742073686f756c642062652070726573656e740000000000604482015290519081900360640190fd5b8181815181106121bb57fe5b6020026020010151602001516001600160601b031660001415612225576040805162461bcd60e51b815260206004820181905260248201527f526f79616c74792076616c75652073686f756c6420626520706f736974697665604482015290519081900360640190fd5b60008381526101c660205260409020825183908390811061224257fe5b60209081029190910181015182546001818101855560009485529383902082519101805492909301516001600160601b0316600160a01b026001600160a01b039182166001600160a01b0319909316929092171617905501612127565b5061069a8282612ca6565b60008281526101c76020526040812090805b83518110156123f85760006001600160a01b03168482815181106122dc57fe5b6020026020010151600001516001600160a01b0316141561230f5760405162461bcd60e51b8152600401610d7a90613f79565b83818151811061231b57fe5b6020026020010151602001516001600160601b0316600014156123505760405162461bcd60e51b8152600401610d7a90613ef4565b8284828151811061235d57fe5b602090810291909101810151825460018101845560009384529282902081519301805491909201516001600160601b0316600160a01b026001600160a01b039384166001600160a01b03199092169190911790921691909117905583516123ee908590839081106123ca57fe5b6020026020010151602001516001600160601b031683612ce390919063ffffffff16565b91506001016122bc565b50806127101461241a5760405162461bcd60e51b8152600401610d7a90614001565b7f841ffb90d4cabdd1f16034f3fa831d79060febbb8167bdd54a49269365bdf78f848460405161244b929190614058565b60405180910390a150505050565b612462826113ed565b61249d5760405162461bcd60e51b815260040180806020018281038252602c815260200180614304602c913960400191505060405180910390fd5b6000828152609e602090815260409091208251610617928401906137a4565b6124c7848484611511565b6124d384848484612d3d565b610ef85760405162461bcd60e51b81526004018080602001828103825260328152602001806140eb6032913960400191505060405180910390fd5b60608161253357506040805180820190915260018152600360fc1b6020820152610444565b8160005b811561254b57600101600a82049150612537565b60008167ffffffffffffffff8111801561256457600080fd5b506040519080825280601f01601f19166020018201604052801561258f576020820181803683370190505b50859350905060001982015b83156125e057600a840660300160f81b828280600190039350815181106125be57fe5b60200101906001600160f81b031916908160001a905350600a8404935061259b565b50949350505050565b60008381526101c66020526040812054905b81811015610ac65760008581526101c66020526040902080546001600160a01b03861691908390811061262a57fe5b6000918252602090912001546001600160a01b0316141561268d5760008581526101c66020526040902080548491908390811061266357fe5b600091825260209091200180546001600160a01b0319166001600160a01b03929092169190911790555b6001016125fb565b6001600160a01b038116600090815260c9602052604081205460ff1680610728575061072883836113fe565b60006107288383612ea6565b5490565b6001600160a01b038216600090815260c9602052604081205460ff168061072857506107288383612ebe565b60006107288383612f5a565b60006107288383613020565b600061175f84846001600160a01b03851661306a565b8154600090821061276d5760405162461bcd60e51b81526004018080602001828103825260228152602001806140c96022913960400191505060405180910390fd5b82600001828154811061277c57fe5b9060005260206000200154905092915050565b60006107288383613101565b8154600090819083106127df5760405162461bcd60e51b81526004018080602001828103825260228152602001806142b66022913960400191505060405180910390fd5b60008460000184815481106127f057fe5b906000526020600020906002020190508060000154816001015492509250509250929050565b600082815260018401602052604081205482816128b15760405162461bcd60e51b81526004018080602001828103825283818151815260200191508051906020019080838360005b8381101561287657818101518382015260200161285e565b50505050905090810190601f1680156128a35780820380516001836020036101000a031916815260200191505b509250505060405180910390fd5b508460000160018203815481106128c457fe5b9060005260206000209060020201600101549150509392505050565b3b151590565b6001600160e01b03198082161415612945576040805162461bcd60e51b815260206004820152601c60248201527f4552433136353a20696e76616c696420696e7465726661636520696400000000604482015290519081900360640190fd5b6001600160e01b0319166000908152606560205260409020805460ff19166001179055565b600054610100900460ff16806129835750612983611769565b80612991575060005460ff16155b6129cc5760405162461bcd60e51b815260040180806020018281038252602e815260200180614266602e913960400191505060405180910390fd5b600054610100900460ff161580156129f7576000805460ff1961ff0019909116610100171660011790555b611d8c83836131d5565b8051602091820151604080517f397e04204c1e1a60ee8724b71f8244e10ab5f2e9009854d80f602bda21b59ebb818601526001600160a01b03909316838201526001600160601b039091166060808401919091528151808403909101815260809092019052805191012090565b6000612a7983613297565b9050612a8d846001600160a01b03166128e0565b15612c065760408051630b135d3f60e11b808252600482018481526024830193845285516044840152855191936001600160a01b03891693631626ba7e938793899390929091606490910190602085019080838360005b83811015612afc578181015183820152602001612ae4565b50505050905090810190601f168015612b295780820380516001836020036101000a031916815260200191505b50935050505060206040518083038186803b158015612b4757600080fd5b505afa158015612b5b573d6000803e3d6000fd5b505050506040513d6020811015612b7157600080fd5b505160408051808201909152601c81527f7369676e617475726520766572696669636174696f6e206572726f72000000006020820152916001600160e01b031990911614612c005760405162461bcd60e51b815260206004820181815283516024840152835190928392604490910191908501908083836000831561287657818101518382015260200161285e565b50610ef8565b6001600160a01b038416612c1a82846132e3565b6001600160a01b0316146040518060400160405280601c81526020017f7369676e617475726520766572696669636174696f6e206572726f720000000081525090610ac65760405162461bcd60e51b815260206004820181815283516024840152835190928392604490910191908501908083836000831561287657818101518382015260200161285e565b7f3fa96d7b6bcbfe71ef171666d84db3cf52fa2d1c8afdb1cc8e486177f208b7df8282604051612cd7929190614058565b60405180910390a15050565b600082820183811015610728576040805162461bcd60e51b815260206004820152601b60248201527f536166654d6174683a206164646974696f6e206f766572666c6f770000000000604482015290519081900360640190fd5b6000612d51846001600160a01b03166128e0565b612d5d57506001612e9e565b6000612e6b630a85bd0160e11b612d726113fa565b88878760405160240180856001600160a01b03168152602001846001600160a01b0316815260200183815260200180602001828103825283818151815260200191508051906020019080838360005b83811015612dd9578181015183820152602001612dc1565b50505050905090810190601f168015612e065780820380516001836020036101000a031916815260200191505b5095505050505050604051602081830303815290604052906001600160e01b0319166020820180516001600160e01b0383818316178352505050506040518060600160405280603281526020016140eb603291396001600160a01b0388169190613363565b90506000818060200190516020811015612e8457600080fd5b50516001600160e01b031916630a85bd0160e11b14925050505b949350505050565b60009081526001919091016020526040902054151590565b6000612ec9826113ed565b612f045760405162461bcd60e51b815260040180806020018281038252602c8152602001806141af602c913960400191505060405180910390fd5b6000612f0f836107e2565b9050806001600160a01b0316846001600160a01b03161480612f4a5750836001600160a01b0316612f3f846104df565b6001600160a01b0316145b80612e9e5750612e9e81856113fe565b600081815260018301602052604081205480156130165783546000198083019190810190600090879083908110612f8d57fe5b9060005260206000200154905080876000018481548110612faa57fe5b600091825260208083209091019290925582815260018981019092526040902090840190558654879080612fda57fe5b6001900381819060005260206000200160009055905586600101600087815260200190815260200160002060009055600194505050505061072b565b600091505061072b565b600061302c8383612ea6565b6130625750815460018181018455600084815260208082209093018490558454848252828601909352604090209190915561072b565b50600061072b565b6000828152600184016020526040812054806130cf575050604080518082018252838152602080820184815286546001818101895560008981528481209551600290930290950191825591519082015586548684528188019092529290912055611762565b828560000160018303815481106130e257fe5b9060005260206000209060020201600101819055506000915050611762565b60008181526001830160205260408120548015613016578354600019808301919081019060009087908390811061313457fe5b906000526020600020906002020190508087600001848154811061315457fe5b60009182526020808320845460029093020191825560019384015491840191909155835482528983019052604090209084019055865487908061319357fe5b600082815260208082206002600019909401938402018281556001908101839055929093558881528982019092526040822091909155945061072b9350505050565b600054610100900460ff16806131ee57506131ee611769565b806131fc575060005460ff16155b6132375760405162461bcd60e51b815260040180806020018281038252602e815260200180614266602e913960400191505060405180910390fd5b600054610100900460ff16158015613262576000805460ff1961ff0019909116610100171660011790555b825160208085019190912083519184019190912061012e9190915561012f558015610617576000805461ff0019169055505050565b60006132a1613372565b82604051602001808061190160f01b81525060020183815260200182815260200192505050604051602081830303815290604052805190602001209050919050565b6000815160411461333b576040805162461bcd60e51b815260206004820152601f60248201527f45434453413a20696e76616c6964207369676e6174757265206c656e67746800604482015290519081900360640190fd5b60208201516040830151606084015160001a613359868285856133ad565b9695505050505050565b606061175f848460008561352b565b60006106aa7f8b73c3c69bb8fe3d512ecc4cf759cc79239f7b179b0ffacaa9a75d522b39400f6133a0613686565b6133a861368d565b613694565b60007f7fffffffffffffffffffffffffffffff5d576e7357a4501ddfe92f46681b20a082111561340e5760405162461bcd60e51b81526004018080602001828103825260228152602001806141676022913960400191505060405180910390fd5b8360ff16601b148061342357508360ff16601c145b61345e5760405162461bcd60e51b81526004018080602001828103825260228152602001806142946022913960400191505060405180910390fd5b600060018686868660405160008152602001604052604051808581526020018460ff1681526020018381526020018281526020019450505050506020604051602081039080840390855afa1580156134ba573d6000803e3d6000fd5b5050604051601f1901519150506001600160a01b038116613522576040805162461bcd60e51b815260206004820152601860248201527f45434453413a20696e76616c6964207369676e61747572650000000000000000604482015290519081900360640190fd5b95945050505050565b60608247101561356c5760405162461bcd60e51b81526004018080602001828103825260268152602001806141896026913960400191505060405180910390fd5b613575856128e0565b6135c6576040805162461bcd60e51b815260206004820152601d60248201527f416464726573733a2063616c6c20746f206e6f6e2d636f6e7472616374000000604482015290519081900360640190fd5b600080866001600160a01b031685876040518082805190602001908083835b602083106136045780518252601f1990920191602091820191016135e5565b6001836020036101000a03801982511681845116808217855250505050505090500191505060006040518083038185875af1925050503d8060008114613666576040519150601f19603f3d011682016040523d82523d6000602084013e61366b565b606091505b509150915061367b8282866136f6565b979650505050505050565b61012e5490565b61012f5490565b60008383836136a161375c565b3060405160200180868152602001858152602001848152602001838152602001826001600160a01b03168152602001955050505050506040516020818303038152906040528051906020012090509392505050565b60608315613705575081611762565b8251156137155782518084602001fd5b60405162461bcd60e51b815260206004820181815284516024840152845185939192839260440191908501908083836000831561287657818101518382015260200161285e565b4690565b50805460018160011615610100020316600290046000825580601f1061378657506107c9565b601f0160209004906000526020600020908101906107c99190613830565b828054600181600116156101000203166002900490600052602060002090601f0160209004810192826137da5760008555613820565b82601f106137f357805160ff1916838001178555613820565b82800160010185558215613820579182015b82811115613820578251825591602001919060010190613805565b5061382c929150613830565b5090565b5b8082111561382c5760008155600101613831565b600082601f830112613855578081fd5b8135602061386a61386583614095565b614071565b82815281810190858301855b8581101561389f5761388d898684358b0101613968565b84529284019290840190600101613876565b5090979650505050505050565b600082601f8301126138bc578081fd5b813560206138cc61386583614095565b828152818101908583016040808602880185018910156138ea578687fd5b865b8681101561395a5781838b031215613902578788fd5b815182810181811067ffffffffffffffff8211171561391d57fe5b8352833561392a816140b3565b8152838701356001600160601b038116811461394457898afd5b81880152855293850193918101916001016138ec565b509198975050505050505050565b600082601f830112613978578081fd5b813567ffffffffffffffff81111561398c57fe5b61399f601f8201601f1916602001614071565b8181528460208386010111156139b3578283fd5b816020850160208301379081016020019190915292915050565b600060a082840312156139de578081fd5b6139e860a0614071565b905081358152602082013567ffffffffffffffff80821115613a0957600080fd5b613a1585838601613968565b60208401526040840135915080821115613a2e57600080fd5b613a3a858386016138ac565b60408401526060840135915080821115613a5357600080fd5b613a5f858386016138ac565b60608401526080840135915080821115613a7857600080fd5b50613a8584828501613845565b60808301525092915050565b600060208284031215613aa2578081fd5b8135610728816140b3565b60008060408385031215613abf578081fd5b8235613aca816140b3565b91506020830135613ada816140b3565b809150509250929050565b600080600060608486031215613af9578081fd5b8335613b04816140b3565b92506020840135613b14816140b3565b929592945050506040919091013590565b60008060008060808587031215613b3a578081fd5b8435613b45816140b3565b93506020850135613b55816140b3565b925060408501359150606085013567ffffffffffffffff811115613b77578182fd5b613b8387828801613968565b91505092959194509250565b60008060408385031215613ba1578182fd5b8235613bac816140b3565b915060208301358015158114613ada578182fd5b60008060408385031215613bd2578182fd5b8235613bdd816140b3565b946020939093013593505050565b600060208284031215613bfc578081fd5b81356001600160e01b031981168114610728578182fd5b60008060008060808587031215613c28578182fd5b843567ffffffffffffffff80821115613c3f578384fd5b613c4b88838901613968565b95506020870135915080821115613c60578384fd5b613c6c88838901613968565b94506040870135915080821115613c81578384fd5b613c8d88838901613968565b93506060870135915080821115613ca2578283fd5b50613b8387828801613968565b60008060408385031215613cc1578182fd5b823567ffffffffffffffff811115613cd7578283fd5b613ce3858286016139cd565b9250506020830135613ada816140b3565b600080600060608486031215613d08578081fd5b833567ffffffffffffffff811115613d1e578182fd5b613d2a868287016139cd565b9350506020840135613d3b816140b3565b91506040840135613d4b816140b3565b809150509250925092565b600060208284031215613d67578081fd5b5035919050565b600080600060608486031215613d82578081fd5b833592506020840135613d3b816140b3565b60008060408385031215613da6578182fd5b50508035926020909101359150565b6000815180845260208085019450808401835b83811015613e0157815180516001600160a01b031688528301516001600160601b03168388015260409096019590820190600101613dc8565b509495945050505050565b60008151808452815b81811015613e3157602081850181015186830182015201613e15565b81811115613e425782602083870101525b50601f01601f19169290920160200192915050565b6001600160a01b0391909116815260200190565b6001600160a01b0384168152606060208201819052600090613e8f90830185613e0c565b82810360408401526133598185613e0c565b6001600160a01b039290921682526001600160601b0316602082015260400190565b6000602082526107286020830184613db5565b901515815260200190565b6000602082526107286020830184613e0c565b6020808252818101527f43726561746f722073686172652073686f756c6420626520706f736974697665604082015260600190565b6020808252601190820152701d1bdad95b9259081a5b98dbdc9c9958dd607a1b604082015260600190565b6020808252600b908201526a1b9bdd08185b1b1bddd95960aa1b604082015260600190565b60208082526019908201527f4163636f756e742073686f756c642062652070726573656e7400000000000000604082015260600190565b60208082526031908201527f4552433732313a207472616e736665722063616c6c6572206973206e6f74206f6040820152701ddb995c881b9bdc88185c1c1c9bdd9959607a1b606082015260800190565b6020808252602e908201527f746f74616c20616d6f756e74206f662063726561746f7273207368617265207360408201526d0686f756c642062652031303030360941b606082015260800190565b90815260200190565b60008382526040602083015261175f6040830184613db5565b60405181810167ffffffffffffffff8111828210171561408d57fe5b604052919050565b600067ffffffffffffffff8211156140a957fe5b5060209081020190565b6001600160a01b03811681146107c957600080fdfe456e756d657261626c655365743a20696e646578206f7574206f6620626f756e64734552433732313a207472616e7366657220746f206e6f6e20455243373231526563656976657220696d706c656d656e7465724f776e61626c653a206e6577206f776e657220697320746865207a65726f20616464726573734552433732313a207472616e7366657220746f20746865207a65726f206164647265737345434453413a20696e76616c6964207369676e6174757265202773272076616c7565416464726573733a20696e73756666696369656e742062616c616e636520666f722063616c6c4552433732313a206f70657261746f7220717565727920666f72206e6f6e6578697374656e7420746f6b656e4552433732313a20617070726f76652063616c6c6572206973206e6f74206f776e6572206e6f7220617070726f76656420666f7220616c6c4552433732313a2062616c616e636520717565727920666f7220746865207a65726f20616464726573734552433732313a206f776e657220717565727920666f72206e6f6e6578697374656e7420746f6b656e496e697469616c697a61626c653a20636f6e747261637420697320616c726561647920696e697469616c697a656445434453413a20696e76616c6964207369676e6174757265202776272076616c7565456e756d657261626c654d61703a20696e646578206f7574206f6620626f756e64734552433732313a20617070726f76656420717565727920666f72206e6f6e6578697374656e7420746f6b656e4552433732314d657461646174613a2055524920736574206f66206e6f6e6578697374656e7420746f6b656e4552433732313a207472616e73666572206f6620746f6b656e2074686174206973206e6f74206f776e4552433732314d657461646174613a2055524920717565727920666f72206e6f6e6578697374656e7420746f6b656e4552433732313a20617070726f76616c20746f2063757272656e74206f776e65724552433732313a207472616e736665722063616c6c6572206973206e6f74206f776e6572206e6f7220617070726f7665644552433732314275726e61626c653a2063616c6c6572206973206e6f74206f776e6572206e6f7220617070726f766564a2646970667358221220981185b7d2473ac6638e3db11f98b905753537299b3db006f49aedf34df1252a64736f6c63430007060033",
  "immutableReferences": {},
  "source": "// SPDX-License-Identifier: MIT\n\npragma solidity >=0.6.2 <0.8.0;\npragma abicoder v2;\n\nimport \"./ERC721Base.sol\";\n\ncontract ERC721Wall is ERC721Base {\n\n    event CreateERC721(address owner, string name, string symbol);\n\n    function __ERC721_init(string memory _name, string memory _symbol, string memory baseURI, string memory contractURI) external initializer {\n        _setBaseURI(baseURI);\n        __ERC721Lazy_init_unchained();\n        __RoyaltiesVersion2Upgrade_init_unchained();\n        __Context_init_unchained();\n        __ERC165_init_unchained();\n        __Ownable_init_unchained();\n        __ERC721Burnable_init_unchained();\n        __Mint721Validator_init_unchained();\n        __HasContractURI_init_unchained(contractURI);\n        __ERC721_init_unchained(_name, _symbol);\n        emit CreateERC721(_msgSender(), _name, _symbol);\n    }\n    uint256[50] private __gap;\n}\n",
  "sourcePath": "/home/aniketdixit/Documents/wallappsendthis/contracts/tokens/contracts/erc-721/ERC721Wall.sol",
  "compiler": {
    "name": "solc",
    "version": "0.7.6+commit.7338295f.Emscripten.clang"
  },
  "schemaVersion": "3.4.1",
  "updatedAt": "2021-07-07T08:25:44.240Z",
  "devdoc": {
    "kind": "dev",
    "methods": {
      "approve(address,uint256)": {
        "details": "See {IERC721-approve}."
      },
      "balanceOf(address)": {
        "details": "See {IERC721-balanceOf}."
      },
      "baseURI()": {
        "details": "Returns the base URI set via {_setBaseURI}. This will be automatically added as a prefix in {tokenURI} to each token's URI, or to the token ID if no specific URI is set for that token ID."
      },
      "burn(uint256)": {
        "details": "Burns `tokenId`. See {ERC721-_burn}. Requirements: - The caller must own `tokenId` or be an approved operator."
      },
      "getApproved(uint256)": {
        "details": "See {IERC721-getApproved}."
      },
      "name()": {
        "details": "See {IERC721Metadata-name}."
      },
      "owner()": {
        "details": "Returns the address of the current owner."
      },
      "ownerOf(uint256)": {
        "details": "See {IERC721-ownerOf}."
      },
      "renounceOwnership()": {
        "details": "Leaves the contract without owner. It will not be possible to call `onlyOwner` functions anymore. Can only be called by the current owner. NOTE: Renouncing ownership will leave the contract without an owner, thereby removing any functionality that is only available to the owner."
      },
      "safeTransferFrom(address,address,uint256)": {
        "details": "See {IERC721-safeTransferFrom}."
      },
      "safeTransferFrom(address,address,uint256,bytes)": {
        "details": "See {IERC721-safeTransferFrom}."
      },
      "setApprovalForAll(address,bool)": {
        "details": "See {IERC721-setApprovalForAll}."
      },
      "supportsInterface(bytes4)": {
        "details": "See {IERC165-supportsInterface}. Time complexity O(1), guaranteed to always use less than 30 000 gas."
      },
      "symbol()": {
        "details": "See {IERC721Metadata-symbol}."
      },
      "tokenByIndex(uint256)": {
        "details": "See {IERC721Enumerable-tokenByIndex}."
      },
      "tokenOfOwnerByIndex(address,uint256)": {
        "details": "See {IERC721Enumerable-tokenOfOwnerByIndex}."
      },
      "tokenURI(uint256)": {
        "details": "See {IERC721Metadata-tokenURI}."
      },
      "totalSupply()": {
        "details": "See {IERC721Enumerable-totalSupply}."
      },
      "transferFrom(address,address,uint256)": {
        "details": "See {IERC721-transferFrom}."
      },
      "transferOwnership(address)": {
        "details": "Transfers ownership of the contract to a new account (`newOwner`). Can only be called by the current owner."
      }
    },
    "version": 1
  },
  "userdoc": {
    "kind": "user",
    "methods": {},
    "version": 1
  }
}